:020000040800F2
:104000009804002065410008BB410008B341000846
:10401000B7410008AD410008B942000800000000A7
:10402000000000000000000000000000E741000860
:10403000B141000800000000E5410008E941000826
:104040007F4100087F4100087F4100087F41000850
:104050007F4100087F4100087F4100087F41000840
:104060007F4100087F4100087F4100087F41000830
:104070007F4100087F4100087F4100087F41000820
:104080007F4100087F410008000000007F410008D8
:104090007F4100087F4100087F4100087F41000800
:1040A0007F4100087F4100087F4100087F410008F0
:1040B0007F410008000000007F4100080000000070
:1040C0007F410008000000007F4100087F41000898
:1040D0007F41000800000000000000000000000018
:1040E00000000000000000007F4100080000000008
:1040F00000000000000000000000000000000000C0
:104100007F41000800000000000000007F4100081F
:10411000000000000000000000000000000000009F
:10412000000000000000000000000000000000008F
:10413000000000000000000000000000000000007F
:104140000000000000000000000000007F410008A7
:10415000DFF80CD000F018F800480047D14E0008F6
:10416000980400200648804706480047FEE7FEE71F
:10417000FEE7FEE7FEE7FEE7FEE7FEE7FEE7FEE717
:10418000F141000851410008064C074D06E0E06887
:1041900040F0010394E8070098471034AC42F6D38E
:1041A000FFF7DAFF106900083069000800BFFEE77A
:1041B000704700BFFEE700BFFEE7704710B500285C
:1041C00007DA0A07140E054A00F00F031B1FD45428
:1041D00003E00A07130E024A135410BD18ED00E065
:1041E00000E400E07047704710B500F081F810BDA2
:1041F00010B52948006840F001002749086000BF59
:104200002548006810F0020FFAD02348406823497F
:1042100008402149486008464068214908401E4935
:1042200048600846406820F4400048600846006B3B
:104230001C49084018490863084600681A490840A4
:10424000154908600846C06A184908401249C86202
:104250000846006B40F2031188430F490863084683
:10426000006B20F4803008630846006B20F00040AB
:1042700008630846406B20F0010048630C48006862
:1042800020F48030C1F8C0004FF000008860094978
:10429000086001F045FB10BD001002400C00FF0853
:1042A000FFFFC277BFFFFFBFFFFFF2FEF0FFFF3F40
:1042B000C0100240CC10024000BFFEE702E008C878
:1042C000121F08C1002AFAD170477047002001E090
:1042D00001C1121F002AFBD170470000034908608A
:1042E00000BF024909680029FBD17047080000207F
:1042F0000448006820B103480068401E0149086076
:1043000070470000080000204FF0E021096921F00B
:1043100004014FF0E0221161C21700EB5272C2F3A8
:10432000C702074B1A701946097801EB4102C2EB2C
:10433000C1114FF6FF7202EAC101024A11807047B3
:104340007A0000207C00002001460D4A12884A4372
:104350004FF0E0235A6100229A6101221A6100BFE6
:104360004FF0E022106910F0010F02D010F4803FEE
:10437000F6D000224FF0E0231A619A6170470000E6
:104380007C00002010B52C4B1B6883432A4C236013
:10439000231D1B688343241D2360231D1B68834347
:1043A000241D2360231D1B688343241D236011B13A
:1043B00001290ED105E0204B1B6803431E4C2360EE
:1043C00008E01D4B1B1D1B6803431B4C241D236071
:1043D00000E000BF00BF22B1012A0FD0022A27D17E
:1043E00019E0154B08331B680343134C0834236052
:1043F000231D1B688343241D23601AE00E4B0833E2
:104400001B6883430C4C08342360231D1B68034343
:10441000241D23600DE0084B08331B680343064C42
:1044200008342360231D1B680343241D236000E020
:1044300000BF00BF10BD000000040140014908603A
:10444000704700001404014070B504460D4617493A
:1044500031F8140000F0FCFF4FF4C06000F0F8FFEA
:10446000134951F82430134951F824000022114611
:1044700000F0B3F8012D17D10F49085D0022022189
:1044800000F0BAFE0D4A115D0D4A105D01F098F979
:104490000C4951F8240001220021FFF773FF09495C
:1044A00051F82400FFF7CAFF70BD00005C00002037
:1044B00050000020440000207600002073000020FF
:1044C000700000206400002010B50446044A52F831
:1044D0002410044A52F8240000F077F810BD0000C0
:1044E000500000204400002010B50446104931F867
:1044F000140000F0ADFF0F4951F824300E4951F877
:1045000024000022012100F068F80A4951F8243003
:10451000094951F824000322002100F085F80548DC
:1045200050F82400044951F82410886210BD00009E
:104530003C0000202000002010000020034951F81A
:104540002010034A52F8202091627047200000207A
:1045500010000020034951F82010034A52F820208F
:10456000916170472000002010000020F0B5034644
:104570001C6A5D6A00200DE001268640164207D0C5
:1045800087000F26BE40B443860001FA06F6344386
:10459000461CB0B20828EFD3082011E0012686405F
:1045A00016420BD0A0F10806B7000F26BE40B54357
:1045B000A0F10806B60001FA06F63543461CB0B273
:1045C0001028EBD31C625D62F0BD02461069084200
:1045D00001D0012070470020FCE7F0B504460D46ED
:1045E00016462168E268002019E0012787401F4233
:1045F00013D04FEA400C032707FA0CF7B9434700E2
:1046000005FA07F739434FEA400C032707FA0CF77E
:10461000BA43470006FA07F73A43471CB8B21028D6
:10462000E3D32160E260F0BDF0B504460E46012EF2
:1046300003D167681F43676002E067689F43676054
:10464000A168A2F57F47FF3F16D1E56B00200EE081
:10465000012787401F4208D04FEA400C032707FA82
:104660000CF73943012787403D43471CB8B2102857
:10467000EED3A160E56314E000200FE0012787403E
:104680001F4209D04FEA400C032707FA0CF7B94341
:10469000470002FA07F73943471CB8B21028EDD398
:1046A000A160F0BD2DE9F84F0746884693469A462B
:1046B000DDF828900097202062490860B7E099F85B
:1046C000000080283DDA99F800600D2E05D1009F8A
:1046D00008F110001FFA80F830E0202E03DDA6F16B
:1046E000200086B200E00026002422E000251CE025
:1046F00004EB06105449085C80212941084208D087
:1047000008EB040291B27A1990B25A4600F0E6F929
:1047100009E0D34507D008EB040291B27A1990B2B0
:10472000524600F0DBF9681CC5B2082DE0DB601CC6
:10473000C4B2102CDADB07F1080087B209F10109D5
:1047400075E000266CE0C6EBC60000EB80003F4938
:10475000085C99F80010884260D1C6EBC60000EBF7
:1047600080003A490844407899F80110884255D1B0
:10477000002451E0002521E0C6EBC60000EB8000DC
:1047800032490844C01C10F814108020284101420E
:1047900008D008EB040291B27A1990B25A4600F0A0
:1047A0009DF909E0D34507D008EB040291B27A19CC
:1047B00090B2524600F092F9681CC5B2082DDBDBBE
:1047C000002525E0C6EBC60000EB80001F49084429
:1047D000C01C012101EB4401405C802129410842B9
:1047E00009D008EB040291B27A19083290B25A4605
:1047F00000F074F90AE0D34508D008EB040291B246
:104800007A19083290B2524600F068F9681CC5B2B5
:10481000082DD7DB601CC4B2102CABDB701C86B239
:10482000642E90DB09F1020907F1100087B299F8B4
:10483000000000287FF443AF2020024910390860AF
:10484000BDE8F88F2814004878590008EA66000887
:104850002DE9F05F0646884693469A46DDF8289093
:10486000202076490860DDE099F80000802835DADC
:1048700099F80070202F03DDA7F1200087B200E037
:104880000027002522E000241CE005EB07106C49FE
:10489000085C80212141084208D008EB050291B252
:1048A000321990B25A4600F019F909E0D34507D001
:1048B00008EB050291B2321990B2524600F00EF99F
:1048C000601CC4B2082CE0DB681CC5B2102DDADB1A
:1048D00009F1010906F1080086B2A3E0002799E07A
:1048E000C7EB071000EB80005649085C99F80010F0
:1048F000884278D1C7EB071000EB8000514908448B
:10490000407899F801108842F3D100257DE0002419
:1049100022E0C7EB071000EB80004A490844C01CA6
:1049200005EB4501415C80202041014208D008EBA5
:10493000050291B2321990B25A4600F0CFF809E060
:10494000D34507D008EB050291B2321990B2524616
:1049500000F0C4F8601CC4B2082CDADB002425E0A7
:10496000C7EB071000EB800036490844C01C05EB7C
:104970004501491C405C80212141084209D008EBD7
:10498000050291B23219083290B25A4600F0A6F8E8
:104990000AE0D34508D008EB050291B2321908327B
:1049A00090B2524600F09AF8601CC4B2082CD7DBD3
:1049B000002426E0C7EB071000EB800021490844E3
:1049C000C01C05EB4501891C405C80212141084247
:1049D0000AD008EB050291B23219103290B25A4651
:1049E00000F07CF80BE013E0D34508D008EB05029B
:1049F00091B23219103290B2524600F06FF8601C3A
:104A0000C4B2082CD6DB681CC5B2182DFFF67FAFE8
:104A1000781C87B2642FFFF663AF09F1020906F133
:104A2000180086B299F8000000287FF41DAF2020FE
:104A3000024910390860BDE8F09F000028140048C2
:104A400078590008996700082DE9F05F0746884605
:104A50009246994620201F490860002531E0002435
:104A60002BE01D490A9801EBC01000EB850010F8FF
:104A700004B000261DE08020304110EA0B0F0AD060
:104A800008EB050291B207EBC402324490B25246E1
:104A900000F024F80BE0CA4509D008EB050291B2FA
:104AA00007EBC402324490B24A4600F017F8701C7B
:104AB000C6B2082EDFDB601CC4B2042CD1DB681C3C
:104AC000C5B2202DCBDB2020024910390860BDE89B
:104AD000F09F000028140048695F000870B5054683
:104AE0000E4614463146284600F07EF9201200F0AA
:104AF00091F9E0B200F08EF970BD000070B5044687
:104B000040F23F13EF220021084600F043F908204D
:104B10000E49086020200E49086000250DE000269F
:104B200008E021120B4800F03BFEE1B2094800F01A
:104B300037FE761CF02EF4D36D1CB5F5A07FEED3B6
:104B4000202003491039086070BD00001808004893
:104B5000281400480030014010B500F0ADFD2020C1
:104B60008249086000F004F9CB2000F06BF939208D
:104B700000F050F92C2000F04DF9002000F04AF927
:104B8000342000F047F9022000F044F9CF2000F073
:104B900059F9002000F03EF9C12000F03BF9302027
:104BA00000F038F9E82000F04DF9852000F032F9E6
:104BB000002000F02FF9782000F02CF9EA2000F016
:104BC00041F9002000F026F9002000F023F9ED2043
:104BD00000F038F9642000F01DF9032000F01AF904
:104BE000122000F017F9812000F014F9F72000F0EE
:104BF00029F9202000F00EF9C02000F023F923202D
:104C000000F008F9C12000F01DF9102000F002F9B1
:104C1000C52000F017F93E2000F0FCF8282000F035
:104C2000F9F8C72000F00EF9862000F0F3F83620DE
:104C300000F008F9482000F0EDF83A2000F002F901
:104C4000552000F0E7F8B12000F0FCF8002000F05B
:104C5000E1F8182000F0DEF8B62000F0F3F80820A4
:104C600000F0D8F8822000F0D5F8272000F0D2F824
:104C7000F22000F0E7F8002000F0CCF8262000F049
:104C8000E1F8012000F0C6F8E02000F0DBF80F208A
:104C900000F0C0F8312000F0BDF82B2000F0BAF889
:104CA0000C2000F0B7F80E2000F0B4F8082000F057
:104CB000B1F84E2000F0AEF8F12000F0ABF837204C
:104CC00000F0A8F8072000F0A5F8102000F0A2F8E6
:104CD000032000F09FF80E2000F09CF8092000F05F
:104CE00099F8002000F096F8E12000F0ABF80020E1
:104CF00000F090F80E2000F08DF8142000F08AF8F3
:104D0000032000F087F8112000F084F8072000F05D
:104D100081F8312000F07EF8C12000F07BF84820B7
:104D200000F078F8082000F075F80F2000F072F815
:104D30000C2000F06FF8312000F06CF8362000F005
:104D400069F80F2000F066F8112000F07BF8782059
:104D5000FFF7FAFA292000F075F82C2000F072F81D
:104D6000202002491039086010BD000028140048B6
:104D700010B51020064908606420FFF7E5FA1020FE
:104D80000349103908603220FFF7DEFA10BD000039
:104D9000280800482DE9F04104460D4616461F46F6
:104DA0002020104908602A2000F04CF8E1B22012BF
:104DB00000F03EF8F1B2301200F03AF82B2000F08B
:104DC00041F8E9B2281200F033F8F9B2381200F0D5
:104DD0002FF82C2000F036F8202002491039086006
:104DE000BDE8F0812814004870B504460D462A201D
:104DF00000F028F8E1B2201200F01AF82B2000F0A1
:104E000021F8E9B2281200F013F82C2000F01AF86B
:104E100070BD000010B50446082003490860214613
:104E2000024800F0BDFC10BD1808004800300140E9
:104E300070B505460C462846FFF7ECFF2046FFF705
:104E4000E9FF70BD10B504460820034908602146FB
:104E5000024800F0A5FC10BD2808004800300140C1
:104E600070B5044600251EE0C820FFF737FA002081
:104E7000FFF770FB0120FFF76DFB0220FFF76AFBD5
:104E80000320FFF767FBC820FFF728FA0020FFF791
:104E900055FB0120FFF752FB0220FFF74FFB0320D9
:104EA000FFF74CFB6D1CA542DEDB70BD10B500208A
:104EB000FFF71AFB0120FFF717FB0220FFF714FB97
:104EC0000320FFF711FB00210846FFF7BDFA10BDD4
:104ED00008B54FF48041480300F0D6F900F024FDF6
:104EE00000F0E6F9FFF7E2FF0120FFF7B9FF00F05D
:104EF0008DFB4820FFF708FAFFF72EFE1F20FFF773
:104F0000FDFD97A01F234FF6E0721E2100900A209E
:104F1000FFF79EFC95A01F234FF6FF720A21009019
:104F20000220FFF7BFFB99A01F234FF6FF721E213F
:104F300000900220FFF7B6FB9CA01F234FF6FF72E4
:104F4000322100900220FFF7ADFB9EA01F234FF6F9
:104F5000FF72462100900220FFF7A4FBFFE09C486F
:104F600000F094FA7EA01F234FF6E0728421009097
:104F70000A20FFF76DFC02201F234FF6E072A021EC
:104F800000900520FFF760FD00201F234FF6E07220
:104F9000A02100901D20FFF757FD8D4800780011DB
:104FA0001F234FF6E072A02100903520FFF74CFD43
:104FB0008748007800F00F001F234FF6E072A02111
:104FC00000904D20FFF740FD8148407800111F23DD
:104FD0004FF6E072A02100907820FFF735FD7C4865
:104FE000407800F00F001F234FF6E072A0210090E0
:104FF0009020FFF729FD7648807800111F234FF697
:10500000E072A0210090AC20FFF71EFD7048807870
:1050100000F00F001F234FF6E072A0210090C42083
:10502000FFF712FD6BA01F234FF6E072D021009016
:105030000A20FFF70DFC6648C06848B969A01F2325
:105040004FF6E072F42100901420FFF701FC08E015
:1050500066A01F234FF6E072F42100901420FFF7A2
:10506000F7FB5B48007900111F234FF6E072EC213B
:1050700000903C20FFF7E8FC5548007900F00F0055
:105080001F234FF6E072EC2100905420FFF7DCFC68
:1050900058A01F234FF6E072F42100907020FFF714
:1050A000D7FB4B48407900111F234FF6E072EC21EB
:1050B00000907420FFF7C8FC4548407900F00F00CD
:1050C0001F234FF6E072EC2100908C20FFF7BCFC10
:1050D00048A01F234FF6E072F4210090A420FFF7B0
:1050E000B7FB3B48807900111F234FF6E072EC219B
:1050F0000090A820FFF7A8FC3548807900F00F0049
:105100001F234FF6E072EC210090C020FFF79CFCBB
:105110000020FFF7D9F9012821D13220FFF714F937
:105120000020FFF7D1F9012819D13220FFF70CF93F
:105130000020FFF7C9F9012811D116202449087071
:1051400005204870132088700520C870122008714F
:105150000020487188710861084600F0C9F9FEE630
:105160002020546F646179206973200020476967AB
:10517000614465766963652053656D69636F6E642C
:105180007563746F7220496E632E000020202D2DF0
:105190002047443332463378302053657269657353
:1051A000204D4355202D2D202020000020202020A0
:1051B000204744333246333530525F4541564C2008
:1051C00020000000205254432054657374203A009C
:1051D0008000002020204E6F772054696D65206983
:1051E000732000002020414D200000002020504D61
:1051F000200000003A000000F0B50B46002100241A
:1052000000251F4E366806F4E066B6F5A06F13D091
:1052100006DCB6F5407F15D0B6F5806F15D10EE0EF
:10522000B6F5C06F05D0B6F5E06F0ED100240425A9
:105230000CE00124032509E00224022506E00324F2
:10524000012503E00424002500E000BF00BFC4F1F5
:10525000040603FA06F1C5F104070F26FE401640C6
:1052600031430901074E315400F01F070126BE40AB
:1052700047114FF0E02C0CEB8707C7F80061F0BD39
:105280000CED00E000E400E0024A0A400243024B59
:105290001A60704780FFFF1F08ED00E003480068B8
:1052A00040F48070014908607047000000700040C1
:1052B00010B540F2115000F0CBF840F2125000F05F
:1052C000C7F840F2135000F0C3F840F2165000F057
:1052D000BFF810BD0146074800EB9110006801F0CF
:1052E0001F0301229A40104201D001207047002084
:1052F000FCE7000000100240064901EB901109682C
:1053000000F01F0301229A401143024A02EB90125F
:105310001160704700100240F0B5064600240027D7
:105320000025B6F5006F21D005DC96B3102E0DD008
:10533000182E75D175E0B6F5106F5FD0B6F5506FC9
:1053400038D0A6F5405010387BD145E004E011205C
:10535000FFF7C0FF0546641C15B9B4F5006FF6D120
:105360001120FFF7B7FF00B101276BE005E040F621
:105370000100FFF7AFFF0546641C1DB96FF07C40CC
:105380008442F4D140F60100FFF7A4FF00B10127E9
:1053900058E0FFE704E00120FFF79CFF0546641C8E
:1053A00015B9B4F5A06FF6D10120FFF793FF00B156
:1053B000012747E005E040F60150FFF78BFF054667
:1053C000641C15B921488442F5D140F60150FFF71D
:1053D00081FF00B1012735E005E043F21100FFF73E
:1053E00079FF0546641C15B918488442F5D143F28B
:1053F0001100FFF76FFF00B1012723E005E040F641
:105400000110FFF767FF0546641C15B90F48844279
:10541000F5D140F60110FFF75DFF00B1012711E063
:105420000FE004E01920FFF755FF0546641C15B98D
:1054300006488442F6D11920FFF74CFF00B101273E
:1054400000E000BF00BF3846F0BD0000FFFF0F00C6
:10545000064901EB9011096800F01F0301229A40F0
:105460001143024A02EB9012116070470010024093
:105470000549096A21F44071034A11621146096A1B
:1054800001431162704700000010024030B5002255
:10549000002100230024154D2A682D1D2968134D75
:1054A00010352B68114D08352C680D0C0570C1F3B3
:1054B0000425457001F03F058570C1F34235C57084
:1054C000C2F305450571C2F30625457102F07F055B
:1054D0008571C3F306450581C3F30E05458103F4C9
:1054E0008005C56004F04005056130BD002800401E
:1054F000F0B5044600250026002720784FF47F01F0
:1055000001EA0040E1784FF4604202EA4131084389
:1055100061784FF4F85202EA01210843A17801F0C2
:105520003F0140EA010721794FF47C1202EA014170
:10553000E068084361794FF4FE4202EA0121084322
:10554000A17901F07F0140EA0106CA2018490860EC
:105550005320086000F02EF805461DB320894FF453
:10556000FE0101EA00406189C1F30E0108431049C0
:10557000143908600E4824380660001D0760001DBD
:10558000006820F040000A491C390860084600689D
:105590002169084306491C39086000F02DF800F025
:1055A0005BF80546FF20024908602846F0BD000070
:1055B0002428004010B54FF48042002100200D4BFC
:1055C0001B6813F0400F12D10A4B1B6843F0800395
:1055D000084C236000BF074B1B6803F04001531EBB
:1055E0001A0001D00029F6D011B1012000E00120FD
:1055F00010BD00000C2800400348006820F0800027
:1056000001490860704700000C28004010B540F2C6
:105610001C70FFF71DFFFFF741FE4FF41060FFF70E
:105620006BFE4FF41060FFF777FE4FF40070FFF74A
:105630001FFF40F28F10064908606320054908608B
:1056400040F60F00FFF704FF00F006F810BD000061
:10565000040000200000002008B54FF40042009232
:1056600000210020134A126812F0200F20D1CA2214
:10567000104B1C331A6053221A600E4A121D126816
:1056800022F020020B4B1B1D1A6000BF094A121D9D
:10569000126802F02001009A521E009201D00029E7
:1056A000F4D001B10120FF22024B1C331A6000E04C
:1056B000012008BD0828004000B587B040F20C600A
:1056C000FFF7C6FE382200212148FEF74FFF38239E
:1056D000002202211E48FEF780FF3823032200210A
:1056E0001B48FEF7A1FF1823002201211948FEF7ED
:1056F00074FF1823032200211648FEF795FF20238C
:10570000002201211448FEF768FF20230322002114
:105710001148FEF789FF002001904FF4827000903D
:1057200000200290032005904FF4007003900020A9
:10573000069004906946094800F019F807210748C7
:1057400000F00EF8054800F00DF807B000BD0000AD
:1057500000040048000800480014004800300140E0
:1057600001617047016841F04001016070470246E5
:105770000020106800F441500B6818434B68184330
:105780008B681843CB6818430B6918434B6918435F
:105790008B6918431060D36923F40063D3617047A9
:1057A000024600BF906810F0020FFBD0D16000BF2E
:1057B000906810F0010FFBD0D068C0B270470000B5
:1057C00070B504460B46CD1701EB9575AD10A1EBF6
:1057D0008505AE000F25B540E843CD1701EB957563
:1057E000AD10A1EB8505AD0004FA05F2CD1701EB74
:1057F0009575AD1006D0012D0ED0022D16D0032DBB
:1058000028D11DE0154B9B680340144DAB602B461F
:105810009B681343AB601EE0104BDB6803400F4DE9
:10582000EB602B46DB681343EB6014E00B4B1B690A
:1058300003400A4D2B612B461B6913432B610AE081
:10584000064B5B690340054D6B612B465B69134357
:105850006B6100E000BF00BF70BD000000000140B0
:10586000002000212B4A126842F48032294B1A6032
:1058700000BF401C274A126802F4003111B9B0F58C
:10588000006FF6D1234A126812F4003F00D170472E
:10589000204A52681F4B5A601A46526842F400521E
:1058A0005A601A46526842F480625A601A46526838
:1058B000194B1A40174B5A601A46D26A22F04042DE
:1058C000DA621A46D26A42F00102DA621A46526875
:1058D000124B1A430F4B5A601A46126842F08072FC
:1058E0001A6000BF0B4A126812F0007FFAD0094A12
:1058F000526822F00302074B5A601A46526842F07F
:1059000002025A6000BF034A526812F0080FFAD030
:1059100000BFBCE700100240FFFFC277000029086B
:1059200010B5FFF79DFF10BD10B5124800684FF489
:105930007A71B0FBF1F4601EB0F1807F01D30120D9
:105940000FE0601E4FF0E02148610F214FF0FF3063
:10595000FEF734FC00204FF0E02188610720086149
:10596000002008B100BFFEE70021481EFEF726FC1C
:1059700010BD00000C00002000000000000000002E
:1059800000000000000000000010101010101010A7
:10599000101000001010000000006C6C24240000A7
:1059A00000000100000000000024242424FE4848D8
:1059B0004848FC909090900000103C5492905038D1
:1059C00014121292547810000000225C94A848101F
:1059D00010242A5254880000000030484850206E9D
:1059E00054948C888A74000000003030101000003D
:1059F000000000000000000000040810102020201B
:105A000020202010100804000080402020101010DA
:105A100010101020204080000000000010543810AA
:105A2000385410000000000000000010101010FE9C
:105A30001010101000000000000000000000000026
:105A4000000000001010200000000000000000FE18
:105A50000000000000000000000000000000000046
:105A600000000000101000000000040408081010DE
:105A700020204040808000000000384482828282E2
:105A800082828282443800000000107010101010D2
:105A900010101010107C00000000384482820408AE
:105AA0001020408284FC0000000038448202043848
:105AB00004020282443800000000040C1414242460
:105AC0004444FE04040E00000000FC808080B8C442
:105AD000820202828478000000003C428280B8C4C6
:105AE000828282824438000000007E4282040408E0
:105AF000080810101010000000003844828244385A
:105B000044828282443800000000384482828282CB
:105B1000463A0282443800000000000010100000E5
:105B20000000101000000000000000001010000035
:105B30000000001010200000000000000618608027
:105B40006018060000000000000000000000FE00D9
:105B500000FE00000000000000000000C0300C0249
:105B60000C30C000000000000038448282020408AB
:105B7000101010001010000000003844829AAAAAE9
:105B8000AAAAAA9680423C000000101010282828DB
:105B900044447C4444EE00000000FC424242427C0B
:105BA0004242424242FC000000003C44828080802D
:105BB00080808282443800000000F8444242424221
:105BC0004242424244F800000000FC444240447C0F
:105BD0004440404244FC00000000FC444240447CFD
:105BE0004440404040F000000000344C82808080FF
:105BF0008E8484844C3400000000EE444444447C91
:105C00004444444444EE000000007C101010101086
:105C100010101010107C000000003E080808080852
:105C200008080888887000000000EE44484850606A
:105C30005048484444EE00000000E04040404040EE
:105C40004040404244FC00000000C6446C6C6C5470
:105C50005454444444EE00000000CE446464645450
:105C6000544C4C4C44E40000000038448282828250
:105C700082828282443800000000F844424242445A
:105C80007840404040E00000000038448282828238
:105C9000828282BA443C02000000F04844444448F6
:105CA0007048444444E6000000003C448280403098
:105CB0000C0202824478000000007C549210101004
:105CC00010101010103800000000EE44444444440A
:105CD00044444444443800000000EE444444442812
:105CE00028282810101000000000EE44545454548A
:105CF00054542828282800000000EE444428281086
:105D00001028284444EE00000000EE4444282828CF
:105D1000101010101038000000007E448408081095
:105D20002020408284FC0000001C10101010101075
:105D30001010101010101C000000EE445454FE54BB
:105D4000545428282828000000701010101010103B
:105D50001010101010107000003048840000000077
:105D60000000000000000000000000000000000033
:105D7000000000000000FE000040200000000000C5
:105D80000000000000000000000000000000788417
:105D9000047C84848C7600000000C040404058643D
:105DA00042424242645800000000000000003844B3
:105DB000808080804438000000000C040404344CCF
:105DC000848484844C360000000000000000788445
:105DD00084FC808084780000000018242020F820B3
:105DE00020202020207000000000000000003A4425
:105DF0004478807C82827C000000C040404058642F
:105E00004444444444EE00000000101000003010F0
:105E1000101010101038000000001010000030109A
:105E200010101010109060000000C04040405C480E
:105E30005060504844EE0000000030101010101167
:105E40001010101010390000000000000000ACD24B
:105E50009292929292D6000000000000000058E456
:105E60004444444444EE0000000000000000384474
:105E70008282828244380000000000000000D86462
:105E8000424242645840E000000000000000364CEE
:105E90008484844C34040E000000000000006C3048
:105EA00020202020207000000000000000007888E2
:105EB0008460188444780000000000202020F8202E
:105EC0002020202024180000000000000000C6420E
:105ED00042424242463A0000000000000000EE4408
:105EE0004428282810100000000000000000EE44A4
:105EF0004454542828280000000000000000EE440C
:105F00002810102844EE0000000000000000EE44BD
:105F10004428281010A0C0000000000000007E44AB
:105F20008810204284FC0000000C1010101010603B
:105F30001010101010100C00001010101010101085
:105F4000101010101010100000C020202020201869
:105F5000202020202020C00000000000000000724F
:105F60008C000000000000000000000000001FE0A6
:105F700000003FF000003FF000001FE0000180063D
:105F80000003C00F0003C00F0003C00F0003C00FC9
:105F90000003C00F0003C00F0003C00F0003C00FB9
:105FA00000030003000000000000000000000000EB
:105FB000000300030003C00F0003C00F0003C00F65
:105FC0000003C00F0003C00F0003C00F0003C00F89
:105FD0000003C00F0001800600001FE000003FF03A
:105FE00000003FF000001FE0000000000000000083
:105FF0000000008000000180000003800000078096
:106000000000078000000780000007800000078074
:106010000000078000000780000007800000078064
:1060200000000180000000000000000000000000EF
:10603000000001800000078000000780000007804A
:106040000000078000000780000007800000078034
:10605000000007800000078000000380000001802E
:1060600000000080000000000000000000001FE0B1
:1060700000003FF00000FFF00001FFE0000000061C
:106080000000000F0000000F0000000F0000000FD4
:106090000000000F0000000F0000000F0000000FC4
:1060A00000001FE300007FF800007FF800001FE001
:1060B000000300000003C0000003C0000003C00094
:1060C0000003C0000003C0000003C0000003C000C4
:1060D0000003C0000001800000001FF000003FF836
:1060E00000003FFC00001FFE000000000003FF80D6
:1060F0000001FFC00000FFC000007F80000000180A
:106100000000003C0000003C0000003C0000003C9F
:106110000000003C0000003C0000003C0000003C8F
:1061200000007F8C0001FFE00001FFF000007F8095
:106130000000000C0000003C0000003C0000003C9F
:106140000000003C0000003C0000003C0000003C5F
:106150000000003C0000001800007F800000FFC02D
:106160000001FFC00003FF800000000000000000ED
:106170000002000100030003000380070003C00FBA
:106180000003C00F0003C00F0003C00F0003C00FC7
:106190000003C00F0003C00F0003C00F0003C00FB7
:1061A00000031FE300007FF800007FFC00001FE0F9
:1061B000000000030000000F0000000F0000000FAF
:1061C0000000000F0000000F0000000F0000000F93
:1061D0000000000F0000000F000000070000000397
:1061E00000000001000000000000000000001FFC93
:1061F00000003FF800003FF000001FE000018000B9
:106200000003C0000003C0000003C0000003C00082
:106210000003C0000003C0000003C0000003C00072
:1062200000031FE000007FF800007FF800001FE07F
:10623000000000030000000F0000000F0000000F2E
:106240000000000F0000000F0000000F0000000F12
:106250000000000F0000000600003FE000007FF09B
:106260000000FFF00001FFE00000000000001FFC44
:1062700000003FF800003FF000001FE00001800038
:106280000003C0000003C0000003C0000003C00002
:106290000003C0000003C0000003C0000003C000F2
:1062A00000031FE000007FF800007FFC00001FE0FB
:1062B000000300030003C00F0003C00F0003C00F62
:1062C0000003C00F0003C00F0003C00F0003C00F86
:1062D0000003C00F0001800600001FE000003FF037
:1062E00000003FF000001FE0000000000007FFE09A
:1062F0000003FFC00001FF880000FF180000003805
:1063000000000078000000780000007800000078AD
:10631000000000780000007800000078000000789D
:106320000000001800000000000000000000000055
:1063300000000018000000780000007800000078DD
:10634000000000780000007800000078000000786D
:1063500000000078000000780000003800000018FD
:1063600000000008000000000000000000001FE026
:1063700000003FF000003FF000001FE00001800639
:106380000003C00F0003C00F0003C00F0003C00FC5
:106390000003C00F0003C00F0003C00F0003C00FB5
:1063A00000031FE300007FF800007FFC00001FE0F7
:1063B000000300030003C00F0003C00F0003C00F61
:1063C0000003C00F0003C00F0003C00F0003C00F85
:1063D0000003C00F0001800600001FE000003FF036
:1063E00000003FF000001FE00000000000001FE080
:1063F00000003FF000003FF000001FE000018006B9
:106400000003C00F0003C00F0003C00F0003C00F44
:106410000003C00F0003C00F0003C00F0003C00F34
:1064200000031FE300007FF800007FFC00001FE076
:10643000000000030000000F0000000F0000000F2C
:106440000000000F0000000F0000000F0000000F10
:106450000000000F0000000600001FE000003FF0F9
:1064600000007FF00000FFE00000000000000000DE
:10647000000000000000000000000000000000001C
:10648000000000000000000000000000000000000C
:1064900000000000000000000000000000000000FC
:1064A00000000000000000000000000000000000EC
:1064B0000000000000000000000000000000780064
:1064C00000007800000078000000780000007800EC
:1064D0000000780000000000000000000000000044
:1064E00000000000000000000000000000000000AC
:1064F000000000000000000000000000000000009C
:1065000000000000000000000000070000000F80F5
:1065100000000F8000000F80000007000000000056
:10652000000000000000000000000000000000006B
:10653000000000000000070000000F8000000F8036
:1065400000000F80000007000000000000000000B5
:10655000000000000000000000000000000000003B
:10656000000000000000000000000000000000002B
:1065700000000000000000000007C006000FE00659
:106580000000000C003018180030181800301830C7
:106590000030183000301860003008C00007C0C05C
:1065A000000FE080000000000000000FE000060780
:1065B000C000063018000C3018000C3018001830DD
:1065C0001800303018003030180060000000C00F94
:1065D000E000C007C0000000000000000000000054
:1065E00000000000000000000000000000000000AB
:1065F000000000000000000000000000000000009B
:10660000000700E0000887FC00088E0300089801DE
:10661000800718008000300000003000000070008B
:1066200000006000000060000000600000006000EA
:10663000000060000000700000003000000030002A
:10664000000038000000180100000C03000007FCE7
:10665000000001F000000000000000000000000049
:10666000000000000000000000000000000000002A
:10667000000000000000000000000000000000001A
:10668000000000000000000000000000000000000A
:1066900000000000000000000000000000000000FA
:1066A0000000000000003FF000007FF000007FE0ED
:1066B0000000FFC00000000000000000000000001B
:1066C00000000000000000000000000000000000CA
:1066D00000000000000000000000000000000000BA
:1066E00000000000000000000000CFD40000001FE8
:1066F000F0101010101FF0101010101FF004404484
:10670000442444144814500440FFFE0000CABE0054
:1067100000003FF80000000000000000FFFE010044
:10672000010011101108210441028102050002003C
:10673000B2E200000427C41444145485544554455F
:1067400054155415542554E554210422842244241C
:10675000140808CAD400002820241024102007FEA2
:106760000020F02017E0112011101110151019CA87
:10677000170A0206000200000000000000000000EE
:106780000000000000000000000000000000000009
:10679000000000000000000000CFD4000000000056
:1067A000000007FF000F03C00C00401FF860180036
:1067B000600800400E01C007FF00000000018400D7
:1067C0000184001987800F8CE0078C2000CC000327
:1067D000FFE01FFFC00000000000000000000000FC
:1067E00000000000CABE000000000000000E000013
:1067F0001FFFC0007FE0000000000000000000005C
:106800000000003FC03FFFE00030000030000030DB
:10681000000613000C13C00C18F01818001818000C
:10682000000000000000000000000000000000B2B6
:10683000E20000000000000000003039FC301FCCF6
:10684000300706B00F06F01907B03137B03136F017
:106850001F27F00167F001E5F001E1F00041F00CC5
:10686000F8B03CD830008C300080300000000000D0
:1068700000000000000000000000CAD4000000007A
:106880000000000803600C03700C0330003FE000C0
:106890003F800801003C0180047F80047D800C0063
:1068A000800C10C00C10C00C18400C1C600F7E60D7
:1068B0000670300000300000000000000000000002
:1068C00000000000000000000000000000000000C8
:1068D00000000000000000000000000000000000B8
:1068E00000000000000000000000000000000000A8
:1068F0000000000000000000000000000000000098
:106900000000000000000000000000000000000087
:10691000306900080000002080000000BC42000830
:10692000B06900088000002018040000CC42000874
:1069300000000000000000000000000000F36F06EF
:106940000008004800080048000800480008004807
:106950000004000000080000001000000400000017
:106960000E060000000200000004000013051305DD
:1069700013051305000000480008004800140048F3
:106980000100000000200000800000001105130538
:10699000160500000100000000200000800000003B
:1069A000000205000D0705070700000000000000B9
:04000005080041515D
:00000001FF
