:020000040800F2
:104000009004002065410008DD410008D54100080A
:10401000D9410008AD4100085D42000800000000E1
:104020000000000000000000000000000B4200083B
:10403000B141000800000000094200080D420008DC
:104040007F4100087F4100087F4100087F41000850
:104050007F4100087F4100087F4100087F41000840
:104060007F4100087F4100087F4100087F41000830
:104070007F4100087F4100087F4100087F41000820
:104080007F4100087F4100087F4100087F41000810
:104090007F4100087F4100087F4100087F41000800
:1040A0007F4100087F4100087F4100087F410008F0
:1040B0007F4100087F4100087F4100087F410008E0
:1040C0007F4100087F4100087F4100087F410008D0
:1040D0007F4100087F4100087F4100087F410008C0
:1040E000B54100087F4100087F4100087F4100087A
:1040F0007F4100087F4100087F4100080000000068
:104100007F410008000000007F4100087F41000857
:104110007F4100087F4100087F4100087F4100087F
:104120007F4100087F4100087F4100087F4100086F
:104130007F41000800000000000000007F410008EF
:104140007F4100087F4100087F4100087F4100084F
:10415000DFF80CD000F018F80048004721440008B0
:10416000900400200648804706480047FEE7FEE727
:10417000FEE7FEE7FEE7FEE7FEE7FEE7FEE7FEE717
:104180001542000851410008064C074D06E0E06862
:1041900040F0010394E8070098471034AC42F6D38E
:1041A000FFF7DAFF0C4600082C46000800BFFEE7C8
:1041B0007047000010B54FF4005000F07DF828B1B2
:1041C000012003490870400300F070F810BD0000A2
:1041D0000400002000BFFEE700BFFEE770470000BC
:1041E00010B5002807DA0A07140E054A00F00F037D
:1041F0001B1FD45403E00A07130E024A135410BDC8
:1042000018ED00E000E400E07047704710B500F0E2
:1042100041F810BD10B50F48006840F001000D498D
:10422000086000204860C862084600680A490840E3
:10423000084908604FF47F0088600846006820F451
:104240008020086000F0B6F900214FF0006000F017
:1042500023F910BD00100240FFFFF6EA00BFFEE7A1
:1042600002E008C8121F08C1002AFAD1704770473F
:10427000002001E001C1121F002AFBD1704700009D
:104280000349086000BF024909680029FBD1704753
:10429000000000200448006820B103480068401E68
:1042A00001490860704700000000002001490860D3
:1042B000704700001404014001460748006800EA06
:1042C000010205481438006800EA010312B10BB17D
:1042D000012070470020FCE714040140044A1168E3
:1042E00021F0070141EA0002014B1A60704700000B
:1042F0000020024010B504460B4931F8140000F0CC
:10430000D5F80A4951F82430094951F8240003220C
:10431000102100F027F8054850F82400044951F80E
:104320002410486110BD00004C0000201C0000203B
:104330000C000020034951F82010034A52F82020B5
:10434000516170471C0000200C000020034951F807
:104350002010034A52F82020116170471C000020F1
:104360000C000020F0B5044616460025002201F09E
:104370000F0511F0100F08D0042E05D145F00305EC
:10438000E76B1F43E76300E0354300201EE0012791
:1043900087401F4218D022684FEA800C0F2707FA87
:1043A0000CF7BA43870005FA07F73A43282904D1E6
:1043B000012787401F40676105E0482903D1012795
:1043C00087401F4027612260471CB8B20828DED30F
:1043D000082022E0012787401F421CD06268A0F11C
:1043E00008074FEA870C0F2707FA0CF7BA43A0F12A
:1043F0000807BF0005FA07F73A43282904D1012727
:1044000087401F40676105E0482903D101278740A5
:104410001F4027616260471CB8B21028DAD3F0BD94
:104420004FF48041480300F037F80020FFF762FFA7
:104430000120FFF75FFF0220FFF75CFF0320FFF77B
:1044400059FF00F0BBF826E00020FFF77FFFC820EF
:10445000FFF716FF0120FFF779FFC820FFF710FFD5
:104460000220FFF773FFC820FFF70AFF0320FFF7C2
:104470006DFFC820FFF704FF0020FFF75BFF01205E
:10448000FFF758FF0220FFF755FF0320FFF752FF09
:10449000C820FFF7F5FED7E7024A0A400243024B65
:1044A0001A60704780FFFF1F08ED00E0064901EB2E
:1044B0009011096800F01F0301229A401143024A3B
:1044C00002EB9012116070470010024070B500249A
:1044D00000253348006840F480303149086000BF4F
:1044E000641C2F48006800F4003515B9B4F5006F5E
:1044F000F6D12B48006810F4003F01D100BFFEE761
:104500000320FFF7EBFE264840682549486008462F
:10451000406848600846406840F48060486008464B
:104520004068204908401E494860084640681E49C6
:1045300008431B4948600846C06A1C49084018499E
:10454000C8620846C06A1A4908431549C862084645
:10455000006840F08060086000BF1148006810F0FB
:10456000006FFAD00E48006840F080700C49086077
:1045700000BF0B48006810F0007FFAD00848406880
:1045800020F00300064948600846406840F00200F9
:10459000486000BF0248406810F0080FFAD070BDB4
:1045A00000100240FFFFC3DF0000352000F0FEBF17
:1045B0001908010010B5FFF789FF10BD10B51248AA
:1045C00000684FF47A71B0FBF1F4601EB0F1807FA7
:1045D00001D301200FE0601E4FF0E02148610F2160
:1045E0004FF0FF30FFF7FCFD00204FF0E021886125
:1045F00007200861002008B100BFFEE70021481E27
:10460000FFF7EEFD10BD0000080000202C4600085A
:10461000000000208C00000060420008B84600083E
:104620008C0000200404000070420008000000001C
:1046300000000000000E270700100140001001409C
:1046400000180140001801400100000004000000B3
:1046500001000000020000000E0611070002000029
:1046600004000000000400000800000000080140F1
:1046700000080140020602060406040606060606B5
:104680000008014000100140000C01400100000042
:10469000002000000040000002060406030600009F
:1046A00001000000002000000040000000020100A6
:0846B0000D0E06282800000091
:04000005080041515D
:00000001FF
