:020000040800F2
:10400000B8E70020C1410008C9410008CB410008C1
:10401000CD410008CF410008D14100080000000058
:10402000000000000000000000000000D341000874
:10403000D541000800000000D7410008D941000820
:10404000DB410008DB410008DB410008DB410008E0
:10405000DB410008DB410008DB410008DB410008D0
:10406000DB410008DB410008DB410008DB410008C0
:10407000DB410008DB410008DB410008DB410008B0
:10408000DB410008DB410008DB410008DB410008A0
:10409000DB410008DB410008DB410008DB41000890
:1040A000DB410008DB410008DB410008DB41000880
:1040B000DB410008DB410008DB410008DB41000870
:1040C000DB410008DB410008DB410008DB41000860
:1040D000DB410008DB410008DB410008DB41000850
:1040E000DB410008DB410008DB410008DB41000840
:1040F000DB410008DB410008DB410008DB41000830
:10410000DB410008DB410008DB410008DB4100081F
:10411000DB410008DB410008DB410008DB4100080F
:10412000DB410008DB410008DB410008DB410008FF
:10413000DB410008DB410008DB410008DB410008EF
:10414000DB410008DB410008DB410008DB410008DF
:10415000DB410008DB410008DB410008DB410008CF
:10416000DB410008DB410008DB410008DB410008BF
:10417000DB410008DB410008DB41000800000000D3
:10418000DB410008DB410008DB410008DB4100089F
:10419000DB410008DB410008DB41000800000000B3
:1041A000DB410008DB410008DB410008DFF80CD0F0
:1041B00000F018F800480047E5450008B8E700207F
:1041C0000648804706480047FEE7FEE7FEE7FEE7B1
:1041D000FEE7FEE7FEE7FEE7FEE7FEE7094200082E
:1041E000AD410008064C074D06E0E06840F00103D1
:1041F00094E8070098471034AC42F6D3FFF7DAFF93
:10420000D44F0008E44F000810B51948006840F486
:104210007000174908601748006840F00100154910
:10422000086014490831096841F08001114A0832D8
:104230001160002000E0401C1428FCD300200D4930
:10424000083108600B4800680B49084009490860BC
:104250000A48091D0860081F006820F48020091F13
:104260000860002003490C31086000F053FC10BDC9
:1042700088ED00E000380240FFFFF6FE1030002419
:1042800002E008C8121F08C1002AFAD1704770471F
:10429000002001E001C1121F002AFBD17047014636
:1042A00000BF0A00A1F10101FBD17047F0B5034640
:1042B0001C6A5D6A00200DE001268640164207D088
:1042C00087000F26BE40B443860001FA06F6344349
:1042D000461CB0B20828EFD3082011E00126864022
:1042E00016420BD0A0F10806B7000F26BE40B5431A
:1042F000A0F10806B60001FA06F63543461CB0B236
:104300001028EBD31C625D62F0BD81617047F0B58F
:1043100004460D4616462168E268002019E0012790
:1043200087401F4213D04FEA400C032707FA0CF7CF
:10433000B943470005FA07F739434FEA400C032712
:1043400007FA0CF7BA43470006FA07F73A43471C47
:10435000B8B21028E3D32160E260F0BDF0B50C469E
:104360001546012C03D146681E43466002E04668AC
:104370009E434660826800210DE001268E401E4269
:1043800007D04F000326BE40B2434E0005FA06F6A2
:1043900032434E1CB1B21029EFD38260F0BD000051
:1043A00010B592B0044640F6174000F0D3FA00F082
:1043B00025F8002000F000F902200C900E4809902A
:1043C00000200E900F900D900B900A907620119087
:1043D000F720109009A800F01BF801940220059026
:1043E000002004900390029008900790069001A886
:1043F00000F098F812B010BD0000002010B540F297
:10440000174000F0C7FA40F2174000F0B3FA10BDB1
:10441000434A526B22F00702414B5A63C2685A6307
:10442000C16805295CD2DFE801F003152535480095
:104430003B4A926B00223A4B9A63D0E9053242EA3A
:104440000322038A42EA0342037A42EA0362344BBC
:104450009A6346E0324A926B02F07F42304B9A6395
:10446000D0E9053242EA0322038A42EA03422C4B96
:104470009A6336E02A4A926B6FF30F02284B9A63D5
:10448000D0E9053242EA4312036942EAC322244BCF
:104490009A6326E0224A926B6FF30F02204B9A63D5
:1044A000D0E9053242EA4312036942EA8322836873
:1044B00042EAC3321A4B9A6313E0194A926B6FF3C4
:1044C0000F02174B9A63D0E9053242EA431203699F
:1044D00042EA8322836842EAC332114B9A6300E0C6
:1044E00000BF00BF0E4AD26B00220D4BDA63026898
:1044F000DA631A46126C6FF30D021A6442681A648A
:104500001A46526C02F040425A64838B026A42EAB5
:104510000342034B5B6C1A43014B5A647047000023
:1045200000B002401C49C96800211B4AD1600168E3
:10453000D160114609696FF30D0111614168116184
:104540001146C969154A1140134AD1611146C9691A
:10455000027A41EA0261104AD1611146C969C26812
:1045600011430D4AD1611146C969026911430A4AD2
:10457000D1611146096A01F07F411162818A090403
:10458000826941EA0221C2691143034A126A114356
:10459000014A11627047000000B00240F0FFFC00C9
:1045A0000146044842680A4201D0012070470020B9
:1045B000FCE7000000B00240024909680143014ADB
:1045C0001160704700B002400348006840F00100ED
:1045D000014908607047000000B0024010B500F0CB
:1045E00077FB10BD4FF48041480300F0DBF8FFF784
:1045F000F5FF00F0FBFA5D4800F0D2FC5B4880302C
:1046000000F0CEFC002000F0D3FC00F057FB00F0DF
:1046100085FA012000F0CCFCA7E05548FFF7C0FE6A
:10462000FFF7D2FF00BF0220FFF7BAFF0028FAD041
:104630005048FFF734FE5048FFF7B2FEFFF7C4FFC3
:1046400000BF0220FFF7ACFF0028FAD04948FFF76F
:1046500026FE4A48FFF7A4FEFFF7B6FF00BF022080
:10466000FFF79EFF0028FAD04248FFF718FE4448A3
:10467000FFF796FEFFF7A8FF00BF0220FFF790FFAD
:104680000028FAD03B48FFF70AFE3E48FFF788FEB5
:10469000FFF79AFF00BF0220FFF782FF0028FAD041
:1046A0003448FFF7FCFD3848FFF77AFEFFF78CFF30
:1046B00000BF0220FFF774FF0028FAD02D48FFF753
:1046C000EEFD3248FFF76CFEFFF77EFF00BF0220D1
:1046D000FFF766FF0028FAD02648FFF7E0FD2C48D8
:1046E000FFF75EFEFFF770FF00BF0220FFF758FFE5
:1046F0000028FAD01F48FFF7D2FD2648FFF750FEEA
:10470000FFF762FF00BF0220FFF74AFF0028FAD040
:104710001848FFF7C4FD2048FFF742FEFFF754FF9B
:1047200000BF0220FFF73CFF0028FAD01148FFF736
:10473000B6FD1A48FFF734FEFFF746FF00BF022020
:10474000FFF72EFF0028FAD00A48FFF7A8FD14480B
:10475000FFF726FEFFF738FF00BF0220FFF720FF1C
:104760000028FAD00348FFF79AFD56E70068014099
:10477000A44A0108FFFF0F00582E02080C1203087C
:10478000C0F5030874D9040828BD0508DCA0060894
:104790009084070844680808F84B0908AC2F0A08F9
:1047A00060130B08024A0A400243024B1A6070472A
:1047B00080FFFF1F08ED00E00146074800EB911065
:1047C000006801F01F0301229A40104201D001202D
:1047D00070470020FCE7000000380240064901EB6A
:1047E0009011096800F01F0301229A401143024A08
:1047F00002EB90121160704700380240F0B5064697
:104800000024002700251C2E7BD007DCA6B3102E29
:104810000FD0182E65D01A2E74D174E0B6F5E05F73
:1048200017D0B6F5E85F4AD0A6F540501038F3D15E
:1048300033E004E01120FFF7BFFF0546641C15B903
:10484000B4F5006FF6D11120FFF7B6FF00B10127D4
:104850007AE005E041F60140FFF7AEFF0546641C33
:104860001DB96FF070408442F4D141F60140FFF76A
:10487000A3FF00B1012767E0FFE704E00120FFF795
:104880009BFF0546641C15B9B4F5A06FF6D1012055
:10489000FFF792FF00B1012756E005E043F2110057
:1048A000FFF78AFF0546641C15B929488442F5D1F3
:1048B00043F21100FFF780FF00B1012744E005E05B
:1048C00041F60150FFF778FF0546641C15B92048F2
:1048D0008442F5D141F60150FFF76EFF00B1012788
:1048E00032E004E01920FFF767FF0546641C15B9A4
:1048F00017488442F6D11920FFF75EFF00B1012767
:1049000022E010E01FE004E01B20FFF755FF054602
:10491000641C15B90E488442F6D11B20FFF74CFFEA
:1049200000B1012710E004E01D20FFF745FF054618
:10493000641C15B906488442F6D11D20FFF73CFFE0
:1049400000B1012700E000BF00BF3846F0BD000005
:10495000FFFF0F00064901EB9011096800F01F03EB
:1049600001229A401143024A02EB901211607047F3
:1049700000380240064901EB9011096800F01F035E
:1049800001229A409143024A02EB90121160704753
:1049900000380240064901EB9011096800F01F033E
:1049A00001229A401143024A02EB901211607047B3
:1049B0000038024030B50446322C1FD3B4F5FA7FDC
:1049C0001CD8022905D0042903D0062901D00829C2
:1049D00014D1022A12D30F2A10D8022B0ED3072B80
:1049E0000CD8A0010125C5EB510540EA054040EA7D
:1049F000026040EA0370034D286001E0002030BDF2
:104A00000120FCE788380240044A116821F4403153
:104A100041EA0002014B1A60704700008C380240E6
:104A200000200021384A126842F48032364B1A6066
:104A300000BF401C344A126802F4003111B9B0F5CD
:104A4000006FF6D1304A126812F4003F01D100BF66
:104A5000FEE72D4A4032126842F080522A4B403322
:104A60001A602A4A126842F44042284B1A60264AC9
:104A700008321268244B08331A601A46126842F44E
:104A800000421A601A46126842F4A0521A60204A84
:104A90001B1F1A601A1F126842F080721B1F1A60D7
:104AA00000BF194A126812F0007FFAD0174A126844
:104AB00042F48032154B1A6000BF144A526812F457
:104AC000803FFAD0114A126842F400320F4B1A604C
:104AD00000BF0E4A526812F4003FFAD00A4A083268
:104AE000126822F00302084B08331A601A46126853
:104AF00042F002021A6000BF034A0832126812F044
:104B0000080FF9D0704700000038024000700040E4
:104B10001964400910B5FFF783FF10BD00B59FB0C1
:104B200041F21A10FFF716FF00F0D2F80323022219
:104B30001146C020FFF73EFF08B900BFFEE74FF463
:104B40000030FFF761FF1C20FFF748FE1C20FFF735
:104B500055FE08B900BFFEE700201B901C901D9079
:104B60001E9028201190092010902A2013900B20CD
:104B7000129040F20A20159040F21B1014904FF44E
:104B80000370179040F21D101690FF201890199096
:104B90001A9010A800F0A6F97B20019040F2711045
:104BA0000090182003908D20029002200490FF2096
:104BB00005904FF4C0600A9007200B9000200690EB
:104BC00009900890079007480C9040F2F1100E9061
:104BD000C01E0D9076200F90694603480FF010FF1D
:104BE0001FB000BD000000208068014000B59FB0EC
:104BF00041F21A10FFF7AEFE00F06AF803231A46DE
:104C00000221C020FFF7D6FE08B900BFFEE74FF42F
:104C10000030FFF7F9FE1C20FFF7E0FD1C20FFF736
:104C2000EDFD08B900BFFEE700201B901C901D9011
:104C30001E9028201190092010902A2013900B20FC
:104C4000129040F20A20159040F21B1014904FF47D
:104C50000370179040F21D101690FF2018901990C5
:104C60001A9010A800F03EF97B2001904FF4DD70FF
:104C700000909A200390FD20029002200490FF20D3
:104C80000590099008900790002006904FF4C060AE
:104C90000A9007200B9007480C9040F283200E905A
:104CA000C01E0D9064200F90694603480FF0A8FEC7
:104CB0001FB000BD005000080068014003480068B4
:104CC00040F0010001490860704700001868014089
:104CD00010B540F60140FFF73DFE40F60440FFF7F7
:104CE00039FE40F60740FFF735FE40F60840FFF773
:104CF00031FE40F60640FFF72DFE40F60540FFF777
:104D000029FE20220E217148FFF7D0FA40220E2101
:104D10006E48FFF7CBFA10220E216C48FFF7C6FA57
:104D200004220E216A48FFF7C1FA08220E216848C2
:104D3000FFF7BCFA4FF480720E216548FFF7B6FA10
:104D40004FF400720E216248FFF7B0FA4FF4806210
:104D50000E215F48FFF7AAFA4FF400620E215C486B
:104D6000FFF7A4FA4FF480520E215948FFF79EFA3C
:104D70004FF400520E215648FFF798FA4FF4804244
:104D80000E215348FFF792FA4FF400420E2150488B
:104D9000FFF78CFA01220E214E48FFF787FA022214
:104DA0000E214C48FFF782FA04220E214948FFF7F2
:104DB0007DFA10220E214748FFF778FA20220E21B3
:104DC0004448FFF773FA40220E214248FFF76EFA7B
:104DD00080220E213F48FFF769FA4FF400720E213E
:104DE0003C48FFF763FA4FF480620E213948FFF721
:104DF0005DFA40220E213848FFF758FA80220E2132
:104E00003548FFF753FA4FF480620E213248FFF71E
:104E10004DFA4FF400620E212F48FFF747FA4FF486
:104E200080520E212C48FFF741FA4FF480620E2188
:104E30002A48FFF73BFA7023002202212348FFF79C
:104E400066FA7023022200212048FFF787FA4FF606
:104E50000C73002202211E48FFF759FA4FF60C731B
:104E6000022200211A48FFF779FA40F2F763002284
:104E700002211848FFF74BFA40F2F76302220021A3
:104E80001448FFF76BFA4FF4E65300220221124850
:104E9000FFF73DFA4FF4E653022200210E48FFF7D8
:104EA0005DFA4FF40043012211460D48FFF72FFA37
:104EB0004FF40043022200210948FFF74FFA4FF454
:104EC00000410748FFF721FA10BD00000010024022
:104ED000001C024000200240001802400014024062
:104EE000000402402D49096801F0F0212B4A1160AD
:104EF0008288016841EA0241284A1160111D09684F
:104F000001F0F021121D11608289816841EA02419D
:104F1000224A121D1160111D096801F0F021121DB5
:104F20001160828A016941EA02411C4A083211601B
:104F3000111D096801F0F021121D1160828B816939
:104F400041EA0241154A0C321160144924310968C2
:104F500001F07F41114A24321160D0E9092141EA70
:104F60000221028C41EA02410C4A243211600B49B1
:104F70001031096821F07041084A10321160D0E9FF
:104F80000B121143426B1143826B1143034A1032DF
:104F900012681143014A10321160704708680140DD
:104FA000D0F8841041F00101C0F88410704700006F
:104FB00030B90749096841F00201054A116005E06E
:104FC0000349096841F00101014A1160704700007E
:104FD0002468014014F70B0800000020B8E7000027
:104FE00090420008000000000000000000000000E7
:104FF00000000000000000000000000000000000B1
:10500000FFFFFFFFFFFFFFFFFFFFFFFFFFFFFFFFB0
:10501000FFFFFFFFFFFFFFFFFFFFFFFFFFFFFFFFA0
:10502000FFFFFFFFFFFFFFFFFFFFFFFFFFFFFFFF90
:10B6B000FFFFFFFFFFFFFFFFFFFFFFFFBFDFBEE753
:10B6C000BEDFBEDFBFDFBEE7BEDFBEDFBFDFBEE780
:10B6D000BEDFBEDFBFDFBEE7BEDFBEDFBFDFBEE770
:10B6E000BEDFBEDFBFDFBEE7BEDFBEDFBFDFBEE760
:10B6F000BEDFBEDFBFDFBEE7BEDFBEDFBFDFBEE750
:10B70000BEDFBEDFBFDFBEE7BEDFBEDFBFDFBEE73F
:10B71000BEDFBEDFBFDFBEE7FFFFFFFFFFFFFFFFB4
:10B72000FFFFFFFFFFFFFFFFFFFFFFFFFFFFFFFF29
:10B73000FFFFFFFFFFFFFFFFFFFFFFFFFFFFFFFF19
:10B74000FFFFFFFFFFFFFFFFFFFFFFFFFFFFFFFF09
:10B75000FFFFFFFFFFFFFFFFFFFFFFFFFFFFFFFFF9
:10B76000FFFFFFFFFFFFFFFFFFFFFFFFFFFFFFFFE9
:10B77000FFFFFFFFFFFFFFFFFFFFFFFFFFFFFFFFD9
:10B78000FFFFFFFFFFFFFFFFFFFFFFFFFFFFFFFFC9
:10B79000FFFFFFFFFFFFFFFFFFFFFFFFFFFFFFFFB9
:10B7A000FFFFFFFFFFFFFFFFFFFFFFFFFFFFFFFFA9
:10B7B000FFFFFFFFFFFFFFFFFFFFFFFFFFFFFFFF99
:10B7C000FFFFFFFFFFFFFFFFFFFFFFFFFFFFFFFF89
:10B7D000FFFFFFFFFFFFFFFFFFFFFFFFFFFFFFFF79
:10B7E000FFFFFFFFFFFFFFFFFFFFFFFFFFFFFFFF69
:10B7F000FFFFFFFFFFFFFFFFFFFFFFFFFFFFFFFF59
:10B80000FFFFFFFFFFFFFFFFFFFFFFFFFFFFFFFF48
:10B81000FFFFFFFFFFFFFFFFFFFFFFFFFFFFFFFF38
:10B82000FFFFFFFFFFFFFFFFFFFFFFFFFFFFFFFF28
:10B83000FFFFFFFFFFFFFFFFFFFFFFFFFFFFFFFF18
:10B84000FFFFFFFFFFFFFFFFFFFFFFFFFFFFFFFF08
:10B85000FFFFFFFFFFFFFFFFFFFFFFFFFFFFFFFFF8
:10B86000FFFFFFFFFFFFFFFFFFFFFFFFFFFFFFFFE8
:10B87000FFFFFFFFFFFFFFFFFFFFFFFFFFFFFFFFD8
:10B88000FFFFFFFFFFFFFFFFFFFF7DEF7EE7BEF73C
:10B890007DE7FFFFFFFFFFFFFFFFFFFFFFFFFFFF52
:10B8A000FFFFFFFFFFFFFFFFFFFFFFFFFFFFFFFFA8
:10B8B000FFFFFFFFFFFFFFFFFFFFFFFFFFFFFFFF98
:10B8C000FFFFFFFFFFFFFFFFFFFFFFFFFFFFFFFF88
:10B8D000FFFFFFFFFFFFFFFFFFFFFFFFFFFFFFFF78
:10B8E000FFFFFFFFFFFFFFFFFFFFFFFFFFFFFFFF68
:10B8F000FFFFFFFFFFFFFFFFFFFFFFFFFFFFFFFF58
:10B90000FFFFFFFFFFFFFFFFFFFFFFFFFFFFFFFF47
:10B91000FFFFFFFFFFFFFFFFFFFFFFFFFFFFFFFF37
:10B92000FFFFFFFFFFFFFFFFFFFFFFFFFFFFFFFF27
:10B93000FFFFFFFFFFFFFFFFFFFFBEE7751CB61411
:10B940007514B614751CB6147514B614751CB6149B
:10B950007514B614751CB6147514B614751CB6148B
:10B960007514B614751CB6147514B614751CB6147B
:10B970007514B614751CB6147514B614751CB6146B
:10B980007514B614751CB6147514B614751CB6145B
:10B990007514B614751CB6147EDFFFFFFFFFFFFFA2
:10B9A000FFFFFFFFFFFFFFFFFFFFFFFFFFFFFFFFA7
:10B9B000FFFFFFFFFFFFFFFFFFFFFFFFFFFFFFFF97
:10B9C000FFFFFFFFFFFFFFFFFFFFFFFFFFFFFFFF87
:10B9D000FFFFFFFFFFFFFFFFFFFFFFFFFFFFFFFF77
:10B9E000FFFFFFFFFFFFFFFFFFFFFFFFFFFFFFFF67
:10B9F000FFFFFFFFFFFFFFFFFFFFFFFFFFFFFFFF57
:10BA0000FFFFFFFFFFFFFFFFFFFFFFFFFFFFFFFF46
:10BA1000FFFFFFFFFFFFFFFFFFFFFFFFFFFFFFFF36
:10BA2000FFFFFFFFFFFFFFFFFFFFFFFFFFFFFFFF26
:10BA3000FFFFFFFFFFFFFFFFFFFFFFFFFFFFFFFF16
:10BA4000FFFFFFFFFFFFFFFFFFFFFFFFFFFFFFFF06
:10BA5000FFFFFFFFFFFFFFFFFFFFFFFFFFFFFFFFF6
:10BA6000FFFFFFFFFFFFFFFFFFFFFFFFFFFFFFFFE6
:10BA7000FFFFFFFFFFFFFFFFFFFF30844DA34D6B74
:10BA80000D6BBFCE796EBA6EF96CB36EFFD7FFFF48
:10BA9000FFFFFFFFFFFFFFFFFFFFFFFFFFFFFFFFB6
:10BAA000FFFFFFFFFFFFFFFFFFFFFFFFFFFFFFFFA6
:10BAB000FFFFFFFFFFFFFFFFFFFFFFFFFFFFFFFF96
:10BAC000FFFFFFFFFFFFFFFFFFFFFFFFFFFFFFFF86
:10BAD000FFFFFFFFFFFFFFFFFFFFFFFFFFFFFFFF76
:10BAE000FFFFFFFFFFFFFFFFFFFFFFFFFFFFFFFF66
:10BAF000FFFFFFFFFFFFFFFFFFFFFFFFFFFFFFFF56
:10BB0000FFFFFFFFFFFF3DDF3AC63ABE3AC6BBC6A6
:10BB1000BBD6FFFFFFFFFFFFFFFFFFFFFFFFFFFFA2
:10BB2000FFFFFFFFFFFFFFFFFFFFFFFFFFFFFFFF25
:10BB3000FFFFFFFFFFFFFFFFFFFFFFFFFFFFFFFF15
:10BB4000FFFFFFFFFFFFFFFFFFFFFFFFFFFFFFFF05
:10BB5000FFFFFFFFFFFFFFFFFFFFFFFFFFFFFFFFF5
:10BB6000FFFFFFFFFFFFFFFFFFFFFFFFFFFFFFFFE5
:10BB7000FFFFFFFFFFFFFFFFFFFFFFFFFFFFFFFFD5
:10BB8000FFFFFFFFFFFFFFFFFFFFFFFFFFFFFFFFC5
:10BB9000FFFFFFFFFFFFFFFFFFFFFFFFFFFFFFFFB5
:10BBA000FFFFFFFFFFFFFFFFFFFFFFFFFFFFFFFFA5
:10BBB000FFFFFFFFFFFFFFFFFFFFBEE7B614751497
:10BBC000B6147514B6147514B6147514B614751429
:10BBD000B6147514B6147514B6147514B614751419
:10BBE000B6147514B6147514B6147514B614751409
:10BBF000B6147514B6147514B6147514B6147514F9
:10BC0000B6147514B6147514B6147514B6147514E8
:10BC1000B6147514B6147514BFDFFFFFFFFFFFFFE6
:10BC2000FFFFFFFFFFFFFFFFFFFFFFFFFFFFFFFF24
:10BC3000FFFFFFFFFFFFFFFFFFFFFFFFFFFFFFFF14
:10BC4000FFFFFFFFFFFFFFFFFFFFFFFFFFFFFFFF04
:10BC5000FFFFFFFFFFFFFFFFFFFFFFFFFFFFFFFFF4
:10BC6000FFFFFFFFFFFFFFFFFFFFFFFFFFFFFFFFE4
:10BC7000FFFFFFFFFFFFFFFFFFFFFFFFFFFFFFFFD4
:10BC8000FFFFFFFFFFFFFFFFFFFFFFFFFFFFFFFFC4
:10BC9000FFFFFFFFFFFFFFFFFFFFFFFFFFFFFFFFB4
:10BCA000FFFFFFFFFFFFFFFFFFFFFFFFFFFFFFFFA4
:10BCB000FFFFFFFFFFFFFFFFFFFFFFFFFFFFFFFF94
:10BCC000FFFFFFFFFFFFFFFFFFFFFFFFFFFFFFFF84
:10BCD000FFFFFFFFFFFFFFFFFFFFFFFFFFFFFFFF74
:10BCE000FFFFFFFFFFFFFFFFFFFFFFFFFFFFFFFF64
:10BCF000FFFFFFFFFFFFFFFFFFFF8639C7318639D8
:10BD0000C73138C63335F304F404F304BACEFFFF69
:10BD1000FFFFFFFFFFFFFFFFFFFFFFFFFFFFFFFF33
:10BD2000FFFFFFFFFFFFFFFFFFFFFFFFFFFFFFFF23
:10BD3000FFFFFFFFFFFFFFFFFFFFFFFFFFFFFFFF13
:10BD4000FFFFFFFFFFFFFFFFFFFFFFFFFFFFFFFF03
:10BD5000FFFFFFFFFFFFFFFFFFFFFFFFFFFFFFFFF3
:10BD6000FFFFFFFFFFFFFFFFFFFFFFFFFFFFFFFFE3
:10BD7000FFFFFFFFFFFFFFFFFFFFFFFFFFFFFFFFD3
:10BD8000FFFFBFFF39B6F8AD39B639BE7BBEBACEBC
:10BD9000BCCEFCDEBEEFFFFFFFFFFFFFFFFFFFFF9C
:10BDA000FFFFFFFFFFFFFFFFFFFFFFFFFFFFFFFFA3
:10BDB000FFFFFFFFFFFFFFFFFFFFFFFFFFFFFFFF93
:10BDC000FFFFFFFFFFFFFFFFFFFFFFFFFFFFFFFF83
:10BDD000FFFFFFFFFFFFFFFFFFFFFFFFFFFFFFFF73
:10BDE000FFFFFFFFFFFFFFFFFFFFFFFFFFFFFFFF63
:10BDF000FFFFFFFFFFFFFFFFFFFFFFFFFFFFFFFF53
:10BE0000FFFFFFFFFFFFFFFFFFFFFFFFFFFFFFFF42
:10BE1000FFFFFFFFFFFFFFFFFFFFFFFFFFFFFFFF32
:10BE2000FFFFFFFFFFFFFFFFFFFFFFFFFFFFFFFF22
:10BE3000FFFFFFFFFFFFFFFFFFFFBEE77514B61414
:10BE4000751CB514751CB614751CB5147514B61490
:10BE5000751CB514751CB614751CB5147514B61480
:10BE6000751CB514751CB614751CB5147514B61470
:10BE7000751CB514751CB614751CB5147514B61460
:10BE8000751CB514751CB614751CB5147514B61450
:10BE9000751CB514751CB6147EE7FFFFFFFFFFFF8E
:10BEA000FFFFFFFFFFFFFFFFFFFFFFFFFFFFFFFFA2
:10BEB000FFFFFFFFFFFFFFFFFFFFFFFFFFFFFFFF92
:10BEC000FFFFFFFFFFFFFFFFFFFFFFFFFFFFFFFF82
:10BED000FFFFFFFFFFFFFFFFFFFFFFFFFFFFFFFF72
:10BEE000FFFFFFFFFFFFFFFFFFFFFFFFFFFFFFFF62
:10BEF000FFFFFFFFFFFFFFFFFFFFFFFFFFFFFFFF52
:10BF0000FFFFFFFFFFFFFFFFFFFFFFFFFFFFFFFF41
:10BF1000FFFFFFFFFFFFFFFFFFFFFFFFFFFFFFFF31
:10BF2000FFFFFFFFFFFFFFFFFFFFFFFFFFFFFFFF21
:10BF3000FFFFFFFFFFFFFFFFFFFFFFFFFFFFFFFF11
:10BF4000FFFFFFFFFFFFFFFFFFFFFFFFFFFFFFFF01
:10BF5000FFFFFFFFFFFFFFFFFFFFFFFFFFFFFFFFF1
:10BF6000FFFFFFFFFFFFFFFFFFFFFFFFFFFFFFFFE1
:10BF7000FFFFFFFFFFFFFFFFFFFFC6318639C7311D
:10BF80008639BAD6F304F304F304F304FFD7FFFFB2
:10BF9000FFFFFFFFFFFFFFFFFFFFFFFFFFFFFFFFB1
:10BFA000FFFFFFFFFFFFFFFFFFFFFFFFFFFFFFFFA1
:10BFB000FFFFFFFFFFFFFFFFFFFFFFFFFFFFFFFF91
:10BFC000FFFFFFFFFFFFFFFFFFFFFFFFFFFFFFFF81
:10BFD000FFFFFFFFFFFFFFFFFFFFFFFFFFFFFFFF71
:10BFE000FFFFFFFFFFFFFFFFFFFFFFFFFFFFFFFF61
:10BFF000FFFFFFFFFFFFFFFFFFFFFFFFFFFFFFFF51
:10C000003DE7B8AD78ADF9ADF9B53ABE3AC6BBC6B5
:10C01000BBD6FCD6FCDE7EEFFFFFFFFFFFFFFFFF7E
:10C02000FFFFFFFFFFFFFFFFFFFFFFFFFFFFFFFF20
:10C03000FFFFFFFFFFFFFFFFFFFFFFFFFFFFFFFF10
:10C04000FFFFFFFFFFFFFFFFFFFFFFFFFFFFFFFF00
:10C05000FFFFFFFFFFFFFFFFFFFFFFFFFFFFFFFFF0
:10C06000FFFFFFFFFFFFFFFFFFFFFFFFFFFFFFFFE0
:10C07000FFFFFFFFFFFFFFFFFFFFFFFFFFFFFFFFD0
:10C08000FFFFFFFFFFFFFFFFFFFFFFFFFFFFFFFFC0
:10C09000FFFFFFFFFFFFFFFFFFFFFFFFFFFFFFFFB0
:10C0A000FFFFFFFFFFFFFFFFFFFFFFFFFFFFFFFFA0
:10C0B000FFFFFFFFFFFFFFFFFFFFBEE7B614751492
:10C0C000B614B514B6147514B614B514B6147514A4
:10C0D000B614B514B6147514B614B514B614751494
:10C0E000B614B514B6147514B614B514B614751484
:10C0F000B614B514B6147514B614B514B614751474
:10C10000B614B514B6147514B614F62C383DF73CB5
:10C11000B614B514B6147514BEDFFFFFFFFFFFFFA2
:10C12000FFFFFFFFFFFFFFFFFFFFFFFFFFFFFFFF1F
:10C13000FFFFFFFFFFFFFFFFFFFFFFFFFFFFFFFF0F
:10C14000FFFFFFFFFFFFFFFFFFFFFFFFFFFFFFFFFF
:10C15000FFFFFFFFFFFFFFFFFFFFFFFFFFFFFFFFEF
:10C16000FFFFFFFFFFFFFFFFFFFFFFFFFFFFFFFFDF
:10C17000FFFFFFFFFFFFFFFFFFFFFFFFFFFFFFFFCF
:10C18000FFFFFFFFFFFFFFFFFFFFFFFFFFFFFFFFBF
:10C19000FFFFFFFFFFFFFFFFFFFFFFFFFFFFFFFFAF
:10C1A000FFFFFFFFFFFFFFFFFFFFFFFFFFFFFFFF9F
:10C1B000FFFFFFFFFFFFFFFFFFFFFFFFFFFFFFFF8F
:10C1C000FFFFFFFFFFFFFFFFFFFFFFFFFFFFFFFF7F
:10C1D000FFFFFFFFFFFFFFFFFFFFFFFFFFFFFFFF6F
:10C1E000FFFFFFFFFFFFFFFFFFFFFFFFFFFFFFFF5F
:10C1F000FFFFFFFFFFFFFFFFFFFF8631C7318639DB
:10C20000C73138C6F404F3043305F304BACEFFFF94
:10C21000FFFFFFFFFFFFFFFFFFFFFFFFFFFFFFFF2E
:10C22000FFFFFFFFFFFFFFFFFFFFFFFFFFFFFFFF1E
:10C23000FFFFFFFFFFFFFFFFFFFFFFFFFFFFFFFF0E
:10C24000FFFFFFFFFFFFFFFFFFFFFFFFFFFFFFFFFE
:10C25000FFFFFFFFFFFFFFFFFFFFFFFFFFFFFFFFEE
:10C26000FFFFFFFFFFFFFFFFFFFFFFFFFFFFFFFFDE
:10C27000FFFFFFFFFFFFFFFFFFFFFFFFFFFFFFFFCE
:10C28000359577A5B8A5F8AD39B639BE7BBEBBCE1E
:10C29000FCCEFBD63DDF3DE7BEE7FFFFFFFFFFFF24
:10C2A000FFFFFFFFFFFFFFFFFFFFFFFFFFFFFFFF9E
:10C2B000FFFFFFFFFFFFFFFFFFFFFFFFFFFFFFFF8E
:10C2C000FFFFFFFFFFFFFFFFFFFFFFFFFFFFFFFF7E
:10C2D000FFFFFFFFFFFFFFFFFFFFFFFFFFFFFFFF6E
:10C2E000FFFFFFFFFFFFFFFFFFFFFFFFFFFFFFFF5E
:10C2F000FFFFFFFFFFFFFFFFFFFFFFFFFFFFFFFF4E
:10C30000FFFFFFFFFFFFFFFFFFFFFFFFFFFFFFFF3D
:10C31000FFFFFFFFFFFFFFFFFFFFFFFFFFFFFFFF2D
:10C32000FFFFFFFFFFFFFFFFFFFFFFFFFFFFFFFF1D
:10C33000FFFFFFFFFFFFFFFFFFFFBEE7751CB61407
:10C340007514B614751CB6147514B614751CB61491
:10C350007514B614751CB6147514B614751CB61481
:10C360007514B614751CB6147514B614751CB61471
:10C370007514B614751CB6147514B614751CB51462
:10C38000B865BCA6F97DB6143A86BCA63A8E7B8EFB
:10C39000FDC6F624751CB6147EDFFFFFFFFFFFFF0E
:10C3A000FFFFFFFFFFFFFFFFFFFFFFFFFFFFFFFF9D
:10C3B000FFFFFFFFFFFFFFFFFFFFFFFFFFFFFFFF8D
:10C3C000FFFFFFFFFFFFFFFFFFFFFFFFFFFFFFFF7D
:10C3D000FFFFFFFFFFFFFFFFFFFFFFFFFFFFFFFF6D
:10C3E000FFFFFFFFFFFFFFFFFFFFFFFFFFFFFFFF5D
:10C3F000FFFFFFFFFFFFFFFFFFFFFFFFFFFFFFFF4D
:10C40000FFFFFFFFFFFFFFFFFFFFFFFFFFFFFFFF3C
:10C41000FFFFFFFFFFFFFFFFFFFFFFFFFFFFFFFF2C
:10C42000FFFFFFFFFFFFFFFFFFFFFFFFFFFFFFFF1C
:10C43000FFFFFFFFFFFFFFFFFFFFFFFFFFFFFFFF0C
:10C44000FFFFFFFFFFFFFFFFFFFFFFFFFFFFFFFFFC
:10C45000FFFFFFFFFFFFFFFFFFFFFFFFFFFFFFFFEC
:10C46000FFFFFFFFFFFFFFFFFFFFFFFFFFFFFFFFDC
:10C47000FFFFFFFFFFFFFFFFFFFFF39CF3A43084EC
:10C48000F39CBACE79A6BA9E796EBA9EFFD7FFFF0B
:10C49000FFFFFFFFFFFFFFFFFFFFFFFFFFFFFFFFAC
:10C4A000FFFFFFFFFFFFFFFFFFFFFFFFFFFFFFFF9C
:10C4B000FFFFFFFFFFFFFFFFFFFFFFFFFFFFFFFF8C
:10C4C000FFFFFFFFFFFFFFFFFFFFFFFFFFFFFFFF7C
:10C4D000FFFFFFFFFFFFFFFFFFFFFFFFFFFFFFFF6C
:10C4E000FFFFFFFFFFFFFFFFFFFFFFFFFFFFFFFF5C
:10C4F000FFFFFFFFFFFFFFFFFFFFFFFFFFFFFFFF4C
:10C50000F49C779DB8ADF9ADF9B53ABE7AC6BBC615
:10C51000BBD6FCD6FCE63DE77EEF7EEF7DEF7EEFFF
:10C52000FFFFFFFFFFFFFFFFFFFFFFFFFFFFFFFF1B
:10C53000FFFFFFFFFFFFFFFFFFFFFFFFFFFFFFFF0B
:10C54000FFFFFFFFFFFFFFFFFFFFFFFFFFFFFFFFFB
:10C55000FFFFFFFFFFFFFFFFFFFFFFFFFFFFFFFFEB
:10C56000FFFFFFFFFFFFFFFFFFFFFFFFFFFFFFFFDB
:10C57000FFFFFFFFFFFFFFFFFFFFFFFFFFFFFFFFCB
:10C58000FFFFFFFFFFFFFFFFFFFFFFFFFFFFFFFFBB
:10C59000FFFFFFFFFFFFFFFFFFFFFFFFFFFFFFFFAB
:10C5A000FFFFFFFFFFFFFFFFFFFFFFFFFFFFFFFF9B
:10C5B000FFFFFFFFFFFFFFFFFFFFBEE7B61475148D
:10C5C000B6147514B614B514B6147514B6147514DF
:10C5D000B6147514B614B514B6147514B6147514CF
:10C5E000B6147514B614B514B6147514B6147514BF
:10C5F000B6147514B614B514B6147514B614B51C67
:10C60000B95DBBA6B95D774DBC9E7514B6147514A3
:10C61000B855B865B614B514BFDFFFFFFFFFFFFFC5
:10C62000FFFFFFFFFFFFFFFFFFFFFFFFFFFFFFFF1A
:10C63000FFFFFFFFFFFFFFFFFFFFFFFFFFFFFFFF0A
:10C64000FFFFFFFFFFFFFFFFFFFFFFFFFFFFFFFFFA
:10C65000FFFFFFFFFFFFFFFFFFFFFFFFFFFFFFFFEA
:10C66000FFFFFFFFFFFFFFFFFFFFFFFFFFFFFFFFDA
:10C67000FFFFFFFFFFFFFFFFFFFFFFFFFFFFFFFFCA
:10C68000FFFFFFFFFFFFFFFFFFFFFFFFFFFFFFFFBA
:10C69000FFFFFFFFFFFFFFFFFFFFFFFFFFFF796EC1
:10C6A000BA6E796EB466BFFEFFFFFFFFFFFFFFFFAC
:10C6B000FFFFFFFF38C64C6B4D9B4D6B339DFFFF5B
:10C6C000FFFFFFFFFFFFFFFFFFFFFFFFBA66796E6F
:10C6D000BA6E796EFFFFFFFFFFFFFFFFFFFFFFFF57
:10C6E000FFFFF39C4D6330844D6B38C6FFFFFFFFA7
:10C6F000FFFFFFFFFFFFFFFFFFFFF96C3A65796E59
:10C70000FA6CFFD73084308430844D6BBACEFFFF93
:10C71000FFFFFFFFFFFFFFFFFFFFFFFFFFFFFFFF29
:10C72000FFFFFFFFFFFFFFFFFFFFFFFFFFFFFFFF19
:10C73000FFFFFFFFFFFFFFFFFFFFFFFFFFFFFFFF09
:10C74000FFFFFFFFFFFFFFFFFFFFFFFFFFFFFFFFF9
:10C75000FFFFFFFFFFFFFFFFFFFFFFFFFFFFFFFFE9
:10C76000FFFFFFFFFFFFFFFFFFFFFFFFFFFFFFFFD9
:10C77000FFFFFFFFFFFFFFFFFFFFFFFFFFFFFFFFC9
:10C78000FBDE718CF38CB294CF6BB38C359535A5F1
:10C79000BCCEFCD63DDF3DE77EE77EEF7EE73DE7A2
:10C7A0007EE7FFFFFFFFFFFFFFFFFFFFFFFFFFFF32
:10C7B000FFFFFFFFFFFFFFFFFFFFFFFFFFFFFFFF89
:10C7C000FFFFFFFFFFFFFFFFFFFFFFFFFFFFFFFF79
:10C7D000FFFFFFFFFFFFFFFFFFFFFFFFFFFFFFFF69
:10C7E000FFFFFFFFFFFFFFFFFFFFFFFFFFFFFFFF59
:10C7F000FFFFFFFFFFFFFFFFFFFFFFFFFFFFFFFF49
:10C80000FFFFFFFFFFFFFFFFFFFFFFFFFFFFFFFF38
:10C81000FFFFFFFFFFFFFFFFFFFFFFFFFFFFFFFF28
:10C82000FFFFFFFFFFFFFFFFFFFFFFFFFFFFFFFF18
:10C83000FFFFFFFFFFFFFFFFFFFFBEE7751CB61402
:10C84000751CB5147514B614751CB514751CB61486
:10C85000751CB5147514B614751CB514751CB61476
:10C86000751CB5147514B614751CB514751CB61466
:10C87000751CB5147514B614751CB514751CB61456
:10C88000F97578553A8EB624FCBEFCAEFCB6FCAE0B
:10C890003DC7B9657514B6147EE7FFFFFFFFFFFFC4
:10C8A000FFFFFFFFFFFFFFFFFFFFFFFFFFFFFFFF98
:10C8B000FFFFFFFFFFFFFFFFFFFFFFFFFFFFFFFF88
:10C8C000FFFFFFFFFFFFFFFFFFFFFFFFFFFFFFFF78
:10C8D000FFFFFFFFFFFFFFFFFFFFFFFFFFFFFFFF68
:10C8E000FFFFFFFFFFFFFFFFFFFFFFFFFFFFFFFF58
:10C8F000FFFFBAD638C638C638C638C67AD6FFFF64
:10C90000FFFFFFFFFFFFFFFFFFFFFFFFFFFFFFFF37
:10C91000FFFFFFFFFFFFFFFFFFFFFFFFFFFFF3042E
:10C92000F304F304F304FFCFFFFFFFFFFFFFFFFF5C
:10C93000FFFFFFFF3084C7318639C6310D6BFFFF23
:10C94000FFFFFFFFFFFFFFFFFFFFFFD7F304F3042D
:10C95000F304F3047FFEFFFFFFFFFFFFFFFFFFFF76
:10C96000FFFF30848639C73106384D6BFFFFFFFF6C
:10C97000FFFFFFFFFFFFFFFFFFFFF334F304F304AC
:10C98000F304BFD68639C7318639C6317AD6FFFF60
:10C99000FFFFFFFFFFFFFFFFFFFFFFFFFFFFFFFFA7
:10C9A000FFFFFFFFFFFFFFFFFFFFFFFFFFFFFFFF97
:10C9B000FFFFFFFFFFFFFFFFFFFFFFFFFFFFFFFF87
:10C9C000FFFFFFFFFFFFFFFFFFFFFFFFFFFFFFFF77
:10C9D000FFFFFFFFFFFFFFFFFFFFFFFFFFFFFFFF67
:10C9E000FFFFFFFFFFFFFFFFFFFFFFFFFFFFFFFF57
:10C9F000FFFFFFFFFFFFFFFFFFFFFFFFFFFFFFFF47
:10CA0000FFFFFFFFFFFFFFFFFFFF3CDFFBE675AD12
:10CA100039C6FCD6FCDE3DE77EEFBEEF7EEF7DE75C
:10CA20003DE77EEFFFFFFFFFFFFFFFFFFFFFFFFF81
:10CA3000FFFFFFFFFFFFFFFFFFFFFFFFFFFFFFFF06
:10CA4000FFFFFFFFFFFFFFFFFFFFFFFFFFFFFFFFF6
:10CA5000FFFFFFFFFFFFFFFFFFFFFFFFFFFFFFFFE6
:10CA6000FFFFFFFFFFFFFFFFFFFFFFFFFFFFFFFFD6
:10CA7000FFFFFFFFFFFFFFFFFFFFFFFFFFFFFFFFC6
:10CA8000FFFFFFFFFFFFFFFFFFFFFFFFFFFFFFFFB6
:10CA9000FFFFFFFFFFFFFFFFFFFFFFFFFFFFFFFFA6
:10CAA000FFFFFFFFFFFFFFFFFFFFFFFFFFFFFFFF96
:10CAB000FFFFFFFFFFFFFFFFFFFFBEE7B614751488
:10CAC000B614B514B6147514B614B514B61475149A
:10CAD000B614B514B6147514B614B514B61475148A
:10CAE000B614B514B6147514B614B514B61475147A
:10CAF000B614B514B6147514B614B514B61475146A
:10CB0000B61C774DF6247514372DB514B61C751464
:10CB1000F624F62CB6147514BEDFFFFFFFFFFFFFEF
:10CB2000FFFFFFFFFFFFFFFFFFFFFFFFFFFFFFFF15
:10CB3000FFFFFFFFFFFFFFFFFFFFFFFFFFFFFFFF05
:10CB4000FFFFFFFFFFFFFFFFFFFFFFFFFFFFFFFFF5
:10CB5000FFFFFFFFFFFFFFFFFFFFFFFFFFFFFFFFE5
:10CB6000FFFFFFFFFFFFFFFFFFFFFFFFF49C4D6B89
:10CB7000C73186310030863900308631C731863979
:10CB80004D63FFFFFFFFFFFFFFFFFFFFFFFFFFFF03
:10CB9000FFFFFFFFFFFFFFFFFFFFFFFFFAFFF304B1
:10CBA0003305F3043405FFD7FFFFFFFFFFFFFFFF4F
:10CBB000FFFFFFFF30848639C73186314D6BFFFFA1
:10CBC000FFFFFFFFFFFFFFFFFFFFFFFFF404F30482
:10CBD0003305F304FACFFFFFFFFFFFFFFFFFFFFF67
:10CBE000FFFF3084C7318639C7313084FFFFFFFF34
:10CBF000FFFFFFFFFFFFFFFFFFFFF304F404F30459
:10CC00003305B9D6C7318639C731863138C6FFFFFB
:10CC1000FFFFFFFFFFFFFFFFFFFFFFFFFFFFFFFF24
:10CC2000FFFFFFFFFFFFFFFFFFFFFFFFFFFFFFFF14
:10CC3000FFFFFFFFFFFFFFFFFFFFFFFFFFFFFFFF04
:10CC4000FFFFFFFFFFFFFFFFFFFFFFFFFFFFFFFFF4
:10CC5000FFFFFFFFFFFFFFFFFFFFFFFFFFFFFFFFE4
:10CC6000FFFFFFFFFFFFFFFFFFFFFFFFFFFFFFFFD4
:10CC7000FFFFFFFFFFFFFFFFFFFFFFFFFFFFFFFFC4
:10CC8000FFFFFFFFFFFFFFFFFFFFFFFFFFFFBEF7FD
:10CC900038B6FBD63DDF3DE77EE77EEF7EE73DE73A
:10CCA0007DDF3CDFBEEFFFFFFFFFFFFFFFFFFFFF6A
:10CCB000FFFFFFFFFFFFFFFFFFFFFFFFFFFFFFFF84
:10CCC000FFFFFFFFFFFFFFFFFFFFFFFFFFFFFFFF74
:10CCD000FFFFFFFFFFFFFFFFFFFFFFFFFFFFFFFF64
:10CCE000FFFFFFFFFFFFFFFFFFFFFFFFFFFFFFFF54
:10CCF000FFFFFFFFFFFFFFFFFFFFFFFFFFFFFFFF44
:10CD0000FFFFFFFFFFFFFFFFFFFFFFFFFFFFFFFF33
:10CD1000FFFFFFFFFFFFFFFFFFFFFFFFFFFFFFFF23
:10CD2000FFFFFFFFFFFFFFFFFFFFFFFFFFFFFFFF13
:10CD3000FFFFFFFFFFFFFFFFFFFFBEE7751CB614FD
:10CD40007514B614751CB6147514B614751CB61487
:10CD50007514B614751CB6147514B614751CB61477
:10CD60007514B614751CB6147514B614751CB61467
:10CD70007514B614751CB6147514B614751CB61457
:10CD80007514B614751CB6147B9EB6147B9EB6142F
:10CD9000784DB965751CB6147EDFFFFFFFFFFFFFFE
:10CDA000FFFFFFFFFFFFFFFFFFFFFFFFFFFFFFFF93
:10CDB000FFFFFFFFFFFFFFFFFFFFFFFFFFFFFFFF83
:10CDC000FFFFFFFFFFFFFFFFFFFFFFFFFFFFFFFF73
:10CDD000FFFFFFFFFFFFFFFFFFFFFFFFFFFFFFFF63
:10CDE000FFFFFFFFFFFFFFFF38C687698639C731A6
:10CDF000863987318639C731863987318639C731D7
:10CE00000D6BFFFFFFFFFFFFFFFFFFFFFFFFFFFFB8
:10CE1000FFFFFFFFFFFFFFFFFFFFFFFF7FD6F304D2
:10CE2000F304F3043004BAD6FFFFFFFFFFFFFFFF58
:10CE3000FFFFFFFF3084C731863987313084FFFF21
:10CE4000FFFFFFFFFFFFFFFF79D6FFCFF3043004A2
:10CE5000F304F3047FD6FFFFFFFFFFFFFFFFFFFF99
:10CE6000FFFF30848639C73186394D6BFFFFFFFFE6
:10CE7000FFFFFFFFFFFFFFFFFFFFF3343004F3046A
:10CE8000F304BFCE8639C7318639873179D6FFFFA3
:10CE9000FFFFFFFFFFFFFFFFFFFFFFFFFFFFFFFFA2
:10CEA000FFFFFFFFFFFFFFFFFFFFFFFFFFFFFFFF92
:10CEB000FFFFFFFFFFFFFFFFFFFFFFFFFFFFFFFF82
:10CEC000FFFFFFFFFFFFFFFFFFFFFFFFFFFFFFFF72
:10CED000FFFFFFFFFFFFFFFFFFFFFFFFFFFFFFFF62
:10CEE000FFFFFFFFFFFFFFFFFFFFFFFFFFFFFFFF52
:10CEF000FFFFFFFFFFFFFFFFFFFFFFFFFFFFFFFF42
:10CF0000FFFFFFFFFFFFFFFFFFFFFFFFFFFF7DE7CB
:10CF1000F8BDFCD6FCE63DE77EEF7EEF7DEF7DE7DA
:10CF20003DE73DDFFCDEBEEFFFFFFFFFFFFFFFFF42
:10CF3000FFFFFFFFFFFFFFFFFFFFFFFFFFFFFFFF01
:10CF4000FFFFFFFFFFFFFFFFFFFFFFFFFFFFFFFFF1
:10CF5000FFFFFFFFFFFFFFFFFFFFFFFFFFFFFFFFE1
:10CF6000FFFFFFFFFFFFFFFFFFFFFFFFFFFFFFFFD1
:10CF7000FFFFFFFFFFFFFFFFFFFFFFFFFFFFFFFFC1
:10CF8000FFFFFFFFFFFFFFFFFFFFFFFFFFFFFFFFB1
:10CF9000FFFFFFFFFFFFFFFFFFFFFFFFFFFFFFFFA1
:10CFA000FFFFFFFFFFFFFFFFFFFFFFFFFFFFFFFF91
:10CFB000FFFFFFFFFFFFFFFFFFFFBEE7B614751483
:10CFC000B6147514B6147514B6147514B614751415
:10CFD000B6147514B6147514B6147514B614751405
:10CFE000B6147514B6147514B6147514B6147514F5
:10CFF000B6147514B6147514B6147514B6147514E5
:10D00000B6147514B6147514FCA6374DFDAE774DE5
:10D01000FA75B965B6147514BFDFFFFFFFFFFFFF98
:10D02000FFFFFFFFFFFFFFFFFFFFFFFFFFFFFFFF10
:10D03000FFFFFFFFFFFFFFFFFFFFFFFFFFFFFFFF00
:10D04000FFFFFFFFFFFFFFFFFFFFFFFFFFFFFFFFF0
:10D05000FFFFFFFFFFFFFFFFFFFFFFFFFFFFFFFFE0
:10D06000FFFFFFFFFFFFF39CC7318639C7318639C9
:10D07000C7318639C7318639C7318639C7318639D4
:10D080003084FFFFFFFFFFFFFFFFFFFFFFFFFFFFFA
:10D09000FFFFFFFFFFFFFFFFFFFFFFFFFFFF736EBD
:10D0A000FA6C796EBA66FFFFFFFFFFFFFFFFFFFF1D
:10D0B000FFFFFFFF38C64C6B30844C9B349DFFFF55
:10D0C000BFCE796E3335F304BA6EFFFF3A65796EE1
:10D0D000FA6C736EFFFFFFFFFFFFFFFFFFFFFFFF15
:10D0E000FFFF38C64D6330844D9BF39CFFFFFFFF6D
:10D0F000FFFFFFFFFFFFFFFFFFFFF99CBA66739E74
:10D10000FA6CF9FF339D3084F49C3084BACEFFFF73
:10D11000FFFFFFFFFFFFFFFFFFFFFFFFFFFFFFFF1F
:10D12000FFFFFFFFFFFFFFFFFFFFFFFFFFFFFFFF0F
:10D13000FFFFFFFFFFFFFFFFFFFFFFFFFFFFFFFFFF
:10D14000FFFFFFFFFFFFFFFFFFFFFFFFFFFFFFFFEF
:10D15000FFFFFFFFFFFFFFFFFFFFFFFFFFFFFFFFDF
:10D16000FFFFFFFFFFFFFFFFFFFFFFFFFFFFFFFFCF
:10D17000FFFFFFFFFFFFFFFFFFFFFFFFFFFFFFFFBF
:10D18000FFFFFFFFFFFFFFFFFFFFFFFFFFFFFEFFB0
:10D19000359DFCDE3DDF3DE77EE77EEF7EE73DE748
:10D1A0003DE73CE73CDFFCDE7DE7FFFFFFFFFFFFE5
:10D1B000FFFFFFFFFFFFFFFFFFFFFFFFFFFFFFFF7F
:10D1C000FFFFFFFFFFFFFFFFFFFFFFFFFFFFFFFF6F
:10D1D000FFFFFFFFFFFFFFFFFFFFFFFFFFFFFFFF5F
:10D1E000FFFFFFFFFFFFFFFFFFFFFFFFFFFFFFFF4F
:10D1F000FFFFFFFFFFFFFFFFFFFFFFFFFFFFFFFF3F
:10D20000FFFFFFFFFFFFFFFFFFFFFFFFFFFFFFFF2E
:10D21000FFFFFFFFFFFFFFFFFFFFFFFFFFFFFFFF1E
:10D22000FFFFFFFFFFFFFFFFFFFFFFFFFFFFFFFF0E
:10D23000FFFFFFFFFFFFFFFFFFFFBEE77514B61400
:10D24000751CB514751CB614751CB5147514B6147C
:10D25000751CB514751CB614751CB5147514B6146C
:10D26000751CB514751CB614751CB5147514B6145C
:10D27000751CB514751CB614751CB5147514B6144C
:10D28000751CB514751CB614B96D3A7EFA7D3A7EDC
:10D290003A863735751CB6147EE7FFFFFFFFFFFFA8
:10D2A000FFFFFFFFFFFFFFFFFFFFFFFFFFFFFFFF8E
:10D2B000FFFFFFFFFFFFFFFFFFFFFFFFFFFFFFFF7E
:10D2C000FFFFFFFFFFFFFFFFFFFFFFFFFFFFFFFF6E
:10D2D000FFFFFFFFFFFFFFFFFFFFFFFFFFFFFFFF5E
:10D2E000FFFFFFFFF3A4C7318639C6318639C73146
:10D2F0008639C6310D6B308430844D6B8639C73129
:10D3000038CEFFFFFFFFFFFFFFFFFFFFFFFFFFFF25
:10D31000FFFFFFFFFFFFFFFFFFFFFFFFFFFFFFFF1D
:10D32000FFFFFFFFFFFFFFFFFFFFFFFFFFFFFFFF0D
:10D33000FFFFFFFFFFFFFFFFFFFFFFFFFFFFBACE73
:10D34000F30CF304F304F304796EFFFFFFFFFFFF18
:10D35000FFFFFFFFFFFFFFFFFFFFFFFFFFFFFFFFDD
:10D36000FFFFFFFFFFFFFFFFFFFFFFFFFFFFFFFFCD
:10D37000FFFFFFFFFFFFFFFFFFFFFFFFFFFFFFFFBD
:10D38000FFFFFFFFFFFFFFFFFFFFFFFFFFFFFFFFAD
:10D39000FFFFFFFFFFFFFFFFFFFFFFFFFFFFFFFF9D
:10D3A000FFFFFFFFFFFFFFFFFFFFFFFFFFFFFFFF8D
:10D3B000FFFFFFFFFFFFFFFFFFFFFFFFFFFFFFFF7D
:10D3C000FFFFFFFFFFFFFFFFFFFFFFFFFFFFFFFF6D
:10D3D000FFFFFFFFFFFFFFFFFFFFFFFFFFFFFFFF5D
:10D3E000FFFFFFFFFFFFFFFFFFFFFFFFFFFFFFFF4D
:10D3F000FFFFFFFFFFFFFFFFFFFFFFFFFFFFFFFF3D
:10D40000FFFFFFFFFFFFFFF73AC63ABE7BCE7DE787
:10D4100035A5FCD6FCE63DE77DEFBEEF7EEF7DE770
:10D420003DE73DDFFCDEFCDEFCDEFCD6FCDE7EEF15
:10D43000BEFFFFFFFFFFFFFFFFFFFFFFFFFFFFFF3D
:10D44000FFFFFFFFFFFFFFFFFFFFFFFFFFFFFFFFEC
:10D45000FFFFFFFFFFFFFFFFFFFFFFFFFFFFFFFFDC
:10D46000FFFFFFFFFFFFFFFFFFFFFFFFFFFFFFFFCC
:10D47000FFFFFFFFFFFFFFFFFFFFFFFFFFFFFFFFBC
:10D48000FFFFFFFFFFFFFFFFFFFFFFFFFFFFFFFFAC
:10D49000FFFFFFFFFFFFFFFFFFFFFFFFFFFFFFFF9C
:10D4A000FFFFFFFFFFFFFFFFFFFFFFFFFFFFFFFF8C
:10D4B000FFFFFFFFFFFFFFFFFFFFBEE7B61475147E
:10D4C000B614B514B6147514B614B514B614751490
:10D4D000B614B514B6147514B614B514B614751480
:10D4E000B614B514B6147514B614B514B614751470
:10D4F000B614B514B6147514B614B514B614751460
:10D50000B614B514B6147514B955FCB6B95D7B9E46
:10D51000FCAE774DB6147514BEDFFFFFFFFFFFFFB3
:10D52000FFFFFFFFFFFFFFFFFFFFFFFFFFFFFFFF0B
:10D53000FFFFFFFFFFFFFFFFFFFFFFFFFFFFFFFFFB
:10D54000FFFFFFFFFFFFFFFFFFFFFFFFFFFFFFFFEB
:10D55000FFFFFFFFFFFFFFFFFFFFFFFFFFFFFFFFDB
:10D56000FFFF38C6C7318639C7318631C7318639A2
:10D5700038C6BFFEFFFFFFFFFFFFFFFFFFFF79D6AB
:10D58000FFFFFFFFFFFFFFFFFFFFFFFFFFFFFFFFAB
:10D59000FFFFFFFFFFFFFFFFFFFFFFFFFFFFFFFF9B
:10D5A000FFFFFFFFFFFFFFFFFFFFFFFFFFFFFFFF8B
:10D5B000FFFFFFFFFFFFFFFFFFFFFFFFFFFFFFFF7B
:10D5C0003305F304F404F3043365FFFFFFFFFFFFAB
:10D5D000FFFFFFFFFFFFFFFFFFFFFFFFFFFFFFFF5B
:10D5E000FFFFFFFFFFFFFFFFFFFFFFFFFFFFFFFF4B
:10D5F000FFFFFFFFFFFFFFFFFFFFFFFFFFFFFFFF3B
:10D60000FFFFFFFFFFFFFFFFFFFFFFFFFFFFFFFF2A
:10D61000FFFFFFFFFFFFFFFFFFFFFFFFFFFFFFFF1A
:10D62000FFFFFFFFFFFFFFFFFFFFFFFFFFFFFFFF0A
:10D63000FFFFFFFFFFFFFFFFFFFFFFFFFFFFFFFFFA
:10D64000FFFFFFFFFFFFFFFFFFFFFFFFFFFFFFFFEA
:10D65000FFFFFFFFFFFFFFFFFFFFFFFFFFFFFFFFDA
:10D66000FFFFFFFFFFFFFFFFFFFFFFFFFFFFFFFFCA
:10D67000FFFFFFFFFFFFFFFFFFFFFFFFFFFFFFFFBA
:10D68000FFFFFFFFFFFF79C6F9ADD07BF9B57BCE79
:10D69000FCCEFBD63DDF3DE77EE77EEF7EE73DE754
:10D6A0007DDF3CDF3DDFFCDEFCD6FBD6FCCEBBCE17
:10D6B000BBC639BE7BC67ACEBBC6BBCEFCD63DE769
:10D6C000BEEFFFFFFFFFFFFFFFFFFFFFFFFFFFFFBB
:10D6D000FFFFFFFFFFFFFFFFFFFFFFFFFFFFFFFF5A
:10D6E000FFFFFFFFFFFFFFFFFFFFFFFFFFFFFFFF4A
:10D6F000FFFFFFFFFFFFFFFFFFFFFFFFFFFFFFFF3A
:10D70000FFFFFFFFFFFFFFFFFFFFFFFFFFFFFFFF29
:10D71000FFFFFFFFFFFFFFFFFFFFFFFFFFFFFFFF19
:10D72000FFFFFFFFFFFFFFFFFFFFFFFFFFFFFFFF09
:10D73000FFFFFFFFFFFFFFFFFFFFBEE7751CB614F3
:10D740007514B614751CB6147514B614751CB6147D
:10D750007514B614751CB6147514B614751CB6146D
:10D760007514B614751CB6147514B614751CB6145D
:10D770007514B614751CB6147514B614751CB6144D
:10D780007514B614751CB614BCAEB61CFCB6373D89
:10D79000B6247514751CB6147EDFFFFFFFFFFFFF74
:10D7A000FFFFFFFFFFFFFFFFFFFFFFFFFFFFFFFF89
:10D7B000FFFFFFFFFFFFFFFFFFFFFFFFFFFFFFFF79
:10D7C000FFFFFFFFFFFFFFFFFFFFFFFFFFFFFFFF69
:10D7D000FFFFFFFFFFFFFFFFFFFFFFFFFFFFFFFF59
:10D7E000FFFF4D6B8639C731863987314D6BBACE15
:10D7F000FFFFFFFFFFFFFFFFFFFFFFFFFFFFFFFF39
:10D80000FFFFFFFFFFFFFFFFFFFFFFFF38C6F39C97
:10D8100030843084F3A438C67FFEFFFFFFFFFFFF94
:10D82000FFFFFFFFFFFF38C679D6BACE79D6FFFFDC
:10D83000FFFFFFFFF3A4308438C6FFFFFFD7BA9E77
:10D84000F304F304F304F304793EFFCFF9D7FFCFD9
:10D85000FFFFFFFFFFFFFFFFFFD7BACE79A6BA6E2B
:10D86000796EBA9E7FFEFFFFFFFFFFFFFFD7FFCF5E
:10D87000FFD7FFCFFFD7FFCFFFFFFFFFFFFFFFFF68
:10D88000FFFFFFCFFFD7FFCFFFD7FFCFFFFFFFFF88
:10D8900079FEFFCFFFFFFFFFFFFFFFFFFFFFFFFF4F
:10D8A000FFFFFFFFFFFFFFFFFFFFFFFFFFFFFFFF88
:10D8B000FFFFFFFFFFFFFFFFFFFFFFFFFFFFFFFF78
:10D8C000FFFFFFFFFFFFFFFFFFFFFFFFFFFFFFFF68
:10D8D000FFFFFFFFFFFFFFFFFFFFFFFFFFFFFFFF58
:10D8E000FFFFFFFFFFFFFFFFFFFFFFFFFFFFFFFF48
:10D8F000FFFFFFFFFFFFFFFFFFFFFFFFFFFFFFFF38
:10D90000FFFFFFFFFFFFF394B7AD7DE771947284D3
:10D910007BCEFCD6FCE63DE779CE7EEF7DEF7DE762
:10D920003DE73DDFFCDEFCDEFCDEFCD6BBD6BBCE3D
:10D93000F8BD7ABE3AC63ABE3ABE39B6F9B5F9B5BF
:10D94000B8B5F9B5BCD6FFFFFFFFFFFFFFFFFFFF34
:10D95000FFFFFFFFFFFFFFFFFFFFFFFFFFFFFFFFD7
:10D96000FFFFFFFFFFFFFFFFFFFFFFFFFFFFFFFFC7
:10D97000FFFFFFFFFFFFFFFFFFFFFFFFFFFFFFFFB7
:10D98000FFFFFFFFFFFFFFFFFFFFFFFFFFFFFFFFA7
:10D99000FFFFFFFFFFFFFFFFFFFFFFFFFFFFFFFF97
:10D9A000FFFFFFFFFFFFFFFFFFFFFFFFFFFFFFFF87
:10D9B000FFFFFFFFFFFFFFFFFFFFBEE7B614751479
:10D9C000B6147514B614B514B6147514B6147514CB
:10D9D000B6147514B614B514B6147514B6147514BB
:10D9E000B6147514B614B514B6147514B6147514AB
:10D9F000B6147514B614B514B6147514B61475149B
:10DA0000B6147514B614B514FCAEF9753DC7F975A6
:10DA1000FA6DF634B614B514BFDFFFFFFFFFFFFF4A
:10DA2000FFFFFFFFFFFFFFFFFFFFFFFFFFFFFFFF06
:10DA3000FFFFFFFFFFFFFFFFFFFFFFFFFFFFFFFFF6
:10DA4000FFFFFFFFFFFFFFFFFFFFFFFFFFFFFFFFE6
:10DA5000FFFFFFFFFFFFFFFFFFFFFFFFFFFFFFFFD6
:10DA6000BACE8639C7318639C731863938C6FFFF05
:10DA7000FFFFFFFFFFFFFFFFFFFFFFFFFFFFFFFFB6
:10DA8000FFFFFFFFFFFFFFFF38C64D6BC731863931
:10DA9000C7318639C7318639C731F39CFFFFFFFF95
:10DAA000FFFFFFFFFFFF8639C7318639C7317FFE91
:10DAB00038C68639C731863930847FD63305F304BA
:10DAC000F404F3043405F304F404F3043305F30419
:10DAD000FFCFFFFFFFFFB99EF434F3043305F304D7
:10DAE000F404F3043405B96EFFFFFFFFBA9EF3049C
:10DAF000F404F3043405F304FFCFFFFFFFFFFFFF3F
:10DB0000BF9EF3043405F304F404F33CFFCFFFFF9E
:10DB100038C6F39CFFFFFFFFFFFFFFFFFFFFFFFF84
:10DB2000FFFFFFFFFFFFFFFFFFFFFFFFFFFFFFFF05
:10DB3000FFFFFFFFFFFFFFFFFFFFFFFFFFFFFFFFF5
:10DB4000FFFFFFFFFFFFFFFFFFFFFFFFFFFFFFFFE5
:10DB5000FFFFFFFFFFFFFFFFFFFFFFFFFFFFFFFFD5
:10DB6000FFFFFFFFFFFFFFFFFFFFFFFFFFFFFFFFC5
:10DB7000FFFFFFFFFFFFFFFFFFFFFFFFFFFFFFFFB5
:10DB8000FFFFFFFFFFFFBEF7B6B5FFFFFFFFFBDEA6
:10DB9000728C30847AC63DE735A576AD7EE73DE7E9
:10DBA0003DE73CE73DDFFCDEFCD6BBD6FCCEBBCE82
:10DBB000BBC67AC67BBE3ABE3ABEF9BD39B6F8B529
:10DBC000F9ADB8ADB8A5F8AD7EE7FFFFFFFFFFFFE9
:10DBD000FFFFFFFFFFFFFFFFFFFFFFFFFFFFFFFF55
:10DBE000FFFFFFFFFFFFFFFFFFFFFFFFFFFFFFFF45
:10DBF000FFFFFFFFFFFFFFFFFFFFFFFFFFFFFFFF35
:10DC0000FFFFFFFFFFFFFFFFFFFFFFFFFFFFFFFF24
:10DC1000FFFFFFFFFFFFFFFFFFFFFFFFFFFFFFFF14
:10DC2000FFFFFFFFFFFFFFFFFFFFFFFFFFFFFFFF04
:10DC3000FFFFFFFFFFFFFFFFFFFFBEE7751CB614EE
:10DC4000751CB5147514B614751CB514751CB61472
:10DC5000751CB5147514B614751CB514751CB61462
:10DC6000751CB5147514B614751CB514751CB61452
:10DC7000751CB5147514B614751CB514751CB61442
:10DC8000751CB5147514B614384DB85D785DB9556A
:10DC9000785DF62C7514B6147EE7FFFFFFFFFFFFDB
:10DCA000FFFFFFFFFFFFFFFFFFFFFFFFFFFFFFFF84
:10DCB000FFFFFFFFFFFFFFFFFFFFFFFFFFFFFFFF74
:10DCC000FFFFFFFFFFFFFFFFFFFFFFFFFFFFFFFF64
:10DCD000FFFFFFFFFFFFFFFFFFFFFFFFFFFFFFFF54
:10DCE0003084C6318639C73186393084FFFFFFFF63
:10DCF000FFFFFFFFFFFFFFFFFFFFFFFFFFFFFFFF34
:10DD0000FFFFFFFFFFFFF39C8639C6318639C7311D
:10DD10008639C6318639C7318639C6318D39BACE92
:10DD2000FFFFFFFF7AD6C7318639C6318639F39CAB
:10DD30008639C6318639C7313084BAD6F304F30444
:10DD4000F304F304F304F304F304F304F304F3041B
:10DD500079D6FFFFFA6CF304F304F304F304F3043D
:10DD6000F304F304F304F304F33CFFD7FFFFF36C75
:10DD7000F304F304F304F304796EFFFFFFFFFFFFE6
:10DD8000F33CF304F304F304F304BAD6FFFFFFFFFC
:10DD9000FFFFFFFFFFFFFFFFFFFFFFFFFFFFFFFF93
:10DDA000FFFFFFFFFFFFFFFFFFFFFFFFFFFFFFFF83
:10DDB000FFFFFFFFFFFFFFFFFFFFFFFFFFFFFFFF73
:10DDC000FFFFFFFFFFFFFFFFFFFFFFFFFFFFFFFF63
:10DDD000FFFFFFFFFFFFFFFFFFFFFFFFFFFFFFFF53
:10DDE000FFFFFFFFFFFFFFFFFFFFFFFFFFFFFFFF43
:10DDF000FFFFFFFFFFFFFFFFFFFFFFFFFFFFFFFF33
:10DE0000FFFFFFFFFFFFFFFFFFFFFFFFFFFFFFFF22
:10DE1000FFFFFFFFB294B7B5FFFF78C6D083B7B559
:10DE20003DE73DDFFCDEFCDEFCDEFCD67BCE3DDFED
:10DE3000B7B5BAC63AC63ABE3ABE39B6F9BDF9B5B3
:10DE4000B8B5F8ADB8ADB8A5B8ADFFF7FFFFFFFFA7
:10DE5000FFFFFFFFFFFFFFFFFFFFFFFFFFFFFFFFD2
:10DE6000FFFFFFFFFFFFFFFFFFFFFFFFFFFFFFFFC2
:10DE7000FFFFFFFFFFFFFFFFFFFFFFFFFFFFFFFFB2
:10DE8000FFFFFFFFFFFFFFFFFFFFFFFFFFFFFFFFA2
:10DE9000FFFFFFFFFFFFFFFFFFFFFFFFFFFFFFFF92
:10DEA000FFFFFFFFFFFFFFFFFFFFFFFFFFFFFFFF82
:10DEB000FFFFFFFFFFFFFFFFFFFFBEE7B614751474
:10DEC000B614B514B6147514B614B514B614751486
:10DED000B614B514B6147514B614B514B614751476
:10DEE000B614B514B6147514B614B514B614751466
:10DEF000B614B514B6147514B614B514B614751456
:10DF0000B614B514B6147514BB96B5143A7E751CC8
:10DF1000784DB865B6147514BEDFFFFFFFFFFFFF35
:10DF2000FFFFFFFFFFFFFFFFFFFFFFFFFFFFFFFF01
:10DF3000FFFFFFFFFFFFFFFFFFFFFFFFFFFFFFFFF1
:10DF4000FFFFFFFFFFFFFFFFFFFFFFFFFFFFFFFFE1
:10DF5000FFFFFFFFFFFFFFFFFFFFFFFFFFFFFFFFD1
:10DF60004D638631C7318639C731F39CFFFFFFFF10
:10DF7000FFFFFFFFFFFFFFFFFFFFFFFFFFFFFFFFB1
:10DF8000FFFFFFFF349D8639C7318631C73186399F
:10DF9000C7310630C7318639C7318631C7314D6B3D
:10DFA000FFFFFFFFFFFF8639C7318631C7314D6B59
:10DFB000C7318631C73186393084BFD6F404F304C3
:10DFC0003305F3043405F3043305F304F404F304D4
:10DFD000FFCFB99E3405F3043305F304F434796EAE
:10DFE0003335F3043405F3043305B99EFFFFFFD73F
:10DFF0003335F3043405F3043305BFD6FFFF799EB0
:10E000003305F3043405F304BA9EFFFFFFFFFFFF5F
:10E01000FFFFFFFFFFFFFFFFFFFFFFFFFFFFFFFF10
:10E02000FFFFFFFFFFFFFFFFFFFFFFFFFFFFFFFF00
:10E03000FFFFFFFFFFFFFFFFFFFFFFFFFFFFFFFFF0
:10E04000FFFFFFFFFFFFFFFFFFFFFFFFFFFFFFFFE0
:10E05000FFFFFFFFFFFFFFFFFFFFFFFFFFFFFFFFD0
:10E06000FFFFFFFFFFFFFFFFFFFFFFFFFFFFFFFFC0
:10E07000FFFFFFFFFFFFFFFFFFFFFFFFFFFFFFFFB0
:10E08000FFFFFFFFFFFFFFFFFFFFFFFFFFFFFFFFA0
:10E09000FFFFFFFFFFFFFFFFFFFFFFFFFFFF78CE48
:10E0A000B28C718CB28CB28CF39475A538BEFFFF24
:10E0B00034957AC67BC63ABE7ABE39B639B6F9B55A
:10E0C000F9ADB8ADB8A5F494B89D7AC6FFFFFFFFCF
:10E0D000FFFFFFFFFFFFFFFFFFFFFFFFFFFFFFFF50
:10E0E000FFFFFFFFFFFFFFFFFFFFFFFFFFFFFFFF40
:10E0F000FFFFFFFFFFFFFFFFFFFFFFFFFFFFFFFF30
:10E10000FFFFFFFFFFFFFFFFFFFFFFFFFFFFFFFF1F
:10E11000FFFFFFFFFFFFFFFFFFFFFFFFFFFFFFFF0F
:10E12000FFFFFFFFFFFFFFFFFFFFFFFFFFFFFFFFFF
:10E13000FFFFFFFFFFFFFFFFFFFFBEE7751CB614E9
:10E140007514B614751CB6147514B614751CB61473
:10E150007514B614751CB6147514B614751CB61463
:10E160007514B614751CB6147514B614751CB61453
:10E170007514B614751CB6147514B614751CB61443
:10E180007514B614751CB6147B9E75147B9EB6145C
:10E19000384DB965751CB6147EDFFFFFFFFFFFFF2A
:10E1A000FFFFFFFFFFFFFFFFFFFFFFFFFFFFFFFF7F
:10E1B000FFFFFFFFFFFFFFFFFFFFFFFFFFFFFFFF6F
:10E1C000FFFFFFFFFFFFFFFFFFFFFFFFFFFFFFFF5F
:10E1D000FFFFFFFFFFFFFFFFFFFFFFFFFFFFFFFF4F
:10E1E000863987318639C7318639BACEFFFFFFFFBE
:10E1F000FFFFFFFFFFFFFFFFFFFFFFFFFFFFFFFF2F
:10E20000FFFFBAFE8639C731863987318639F39CDC
:10E21000FFFFFFFF38C6C731863987318639C731DE
:10E22000F39CFFFFFFFFC731863987318639C7313D
:10E23000863987318639C7693084FFFF79A6BA9E4F
:10E24000F304F304F304F304F33CBA9E7FA6BA9EEE
:10E250007AD6F304F304F304F304BA6EFFFFFFFF6E
:10E26000FFFFBA6EF304F304F304F304FFFFFFFFB0
:10E270007A9EF304F304F304F304F334FFD7F33486
:10E28000F304F304F304F334FFFFFFFFFFFFFFFF8A
:10E29000FFFFFFFFFFFFFFFFFFFFFFFFFFFFFFFF8E
:10E2A000FFFFFFFFFFFFFFFFFFFFFFFFFFFFFFFF7E
:10E2B000FFFFFFFFFFFFFFFFFFFFFFFFFFFFFFFF6E
:10E2C000FFFFFFFFFFFFFFFFFFFFFFFFFFFFFFFF5E
:10E2D000FFFFFFFFFFFFFFFFFFFFFFFFFFFFFFFF4E
:10E2E000FFFFFFFFFFFFFFFFFFFFFFFFFFFFFFFF3E
:10E2F000FFFFFFFFFFFFFFFFFFFFFFFFFFFFFFFF2E
:10E30000FFFFFFFFFFFFFFFFFFFFFFFFFFFFFFFF1D
:10E31000FFFFFFFFFFFFFFFFFFFFFFFFFFFFFFFF0D
:10E32000FFFFFFFFFFFFFFFFFFFFFFFFFFFFFFFFFD
:10E33000718C39BE3AC63ABE3ABE39B6F9BDF9B5A6
:10E34000B8B5B8AD78AD359D9073779D7DEFFFFF83
:10E35000FFFFFFFFFFFFFFFFFFFFFFFFFFFFFFFFCD
:10E36000FFFFFFFFBEF7FFFFFFFFFFFFFFFFFFFF06
:10E37000FFFFFFFFFFFFFFFFFFFFFFFFFFFFFFFFAD
:10E38000FFFFFFFFFFFFFFFFFFFFFFFFFFFFFFFF9D
:10E39000FFFFFFFFFFFFFFFFFFFFFFFFFFFFFFFF8D
:10E3A000FFFFFFFFFFFFFFFFFFFFFFFFFFFFFFFF7D
:10E3B000FFFFFFFFFFFFFFFFFFFFBEE7B61475146F
:10E3C000B6147514B6147514B6147514B614751401
:10E3D000B6147514B6147514B6147514B6147514F1
:10E3E000B6147514B6147514B6147514B6147514E1
:10E3F000B6147514B6147514B6147514B6147514D1
:10E40000B6147514B61475147B96FCB63DB7FCB6FD
:10E41000FDB6774DB6147514BFDFFFFFFFFFFFFF9A
:10E42000FFFFFFFFFFFFFFFFFFFFFFFFFFFFFFFFFC
:10E43000FFFFFFFFFFFFFFFFFFFFFFFFFFFFFFFFEC
:10E44000FFFFFFFFFFFFFFFFFFFFFFFFFFFFFFFFDC
:10E45000FFFFFFFFFFFFFFFFFFFFFFFFFFFFFFFFCC
:10E46000C7318639C7318639C73179D6FFFFFFFFFB
:10E47000FFFFFFFFFFFFFFFFFFFFFFFFFFFFFFFFAC
:10E48000FFFF3084C7318639C73186393084FFFFBA
:10E49000FFFFFFFFFFFFF39CC7318639C731863985
:10E4A0004D6BFFFFFFFF8639C7318639C73186398B
:10E4B000C731F39CBAFEFFD7FFFFFFFFFFFFFFD777
:10E4C000F404F3043305F304BA6EFFFFFFFFFFFF0C
:10E4D000BA6EF3043305F304F434FFFFFFFFFFFFCC
:10E4E000FFFFFFFF3305F304F404F304BA9EFFFFBC
:10E4F000FFFF739E3305F304F404F304BA66F304D8
:10E50000F404F3043305FFD7FFFFFFFFFFFFFFFF16
:10E51000FFFFFFFFFFFFFFFFFFFFFFFFFFFFFFFF0B
:10E52000FFFFFFFFFFFFFFFFFFFFFFFFFFFFFFFFFB
:10E53000FFFFFFFFFFFFFFFFFFFFFFFFFFFF7CE786
:10E54000FBD679CE39BE79C63DE7FFFFFFFFFFFF5F
:10E55000FFFFFFFFFFFFFFFFFFF7FFFFFFF7BEF724
:10E560007DE73CE7FBD63CE7FFFFFFFFFFFFFFFF38
:10E57000FFFFFFFFFFFFFFFFFFFFFFFFFFFFFFFFAB
:10E58000FFFFBEF77DE73CE7BEF7FFFFFFFFFFFFA2
:10E59000FFFFFFFFFFFFFFFFFFFFFFFFFFFFFFFF8B
:10E5A000FFFFFFFFFFF7FEFFFFFFFFFFFFFFFFFF84
:10E5B000FFFFCF7BF9B53ABE3ABE39BE39B6F8B5E2
:10E5C000F9ADB8ADB8A57AC638C68F6BB8A57EEFE1
:10E5D000FFFFFFFFFFFFFFFFFFFFFFFFFFFF3CDF2E
:10E5E0003AB6B7A5F8A53CDFFFFFFFFFFFFFFFFF2F
:10E5F000FFFFFFFFFFFFFFFFFFFFFFFFFFFFFFFF2B
:10E60000FFFFFFFFFFFFFFFFFFFFFFFFFFFFFFFF1A
:10E61000FFFFFFFFFFFFFFFFFFFFFFFFFFFFFFFF0A
:10E62000FFFFFFFFFFFFFFFFFFFFFFFFFFFFFFFFFA
:10E63000FFFFFFFFFFFFFFFFFFFFBEE77514B614EC
:10E64000751CB514751CB614751CB5147514B61468
:10E65000751CB514751CB614751CB5147514B61458
:10E66000751CB514751CB614751CB5147514B61448
:10E67000751CB514751CB614751CB5147514B61438
:10E68000751CB514751CB6147A963A863745B614BF
:10E69000751CB514751CB6147EE7FFFFFFFFFFFF66
:10E6A000FFFFFFFFFFFFFFFFFFFFFFFFFFFFFFFF7A
:10E6B000FFFFFFFFFFFFFFFFFFFFFFFFFFFFFFFF6A
:10E6C000FFFFFFFFFFFFFFFFFFFFFFFFFFFFFFFF5A
:10E6D000FFFFFFFFFFFFFFFFFFFFFFFFFFFFFFFF4A
:10E6E0008639C6318639C7318639BAD6FFFFFFFF72
:10E6F000FFFFFFFFFFFFFFFFFFFFFFFFFFFFFFFF2A
:10E70000FFFF4D6B8639C7318639C6317AD6FFFF98
:10E71000FFFFFFFFFFFFBACE466BC6318639C73118
:10E720008639BAD6FFFFC7318639C6318639C73137
:10E7300038CEFFFFFFFFFFFFFFFFFFFFFFFFFFCF11
:10E74000F30CF304F304F304796EFFFFFFFFFFFF04
:10E75000F33CF304F304F304F36CFFD77A9EFFCF8A
:10E7600079D6BA9EF33CF304F304F3047A6EFFFF08
:10E77000FFFFFFD7F33CF304F304F304F304F304C3
:10E78000F30CF3047AA6FFFFFFFFFFFFFFFFFFFF7D
:10E79000FFFFFFFFFFFFFFFFFFFFFFFFFFFFFFFF89
:10E7A000FFFFFFFFFFFFFFFFFFFFFFFFFFFFFFFF79
:10E7B000FFFFFFFFFFFFFFFFFFFFBEF7FCE63DDFB0
:10E7C0003DE73DE73DE73DDFBAD639BEFCDEFFFF62
:10E7D000FFFFFFFFFFFFBACE3CE73DDF3CE73DDF39
:10E7E000FCE63CDFFCDE7AC6F7BD39BE7EF7FFFFF4
:10E7F000FFFFFFFFFFFFFFFFFFFFFFFFFFFFBEEF7A
:10E80000FCDEFBD6BBD6BAC6F8BDF7B539C6FFF7F6
:10E81000FFFFFFFFFFFFFFFFFFFFFFFFFFFFBEEF59
:10E82000FCDE7AC639C6F8B5B7B5F7B539C63CDFF0
:10E83000FFFFFFFF31843ABE39BE39B6F9B5F9B5ED
:10E84000B8B5B8ADB8AD7ABEFFFFBAD60E63F594D1
:10E85000BBD6FFFFFFFFFFFFBEF7FBD676A5B38C4D
:10E8600035AD75ADF4A4FFFFFFFFFFFFFFFFFFFF16
:10E87000FFFFFFFFFFFFFFFFFFFFFFFFFFFFFFFFA8
:10E88000FFFFFFFFFFFFFFFFFFFFFFFFFFFFFFFF98
:10E89000FFFFFFFFFFFFFFFFFFFFFFFFFFFFFFFF88
:10E8A000FFFFFFFFFFFFFFFFFFFFFFFFFFFFFFFF78
:10E8B000FFFFFFFFFFFFFFFFFFFFBEE7B61475146A
:10E8C000B614B514B6147514B614B514B61475147C
:10E8D000B614B514B6147514B614B514B61475146C
:10E8E000B614B514B6147514B614B514B61475145C
:10E8F000B614B514B6147514B614B514B61475144C
:10E90000B614B514B6147514B61437453A76BB9ED2
:10E91000BC9E373DB6147514BEDFFFFFFFFFFFFF3F
:10E92000FFFFFFFFFFFFFFFFFFFFFFFFFFFFFFFFF7
:10E93000FFFFFFFFFFFFFFFFFFFFFFFFFFFFFFFFE7
:10E94000FFFFFFFFFFFFFFFFFFFFFFFFFFFFFFFFD7
:10E95000FFFFFFFFFFFFFFFFFFFFFFFFFFFFFFFFC7
:10E96000C7318631C7318639C73138C6FFFFFFFF4F
:10E97000FFFFFFFFFFFFFFFFFFFFFFFFFFFFFFFFA7
:10E98000FFFF8631C7318639C7318631BACEFFFFE6
:10E99000FFFFFFFFFFFFFFFFCD318631C731863913
:10E9A000C731B9D6FFFF8639C7318631C7318639BD
:10E9B000FFFFFFFFFFFFFFFFFFFFFFFFFFFF79FEEE
:10E9C0003305F304F404F3043365FFFFFFFFFFFF97
:10E9D0003305F304F404F3043305F3043405F304BA
:10E9E0003305F304F404F3043305F3043A35FFFF6D
:10E9F000FFFFFFFFBFCEF3043305F3043405F30438
:10EA00003305B36EFFFFFFFFFFFFFFFFFFFFFFFFB9
:10EA1000FFFFFFFFFFFFFFFFFFFFFFFFFFFFFFFF06
:10EA2000FFFFFFFFFFFFFFFFFFFFFFFFFFFFFFFFF6
:10EA3000FFFFFFFFFFFFFFFFBEEF7DEFBEEF3CDFFD
:10EA400038B6F394F49439C6BEE77DEFFCD6FBDE0E
:10EA5000FFFFFFFFFFFF79CEBEE77DEFBEEF7DEF4B
:10EA60007DDFFCDE3CDF7DEFBEE77DEF7AC63CE775
:10EA7000FFFFFFFFFFFFFFFFFFFFFFFFBEEF7DEF89
:10EA80007EE7FBD6F8B5B6ADFBD67DEF7EE738BEA8
:10EA90007DE7FFFFFFFFFFFFFFFFFFFFBEEF3DE74B
:10EAA0007DE73CDF7AC638BEFBCE3DE77DE7BBD6CF
:10EAB00079BEFFFF79C6F49C7ABE39B63AB6F9B58D
:10EAC000F9ADB8ADB8A53AC6FFFFFFFFFFF7F39C5D
:10EAD0008E63317C779DF494727C349D7ACEFFFFF7
:10EAE000FFFFFFFFFFFFFFFFFFFFFFFFFFFFFFFF36
:10EAF000FFFFFFFFFFFFFFFFFFFFFFFFFFFFFFFF26
:10EB0000FFFFFFFFFFFFFFFFFFFFFFFFFFFFFFFF15
:10EB1000FFFFFFFFFFFFFFFFFFFFFFFFFFFFFFFF05
:10EB2000FFFFFFFFFFFFFFFFFFFFFFFFFFFFFFFFF5
:10EB3000FFFFFFFFFFFFFFFFFFFFBEE7751CB614DF
:10EB40007514B614751CB6147514B614751CB61469
:10EB50007514B614751CB6147514B614751CB61459
:10EB60007514B614751CB6147514B614751CB61449
:10EB70007514B614751CB6147514B614751CB61439
:10EB80007514B614751CB6143745FA757B9EBB9E7A
:10EB90007B96F734751CB6147EDFFFFFFFFFFFFF87
:10EBA000FFFFFFFFFFFFFFFFFFFFFFFFFFFFFFFF75
:10EBB000FFFFFFFFFFFFFFFFFFFFFFFFFFFFFFFF65
:10EBC000FFFFFFFFFFFFFFFFFFFFFFFFFFFFFFFF55
:10EBD000FFFFFFFFFFFFFFFFFFFFFFFFFFFFFFFF45
:10EBE0000D6B87318639C73186393084FFFFFFFFCF
:10EBF000FFFFFFFFFFFFFFFFFFFFFFFFFFFFFFFF25
:10EC0000FFFF87318639C73186398731FFFFFFFF24
:10EC1000FFFFFFFFFFFFFFFF066B87318639C7311C
:10EC2000863938C6FFFFC7318639873186394D6B43
:10EC3000FFFFFFFFFFFFFFFFFFFFFFFFFFFFFFCF14
:10EC4000F304F304F304F304796EFFFFFFFFFACF3C
:10EC5000F304F304F304F304F304F304F304F304FC
:10EC6000F304F304F304F304F304F304F36CFFFF7D
:10EC7000FFFFFFFFFFFFF334F304F304F304F30497
:10EC8000F304BA9EFFFFFFFFFFFFFFFFFFFFFFFF41
:10EC9000FFFFFFFFFFFFFFFFFFFFFFFFFFFFFFFF84
:10ECA000FFFFFFFFFFFFFFFFFFFFFFFFFFFFFFFF74
:10ECB000FFFFFFFFFFFF7EEF7DEF7EE7F8BD75A54D
:10ECC000F7BDBACE38CEB2940D6BBBCE7DEFBBCEC6
:10ECD000BEF7FFFFFFFF79CE7DEF7EEFB7BD34A516
:10ECE000F4A4F39430844D6B31847DE77EEF7AC6D3
:10ECF000BEFFFFFFFFFFFFFFFFFF7EEF7EEF7EE720
:10ED0000F8BD76ADF7BDB6B58F7BB3947EEF7EEFE1
:10ED1000F8BDFFFFFFFFFFFFFFFF7EEF7EEF7EEFFF
:10ED2000F8BDF49CF4A4F49CCF7B8E6BFCDE7EEFEC
:10ED30003DE7BBCEFFFFF394F59C39B6F9BDF9B5BD
:10ED4000B8B5B8ADB8AD7ABEFFFFFFFFFFFFFFFF5C
:10ED5000FFFFFBD638C63CDFFFFFFFFFFFFFFFFFD3
:10ED6000FFFFFFFFFFFFFFFFFFFFFFFFFFFFFFFFB3
:10ED7000FFFFFFFFFFFFFFFFFFFFFFFFFFFFFFFFA3
:10ED8000FFFFFFFFFFFFFFFFFFFFFFFFFFFFFFFF93
:10ED9000FFFFFFFFFFFFFFFFFFFFFFFFFFFFFFFF83
:10EDA000FFFFFFFFFFFFFFFFFFFFFFFFFFFFFFFF73
:10EDB000FFFFFFFFFFFFFFFFFFFFBEE7B614751465
:10EDC000B6147514B614B514B6147514B6147514B7
:10EDD000B6147514B614B514B6147514B6147514A7
:10EDE000B6147514B614B514B6147514B614751497
:10EDF000B6147514B614B514B6147514B614751487
:10EE0000B6147514B614B514FCA6FCBEB95DB62CC8
:10EE1000B6147514B614B514BFDFFFFFFFFFFFFF74
:10EE2000FFFFFFFFFFFFFFFFFFFFFFFFFFFFFFFFF2
:10EE3000FFFFFFFFFFFFFFFFFFFFFFFFFFFFFFFFE2
:10EE4000FFFFFFFFFFFFFFFFFFFFFFFFFFFFFFFFD2
:10EE5000FFFFFFFFFFFFFFFFFFFFFFFFFFFFFFFFC2
:10EE6000F49C8639C7318639C7318639BACEFFFF5F
:10EE7000FFFFFFFFFFFFFFFFFFFFFFFFFFFFFFFFA2
:10EE8000BACE8639C7318639C7318639FFFFFFFFD1
:10EE9000FFFFFFFFFFFFFFFFCD698639C7318639CE
:10EEA000C73179D6FFFF8639C7318639C7318639F0
:10EEB000FFFFFFFFFFFFFFFFFFFFFFFFFFFFFFD78A
:10EEC000F404F3043405F304BA6EFFFFFFFF7FD6AA
:10EED000F404F3043405F304F404F3043335F304C5
:10EEE000F43430043004F33CF4043004BA66FFFF19
:10EEF000FFFFFFFFBA9EF304F404F3043305F304A9
:10EF0000F404F304BFCEFFFFFFFFFFFFFFFFFFFF8F
:10EF1000FFFFFFFFFFFFFFFFFFFFFFFFFFFFFFFF01
:10EF2000FFFFFFFFFFFFFFFFFFFFFFFFFFFFFFFFF1
:10EF3000FFFFFFFFBEEF3DE77EE73CE7BEF7FFFFC9
:10EF4000FFFFFFFFFFFFFFFFFFF7CF7B7DDF3DE709
:10EF5000FCD6FFFFFFFF79CE7EE77DE7FFFFFFFFD7
:10EF6000FFFFFFFFFFFFFFFFBAD6D07B7DE73DE746
:10EF7000BBCEFFFFFFFFFFFFBEEF3DE77DE77DEF6D
:10EF8000FFFFFFFFFFFFFFFFFFFF34A53CD77DE73B
:10EF9000BBCE3DE7FFFFFFFFBEEF7DEF7EE73DE726
:10EFA000BEF7FFFFFFFFFFFFFFFF7DF7307C7DE730
:10EFB0007EE77AC6FFFFFFFF75A58F7377A5F8B5CB
:10EFC000F9ADB8ADB8A5F8B5FFFFFFFFFFFFFFFF34
:10EFD000FFFFFFFFFFFFFFFFFFFFFFFFFFFFFFFF41
:10EFE000FFFFFFFFFFFFFFFFFFFFFFFFFFFFFFFF31
:10EFF000FFFFFFFFFFFFFFFFFFFFFFFFFFFFFFFF21
:10F00000FFFFFFFFFFFFFFFFFFFFFFFFFFFFFFFF10
:10F01000FFFFFFFFFFFFFFFFFFFFFFFFFFFFFFFF00
:10F02000FFFFFFFFFFFFFFFFFFFFFFFFFFFFFFFFF0
:10F03000FFFFFFFFFFFFFFFFFFFFBEE7751CB614DA
:10F04000751CB5147514B614751CB514751CB6145E
:10F05000751CB5147514B614751CB514751CB6144E
:10F06000751CB5147514B614751CB514751CB6143E
:10F07000751CB5147514B614751CB514751CB6142E
:10F08000751CB5147514B614751CB61C384D7B8EE2
:10F090003DC7784D7514B6147EE7FFFFFFFFFFFFF5
:10F0A000FFFFFFFFFFFFFFFFFFFFFFFFFFFFFFFF70
:10F0B000FFFFFFFFFFFFFFFFFFFFFFFFFFFFFFFF60
:10F0C000FFFFFFFFFFFFFFFFFFFFFFFFFFFFFFFF50
:10F0D000FFFFFFFFFFFFFFFFFFFFFFFFFFFFFFFF40
:10F0E00079D6C6318639C7318639C6310D6BFFFFF7
:10F0F000FFFFFFFFFFFFFFFFFFFFFFFFFFFFFFFF20
:10F10000FFFF4D6B8639C7318639C63138C6FFFFE0
:10F11000FFFFFFFFFFFFFFFF8639C6318639C7318A
:10F120008639BAD6FFFFC7318639C63186394D6B6D
:10F13000FFFFFFFFFFFFFFFFFFFFFFFFFFFFBACE55
:10F14000F33CF304F304F304796EFFFFFFFFFFFFCA
:10F15000F304F304F304F304F96CFAD77FD6FAFF4F
:10F16000FFD7FFD7FFFFBFCEF9FFFFD7FFFFFFFF9E
:10F17000FFFFFFD7F33CF304F304F304F304F304B9
:10F18000F304F304733EFFFFFFFFFFFFFFFFFFFFEA
:10F19000FFFFFFFFFFFFFFFFFFFFFFFFFFFFFFFF7F
:10F1A000FFFFFFFFFFFFFFFFFFFFFFFFFFFFFFFF6F
:10F1B000FFFFFFFF3DE73DDF3DE7FFFFFFFFFFFFF5
:10F1C000FFFFFFFFFFFFFFFFFFFFFBDE35A5B7AD32
:10F1D000F7B5FFFFFFFF79C63DE77DE7FFFFFFFFC4
:10F1E000FFFFFFFFFFFFFFFFFFFF38C6B8BD3DDF9A
:10F1F0007ACEFFFFFFFFFFFF75ADF394B294FCDE04
:10F20000FFFFFFFFFFFFFFFFFFFF3CE7FCDE3DDFEF
:10F210007ACE7DE7FFFFFFFFF7BDFBD63DE7BEF7E8
:10F22000FFFFFFFFFFFFFFFFFFFFFFFFF8C57DE7C9
:10F230003DE7BAC6BFFFFFFFFFFFFEF735AD8F6B9F
:10F24000F59CF8ADB8ADB8A5F9BD39B63ABEFFFF2B
:10F25000FFFFFFFFFFFFFFFFFFFFFFFFFFFFFFFFBE
:10F26000FFFFFFFFFFFFFFFFFFFFFFFFFFFFFFFFAE
:10F27000FFFFFFFFFFFFFFFFFFFFFFFFFFFFFFFF9E
:10F28000FFFFFFFFFFFFFFFFFFFFFFFFFFFFFFFF8E
:10F29000FFFFFFFFFFFFFFFFFFFFFFFFFFFFFFFF7E
:10F2A000FFFFFFFFFFFFFFFFFFFFFFFFFFFFFFFF6E
:10F2B000FFFFFFFFFFFFFFFFFFFFBEE7B614751460
:10F2C000B614B514B6147514B614B514B614751472
:10F2D000B614B514B6147514B614B514B614751462
:10F2E000B614B514B6147514B614B514B614751452
:10F2F000B614B514B6147514B614B514B614751442
:10F30000B614B514B6147514B95DBB9EFCAEBB9EA5
:10F31000F965B624B6147514BEDFFFFFFFFFFFFFCB
:10F32000FFFFFFFFFFFFFFFFFFFFFFFFFFFFFFFFED
:10F33000FFFFFFFFFFFFFFFFFFFFFFFFFFFFFFFFDD
:10F34000FFFFFFFFFFFFFFFFFFFFFFFFFFFFFFFFCD
:10F35000FFFFFFFFFFFFFFFFFFFFFFFFFFFFFFFFBD
:10F36000FFFF3084C7318639C7318631C73186699E
:10F37000BACEFFFFFFFFFFFFFFFFFFFFFFFFFFFF13
:10F38000FFFFF39CC7318639C73186314D6BFFFFD4
:10F39000FFFFFFFFFFFFF39CC7318631C73186397E
:10F3A0004D63FFFFFFFF8639C7318631C7314D6B93
:10F3B000BACEFFFFFFFFFFFFFFFFFFFFFFFFFFD7FB
:10F3C0003305F3043405F3043335FFFFFFFFFFFF7C
:10F3D000BA66F3043405F3043335FFD7FFFFFFFFAC
:10F3E000FFFFFFFFFFFFFFFFFFFFFFFFFFFFFFFF2D
:10F3F000FFFFF3343405F3043305F334FA6CF304FC
:10F400003305F3043405799EFFFFFFFFFFFFFFFF85
:10F41000FFFFFFFFFFFFFFFFFFFFFFFFFFFFFFFFFC
:10F42000FFFFFFFFFFFFFFFFFFFFFFFFFFFFFFFFEC
:10F43000FFFF7DEF3DD73DDFBEEFFFFFFFFFFFFF8B
:10F44000FFFFFFFFFFFFFFFFFFFFFFFFB6AD79CE1E
:10F45000FFFFFFFFFFFF79C63DD73DDFFFFFFFFF47
:10F46000FFFFFFFFFFFFFFFFFFFFFFFF359D3DDFBA
:10F47000FCCEBEEFFFFFFFFFFFFFFFFFFFFFFFFF21
:10F48000FFFFFFFFFFFFBEFFFBD6BBCE3DDF3CDF34
:10F49000F8ADFFFFFFFFFFFFBACEB6B575A53CE79D
:10F4A000FFFFFFFFFFFFFFFFFFFFFFFFFBCE3DDF83
:10F4B0007DDF79BEFFFFFFFFFFFFFFFFFFFFFFFFC5
:10F4C00075A58E6BF58C77A5B89D779D779DBBCE86
:10F4D000FFFFFFFFFFFFFFFFFFFFFFFFFFFFFFFF3C
:10F4E000FFFFFFFFFFFFFFFFFFFFFFFFFFFFFFFF2C
:10F4F000FFFFFFFFFFFFFFFFFFFFFFFFFFFFFFFF1C
:10F50000FFFFFFFFFFFFFFFFFFFFFFFFFFFFFFFF0B
:10F51000FFFFFFFFFFFFFFFFFFFFFFFFFFFFFFFFFB
:10F52000FFFFFFFFFFFFFFFFFFFFFFFFFFFFFFFFEB
:10F53000FFFFFFFFFFFFFFFFFFFFBEE7751CB614D5
:10F540007514B614751CB6147514B614751CB6145F
:10F550007514B614751CB6147514B614751CB6144F
:10F560007514B614751CB6147514B614751CB6143F
:10F570007514B614751CB6147514B614751CB6142F
:10F580007514B614751CB614784D373DF634F72C47
:10F59000761CB614751CB6147EDFFFFFFFFFFFFF5D
:10F5A000FFFFFFFFFFFFFFFFFFFFFFFFFFFFFFFF6B
:10F5B000FFFFFFFFFFFFFFFFFFFFFFFFFFFFFFFF5B
:10F5C000FFFFFFFFFFFFFFFFFFFFFFFFFFFFFFFF4B
:10F5D000FFFFFFFFFFFFFFFFFFFFFFFFFFFFFFFF3B
:10F5E000FFFFBACE0D6BC731863987318639C731F7
:10F5F0008639476B136BF39CF39C30844D6BC7319A
:10F600007AD6BACE8639C731863987318639F39CA6
:10F61000FFFFFFFF38C6C731863987318639C731CA
:10F62000F39CFFFF79D6C7318639873186394D6B18
:10F63000FFFFFFFFFFFFFFFFFFFFFFFFFFFFFFFFDA
:10F64000F304F304F304F304F304FA6C79A6BA9E0A
:10F650007A9EF304F304F304F304F30479A6FFCFD2
:10F660007FFEFFFF79D6FFD7796EBFCEFFFFFFFF8A
:10F670007A9EF304F304F304F304BA9EFFD7300434
:10F68000F304F304F304F334FFD7FFFFFFFFFFFF9E
:10F69000FFFFFFFFFFFFFFFFFFFFFFFFFFFFFFFF7A
:10F6A000FFFFFFFFFFFFFFFFFFFFFFFFFFFFFFFF6A
:10F6B000FFFFBACEB8ADF9ADBEF7FFFFFFFFFFFF0A
:10F6C000FFFFFFFFFFFFFFFFFFFFFFFFFFFFFFFF4A
:10F6D000FFFFFFFFFFFF38BE3ABE7BC6FFFFFFFF05
:10F6E000FFFFFFFFFFFFFFFFFFFFFFFFB6B57BC67A
:10F6F0007AC63DE7FFFFFFFFFFFFFFFFFFFFFFFFB2
:10F70000FFFF79C6B8B5F8AD7BCEBBC638BEF49462
:10F710007DEFFFFFFFFFFFFFFFFFFFFFFFFFFFFF8B
:10F72000FFFFFFFFFFFFFFFFFFFFFBD6FCD63DD72C
:10F730007BCEBBD6FFFFFFFFFFFFFFFFFFFFFFFFFB
:10F74000FFFFFFFF75B5CF739073779D379DB8A509
:10F75000FFFFFFFFFFFFFFFFFFFFFFFFFFFFFFFFB9
:10F76000FFFFFFFFFFFFFFFFFFFFFFFFFFFFFFFFA9
:10F77000FFFFFFFFFFFFFFFFFFFFFFFFFFFFFFFF99
:10F78000FFFFFFFFFFFFFFFFFFFFFFFFFFFFFFFF89
:10F79000FFFFFFFFFFFFFFFFFFFFFFFFFFFFFFFF79
:10F7A000FFFFFFFFFFFFFFFFFFFFFFFFFFFFFFFF69
:10F7B000FFFFFFFFFFFFFFFFFFFFBEE7B61475145B
:10F7C000B6147514B6147514B6147514B6147514ED
:10F7D000B6147514B6147514B6147514B6147514DD
:10F7E000B6147514B6147514B6147514B6147514CD
:10F7F000B6147514B6147514B6147514B6147514BD
:10F80000B6147514B61475147B8EBBA6BC967B9E7D
:10F810003DBF373DB6147514BFDFFFFFFFFFFFFF8D
:10F82000FFFFFFFFFFFFFFFFFFFFFFFFFFFFFFFFE8
:10F83000FFFFFFFFFFFFFFFFFFFFFFFFFFFFFFFFD8
:10F84000FFFFFFFFFFFFFFFFFFFFFFFFFFFFFFFFC8
:10F85000FFFFFFFFFFFFFFFFFFFFFFFFFFFFFFFFB8
:10F86000FFFFFFFFBACE8639C7318639C7318639E7
:10F87000C7318639C7318639C7318639C7318639AC
:10F88000F49CFFFF339D8639C7318639C7318639ED
:10F89000C7318639C7318639C7318639C7314C6B94
:10F8A000FFFFFFFFFFFF8639C7318639C731863931
:10F8B000FFFFFFFFFFFFFFFFFFFFFFFFFFFFFFFF58
:10F8C000FA34F3043305F304F404F3043405F304C5
:10F8D000FFFFF93C3305F304F404F3043405F304A7
:10F8E000F404F30433053004F404796EFFFFFFD70A
:10F8F000F404F3043305F304F434FFFFFFFFF96C61
:10F90000F404F3043305F304B46EFFFFFFFFFFFFBD
:10F91000FFFFFFFFFFFFFFFFFFFFFFFFFFFFFFFFF7
:10F92000FFFFFFFFFFFFFFFFFFFFFFFFFFFFFFFFE7
:10F93000FFFFF8BD779D77A5FFFFFFFFFFFFFFFFEC
:10F94000FFFFFBDE3595359D77A5B7ADB7A5B7AD04
:10F9500039AEFFFFFFFFB7B5779DB8ADFFFFFFFFE3
:10F96000FFFFFFFFFFFFFFFFFFFFFFFFF7B5779DE3
:10F97000779D3CE7FFFFFFFFFFFFFFFFFFFFFFFF5C
:10F98000FFFF359D3695F48C3695779D77953595A7
:10F990007ABEFFFFFFFFFFFFFFFFFFFFFFFFFFFF3D
:10F9A000FFFFFFFFFFFFBEF7F8AD77A5B8A576A56F
:10F9B000F8ADFFFFFFFFFFFFFFFFFFFFFFFFFFFFB0
:10F9C000FFFFFFFFFFFFFFFFFBDE4D637795369DD7
:10F9D0007ABEFFFFFFFFFFFFFFFFFFFFFFFFFFFFFD
:10F9E000FFFFFFFFFFFFFFFFFFFFFFFFFFFFFFFF27
:10F9F000FFFFFFFFFFFFFFFFFFFFFFFFFFFFFFFF17
:10FA0000FFFFFFFFFFFFFFFFFFFFFFFFFFFFFFFF06
:10FA1000FFFFFFFFFFFFFFFFFFFFFFFFFFFFFFFFF6
:10FA2000FFFFFFFFFFFFFFFFFFFFFFFFFFFFFFFFE6
:10FA3000FFFFFFFFFFFFFFFFFFFFBEE77514B614D8
:10FA4000751CB514751CB614751CB5147514B61454
:10FA5000751CB514751CB614751CB5147514B61444
:10FA6000751CB514751CB614751CB5147514B61434
:10FA7000751CB514751CB614751CB5147514B61424
:10FA8000751CB514751CB6147BA6B5147514B61484
:10FA9000F73C3A7E751CB6147EE7FFFFFFFFFFFFC1
:10FAA000FFFFFFFFFFFFFFFFFFFFFFFFFFFFFFFF66
:10FAB000FFFFFFFFFFFFFFFFFFFFFFFFFFFFFFFF56
:10FAC000FFFFFFFFFFFFFFFFFFFFFFFFFFFFFFFF46
:10FAD000FFFFFFFFFFFFFFFFFFFFFFFFFFFFFFFF36
:10FAE000FFFFFFFFFFFFBACE4D6BC6318639C7312E
:10FAF0008639C6318639C7318639C6318639C7312C
:10FB0000308CFFFFFFFF30848639C6318639C7311C
:10FB10008639C6318639C7318639C6310D6BBAFE92
:10FB2000FFFFFFFF7AD6C7318639C63186394D6B64
:10FB3000FFFFFFFFFFFFFFFFFFFFFFFFFFFFFFFFD5
:10FB400079A6F304F304F304F304F304F304F334A5
:10FB5000FFD7FFFFF33CF304F304F304F304F304CF
:10FB6000F30CF304F304F304F304F36CFFFFF33436
:10FB7000F30CF304F304F30479A6FFFFFFFFFFCFB8
:10FB8000F30CF304F304F304F304BA9EFFFFFFFF46
:10FB9000FFFFFFFFFFFFFFFFFFFFFFFFFFFFFFFF75
:10FBA000FFFFFFFFFFFFFFFFFFFFFFFFFFFFFFFF65
:10FBB000FFFFF7B5B8ADB9ADBFFFFFFFFFFFFFFF18
:10FBC000FFFF38BEB8ADB8A5B8ADB8ADB8ADB8A5F3
:10FBD000B8ADFFFFFFFFF8B5B8ADF9B5FFFFFFFF08
:10FBE000FFFFFFFFFFFFFFFFFFFFFFFFF8BDB8A50F
:10FBF00078AD3DE7FFFFFFFFFFFFFFFFFFFFFFFFC8
:10FC0000FFFFB294F39CF3948E7B0C5B37A5B8A5F1
:10FC100077A579BEFFFFFFFFFFFFFFFFFFFFFFFF9D
:10FC2000FFFFFFFFBBDE77A577A5B7A5B48C76A550
:10FC3000FFFFFFFFFFFFFFFFFFFFFFFFFFFFFFFFD4
:10FC4000FFFFFFFFFFFFFFFFFFFF7DEF4E6BF58C18
:10FC5000379DFCD6FFFFFFFFFFFFFFFFFFFFFFFF0A
:10FC6000FFFFFFFFFFFFFFFFFFFFFFFFFFFFFFFFA4
:10FC7000FFFFFFFFFFFFFFFFFFFFFFFFFFFFFFFF94
:10FC8000FFFFFFFFFFFFFFFFFFFFFFFFFFFFFFFF84
:10FC9000FFFFFFFFFFFFFFFFFFFFFFFFFFFFFFFF74
:10FCA000FFFFFFFFFFFFFFFFFFFFFFFFFFFFFFFF64
:10FCB000FFFFFFFFFFFFFFFFFFFFBEE7B614751456
:10FCC000B614B514B6147514B614B514B614751468
:10FCD000B614B514B6147514B614B514B614751458
:10FCE000B614B514B6147514B614B514B614751448
:10FCF000B614B514B6147514B614B514B614751438
:10FD0000B614B514B61475147B8EBBA6BC9EBB9EF0
:10FD10003DBF373DB6147514BEDFFFFFFFFFFFFF89
:10FD2000FFFFFFFFFFFFFFFFFFFFFFFFFFFFFFFFE3
:10FD3000FFFFFFFFFFFFFFFFFFFFFFFFFFFFFFFFD3
:10FD4000FFFFFFFFFFFFFFFFFFFFFFFFFFFFFFFFC3
:10FD5000FFFFFFFFFFFFFFFFFFFFFFFFFFFFFFFFB3
:10FD6000FFFFFFFFFFFFFFFFFFFFF39C4D6B863997
:10FD7000C7310630C7318639C7318631C731863938
:10FD80003084FFFFFFFFFFFF339D8C69C731863949
:10FD9000C7318631C7318639C731F39CFFFFFFFF7A
:10FDA000FFFFFFFFFFFF8639C7318631C7314D6B3B
:10FDB000FFFFFFFFFFFFFFFFFFFFFFFFFFFFFFFF53
:10FDC000FFFFB99E3004F3043305F3043405F30454
:10FDD000FFFFFFFFFFFF799E3305F3043405F304B3
:10FDE0003305F304F404F3043335B96EBA9EF30417
:10FDF0003305F304F404F33CFFFFFFFFFFFFFFFFB5
:10FE0000BA9EF304F404F3043004F304FFCFFFFFBD
:10FE1000FFFFFFFFFFFFFFFFFFFFFFFFFFFFFFFFF2
:10FE2000FFFFFFFFFFFFFFFFFFFFFFFFFFFFFFFFE2
:10FE3000FFFFF7B5FAADF9B5BEEFFFFFFFFFFFFF1C
:10FE4000FFFF75ADCD520D5B4E5B4E63F58CF9B582
:10FE5000F9ADFFFFFFFFF8BDF9AD3ABEFFFFFFFFB1
:10FE6000FFFFFFFFFFFFFFFFFFFFFFFF39BEF9AD01
:10FE7000F9A57DEFFFFFFFFFFFFFFFFFFFFFFFFF84
:10FE8000FFFFFFFFFFFFFFFFFFFF7CEF8F6BB9ADB1
:10FE9000F9ADB8ADBFEFFFFFFFFFFFFFFFFFFFFFB3
:10FEA000BEEF39BEF9ADB8AD779DD0737ACEFFFF06
:10FEB000FFFFFFFFFFFFFFFFFFFFFFFFFFFFFFFF52
:10FEC000FFFFFFFFFFFFFFFFFFFFFFFFFFFFCF7BF6
:10FED000737C779DBCCEFCDEBFEFFFFFFFFFFFFF13
:10FEE000FFFFFFFFFFFFFFFFFFFFFFFFFFFFFFFF22
:10FEF000FFFFFFFFFFFFFFFFFFFFFFFFFFFFFFFF12
:10FF0000FFFFFFFFFFFFFFFFFFFFFFFFFFFFFFFF01
:10FF1000FFFFFFFFFFFFFFFFFFFFFFFFFFFFFFFFF1
:10FF2000FFFFFFFFFFFFFFFFFFFFFFFFFFFFFFFFE1
:10FF3000FFFFFFFFFFFFFFFFFFFFBEE7751CB614CB
:10FF40007514B614751CB6147514B614751CB61455
:10FF50007514B614751CB6147514B614751CB61445
:10FF60007514B614751CB6147514B614751CB61435
:10FF70007514B614751CB6147514B614751CB61425
:10FF80007514B614751CB6147514373DF634F72C79
:10FF9000751CB614751CB6147EDFFFFFFFFFFFFF54
:10FFA000FFFFFFFFFFFFFFFFFFFFFFFFFFFFFFFF61
:10FFB000FFFFFFFFFFFFFFFFFFFFFFFFFFFFFFFF51
:10FFC000FFFFFFFFFFFFFFFFFFFFFFFFFFFFFFFF41
:10FFD000FFFFFFFFFFFFFFFFFFFFFFFFFFFFFFFF31
:10FFE000FFFFFFFFFFFFFFFFFFFFFFFFFFFFBACE97
:10FFF00038C6F39C308430843084F39C38C6BACE43
:020000040801F1
:10000000FFFFFFFFFFFFFFFFFFFFFFFF79D6F39C1E
:1000100030843084F3A4BACEFFFFFFFFFFFFFFFF61
:10002000FFFFFFFFFFFFBACE79D6BACE79D6BACEA0
:10003000FFFFFFFFFFFFFFFFFFFFFFFFFFFFFFFFD0
:10004000FFFFFFFFFFD7BA9E796EBA9E79A6BA9ED0
:10005000FFFFFFFFFFFFFFFFFFFFBACE79A6BA6EDB
:10006000799EBA6E79A6BFCEFFD7FFFF7FD6BACEF4
:10007000FFD7BFCE7FD6FFCFFFFFFFFFFFFFFFFF02
:10008000FFFFBFCE7FD6BFCEFFD7BFCEFFFFFFFFA4
:10009000FFFFFFFFFFFFFFFFFFFFFFFFFFFFFFFF70
:1000A000FFFFFFFFFFFFFFFFFFFFFFFFFFFFFFFF60
:1000B000FFFF38C6F9B53ABEFCDEFFFFFFFFFFFFCA
:1000C000FFFFFFFFFFFFFFFFFFFFFFFF36A53ABE69
:1000D000F9B5FFFFFFFFF8BD3ABE7BC6FFFFFFFF8C
:1000E000FFFFFFFFFFFFFFFFFFFFFFFFF9BD3AB676
:1000F000F8B5FFFFFFFFFFFFFFFFFFF7BEF7FFFFB2
:10010000FFFFFFFFFFFFFFFFFFFFFFFFF7BDF9B599
:10011000FAB5F9AD3DE7FFFFFFFFFFFFFFFF7DE70A
:100120003ABEFAB5F9B5327C728CBEF7FFFFFFFF1D
:10013000FFFFFFFFFFFFFFFFFFFFFFFFFFFFFFFFCF
:10014000FFFFFFFFFFFFFFFFFFFFFFFFFFFFFFFFBF
