:020000040800F2
:1040000000050020654100086D4100086F4100086F
:10401000714100087341000875410008000000006C
:1040200000000000000000000000000077410008D0
:1040300079410008000000007B4100087D41000834
:104040007F4100087F4100087F4100087F41000850
:104050007F4100087F4100087F4100087F41000840
:104060007F4100087F4100087F4100087F41000830
:104070007F4100087F4100087F4100087F41000820
:104080007F4100087F410008000000007F410008D8
:104090007F4100087F4100087F4100087F41000800
:1040A0007F4100087F4100087F4100087F410008F0
:1040B0007F410008000000007F4100080000000070
:1040C0007F410008000000007F4100087F41000898
:1040D0007F41000800000000000000000000000018
:1040E00000000000000000007F4100080000000008
:1040F00000000000000000000000000000000000C0
:104100007F41000800000000000000007F4100081F
:10411000000000000000000000000000000000009F
:10412000000000000000000000000000000000008F
:10413000000000000000000000000000000000007F
:104140000000000000000000000000007F410008A7
:10415000DFF80CD000F018F80048004729450008A7
:10416000000500200648804706480047FEE7FEE7B6
:10417000FEE7FEE7FEE7FEE7FEE7FEE7FEE7FEE717
:10418000AD41000851410008064C074D06E0E068CB
:1041900040F0010394E8070098471034AC42F6D38E
:1041A000FFF7DAFF584A0008784A000810B5294896
:1041B000006840F001002749086000BF25480068FA
:1041C00010F0020FFAD023484068234908402149E3
:1041D000486008464068214908401E494860084632
:1041E000406820F4400048600846006B1C490840C5
:1041F00018490863084600681A49084015490860CC
:104200000846C06A184908401249C8620846006B4F
:1042100040F2031188430F4908630846006B20F4FD
:10422000803008630846006B20F0004008630846B1
:10423000406B20F0010048630C48006820F4803097
:10424000C1F8C0004FF0000088600949086000F024
:104250002FFB10BD001002400C00FF08FFFFC277CB
:10426000BFFFFFBFFFFFF2FEF0FFFF3FC0100240A5
:10427000CC10024002E008C8121F08C1002AFAD17F
:1042800070477047002001E001C1121F002AFBD1D6
:10429000704700E0401E0028FCD1704710B504466E
:1042A000104931F8140000F093FA0F4951F8243006
:1042B0000E4951F824000022012100F0B5F80A4906
:1042C00051F82430094951F824000322002100F05C
:1042D000D2F8054850F82400044951F824108862A7
:1042E00010BD00003C000020200000201000002035
:1042F000034951F82010034A52F820209162704778
:104300002000002010000020034951F82010034A2B
:1043100052F82020916170472000002010000020FA
:10432000F0B503461C6A5D6A00200DE00126864058
:10433000164207D087000F26BE40B443860001FA1C
:1043400006F63443461CB0B20828EFD3082011E02B
:104350000126864016420BD0A0F10806B7000F26B2
:10436000BE40B543A0F10806B60001FA06F6354393
:10437000461CB0B21028EBD31C625D62F0BD000099
:1043800010B54FF4006300220221264800F04CF8DB
:104390004FF4006300220121224800F06CF84FF432
:1043A0008053002202211F4800F03EF84FF4805352
:1043B000002211461B4800F05EF84FF40053002223
:1043C0000221184800F030F84FF400530022114643
:1043D000144800F050F84FF48043002202211148A5
:1043E00000F022F84FF48043002211460D4800F0FF
:1043F00042F84FF4006203210A48FFF791FF4FF49F
:10440000805203210748FFF78BFF4FF4005203212E
:104410000448FFF785FF4FF4804203210148FFF76E
:104420007FFF10BD00040048F0B504460D46164657
:104430002168E268002019E0012787401F4213D05D
:104440004FEA400C032707FA0CF7B943470005FA77
:1044500007F739434FEA400C032707FA0CF7BA4332
:10446000470006FA07F73A43471CB8B21028E3D3CF
:104470002160E260F0BDF0B504460E46012E03D186
:1044800067681F43676002E067689F436760A168D1
:10449000A2F57F47FF3F16D1E56B00200EE0012714
:1044A00087401F4208D04FEA400C032707FA0CF759
:1044B0003943012787403D43471CB8B21028EED34B
:1044C000A160E56314E000200FE0012787401F4250
:1044D00009D04FEA400C032707FA0CF7B94347000D
:1044E00002FA07F73943471CB8B21028EDD3A16090
:1044F000F0BD10B50020FFF7D1FE0120FFF7CEFE82
:104500000220FFF7CBFE0320FFF7C8FE0020FFF7D5
:10451000EFFE0120FFF7ECFE0220FFF7E9FE03208B
:10452000FFF7E6FE10BD00000024002500264FF432
:104530008041480300F042F940F2115000F048F980
:1045400040F2125000F044F940F2135000F040F9EC
:1045500040F2145000F03CF940F2165000F038F9E7
:104560004FF4A36000F034F9FFF70AFF00F0B4F94C
:10457000FFF7BFFF00BF3AE04FF4001000F056FA1B
:10458000012000F0D3F9012804D100F0DBF98549BE
:1045900021F814004FF4001000F08EF94FF4800061
:1045A00000F044FA012000F0C1F9012804D100F024
:1045B000C9F97D4921F814004FF4800000F07CF91E
:1045C0004FF4000000F032FA012000F0AFF90128AA
:1045D00004D100F0B7F9754921F814004FF4000038
:1045E00000F06AF94FF48050FFF753FE641C142C5E
:1045F000C2DB012418E06E4800886A4931F81410C3
:1046000008446B49088008464088674931F814100F
:1046100008446749488008468088644931F8141086
:10462000084463498880641C142CE4DB60480088DB
:10463000132190FBF1F05E49088008464088132161
:1046400090FBF1F05A49488008468088132190FB7E
:10465000F1F057498880084680884988401A85B219
:104660005348808852494988401A1E3086B297E0E4
:104670004FF4001000F0DAF9012000F057F901289A
:1046800003D100F05FF94B49488049480088494907
:104690004988401A202803DD01204749086007E0C7
:1046A000002045490860FFF723FE0320FFF720FEA6
:1046B0004FF4001000F000F94FF4800000F0B6F95C
:1046C000012000F033F9012803D100F03BF939490A
:1046D00088803748408837498988401A202805DD76
:1046E000012035494860FFF70FFE05E00020324900
:1046F00048600120FFF7FCFD4FF4800000F0DCF87B
:104700004FF4000000F092F9012000F00FF90128A9
:1047100003D100F017F92749C8802548808825492A
:10472000C988401A202806DD01202349886002201C
:10473000FFF7EAFD05E000201F4988600220FFF72F
:10474000D7FD4FF4000000F0B7F81B4800680128BF
:1047500026D11848808817494988401A28441549A5
:10476000C988144A5288891A884206DA0020FFF75D
:10477000CBFD0320FFF7BCFD12E00E4880880D49F9
:104780004988401A81190B48C0880A4A5288801A01
:10479000814205DD0320FFF7B7FD0020FFF7A8FDEC
:1047A00066E700007C000020A4000020CC00002070
:1047B0000800002000000020F4000020024A0A4007
:1047C0000243024B1A60704780FFFF1F08ED00E0B4
:1047D000064901EB9011096800F01F0301229A407D
:1047E0001143024A02EB9012116070470010024020
:1047F000002000212B4A126842F48032294B1A60B3
:1048000000BF401C274A126802F4003111B9B0F50C
:10481000006FF6D1234A126812F4003F00D17047AE
:10482000204A52681F4B5A601A46526842F400529E
:104830005A601A46526842F480625A601A465268B8
:10484000194B1A40174B5A601A46D26A22F040425E
:10485000DA621A46D26A42F00102DA621A465268F5
:10486000124B1A430F4B5A601A46126842F080727C
:104870001A6000BF0B4A126812F0007FFAD0094A92
:10488000526822F00302074B5A601A46526842F0FF
:1048900002025A6000BF034A526812F0080FFAD0B1
:1048A00000BFBCE700100240FFFFC27700002908EC
:1048B00010B5FFF79DFF10BD0249896A8143014A87
:1048C00091627047004002400249896A0143014AEF
:1048D000916270470040024010B560234FF0807233
:1048E0001101052000F044F800F088F84FF4801022
:1048F00000F076F8202000F02BF84FF4700000F064
:104900002FF800F001F810BD0348006840F00100E6
:104910000149086070470000004002400249896870
:104920000143014A91607047004002400146044A39
:10493000D2680A4201D0012000E000207047000048
:10494000004002400148806C80B270470040024045
:104950000249096B0143014A11637047004002405C
:10496000024909698143014A1161704700400240D0
:1049700070B504460D46174E366816F0020F28D162
:10498000082C12D2134E3068134E304045EA0436DC
:1049900016431E4330430F4E3060104E316821F0F5
:1049A00080710C4EC6F8001313E00A4E306824F0F4
:1049B0000804094E304045EA043616431E4330438E
:1049C000044E3060054E316841F08071014EC6F8EA
:1049D000001370BD004002401F8FFF0000430240E3
:1049E0000549096811F0020F04D10349096A01431E
:1049F000014A11627047000000400240054800680B
:104A000010F0020F05D10348006820F004000149AE
:104A100008607047004002400348006840F0020010
:104A200001490860704700000040024010B504468C
:104A30002046FFF749FF4FF45060FFF72AFC0320A0
:104A4000FFF76CFFFFF7E8FF00BF0320FFF76EFFE3
:104A50000028FAD010BD0000784A000800000020AD
:104A60007C00000074420008F44A00087C0000202A
:104A700084040000844200080000000000000000E0
:104A80000000000000000000000800480008004886
:104A9000000800480008004800040000000800006A
:104AA00000100000040000000E06000000020000DC
:104AB000000400001305130513051305000000484A
:104AC0000008004800140048010000000020000019
:104AD000800000001105130516050000010000000C
:104AE0000020000080000000000205000D070507FF
:044AF00007000000BB
:04000005080041515D
:00000001FF
