:020000040800F2
:104000001804002025410008254200081D42000830
:10401000214200086D410008A9430008000000008B
:1040200000000000000000000000000049420008FD
:1040300071410008000000002742000815430008F5
:104040003F4100083F4100083F4100083F41000850
:104050003F4100083F4100083F4100083F41000840
:104060003F4100083F4100083F4100083F41000830
:104070003F4100083F4100083F4100083F41000820
:104080003F4100083F410008000000003F41000898
:104090003F4100083F4100083F4100083F41000800
:1040A0003F4100083F4100083F4100083F410008F0
:1040B0003F410008000000003F41000800000000F0
:1040C0003F410008000000003F4100083F41000858
:1040D0003F4100083F4100083F4100080000000048
:1040E00000000000000000003F4100080000000048
:1040F00000000000000000000000000000000000C0
:104100003F41000800000000000000003F4100089F
:10411000DFF80CD000F018F800480047CD43000845
:10412000180400200648804706480047FEE7FEE7DF
:10413000FEE7FEE7FEE7FEE7FEE7FEE7FEE7FEE757
:104140001D43000811410008064C074D06E0E068D9
:1041500040F0010394E8070098471034AC42F6D3CE
:10416000FFF7DAFF044500082445000800BFFEE71A
:104170007047000001B504490098086000BF02487C
:1041800000680028FBD108BD00000020F0B50A46F9
:1041900000210023002400BF3DE0012505FA01F3C2
:1041A000156805EA03049C4234D11579012D02D02B
:1041B0001579022D16D185684F000326BE40B54300
:1041C000856055794E00B540866835438560066840
:1041D00003258D40AE430660066895798D40ADB2EB
:1041E0002E43066005684F000326BE40B5430560B8
:1041F00015794E00B540066835430560C5684F0027
:104200000326BE40B543C560D5794E00B540C668AB
:104210003543C560491C1029BFD3F0BD00BFFEE780
:1042200000BFFEE77047704729B1064A5269024352
:10423000044B5A6104E0034A52698243014B5A61BC
:104240007047000000100240704710B500F002F8FF
:1042500010BD00000CB50020019000902B480068B4
:1042600040F480302949086000BF2848006800F405
:10427000003000900198401C0190009818B90198F6
:10428000B0F5006FF1D12148006810F4003F02D072
:104290000120009001E0002000900098012833D117
:1042A0001A4840681949486008464068486008460E
:1042B000406840F4806048600846406814490840FF
:1042C000124948600846406840F4E81048600846D3
:1042D000006840F08070086000BF0C48006810F073
:1042E000007FFAD00948406820F003000749486081
:1042F0000846406840F00200486000BF034840683C
:1043000000F00C000828F9D10CBD0000001002409C
:10431000FFFFC0F710B500F03BF810BD10B519480D
:10432000006840F0010017490860084640681649D7
:10433000084014494860084600681449084011497B
:1043400008600846006820F480200860084640683D
:1043500020F47C1048600846C06A20F00F00C86254
:104360000846006B40F2531188430649086308462B
:10437000406B20F00100486300208860FFF765FF74
:1043800010BD0000001002400CB8FFF8FFFFF6FE61
:104390000448006820B103480068401E01490860D5
:1043A000704700000000002000BFFEE702E008C8E0
:1043B000121F08C1002AFAD170477047002001E09F
:1043C00001C1121F002AFBD1704700001CB54748ED
:1043D0004749086001214FF4C010FFF725FF4FF453
:1043E000E050009001208DF8040000208DF80600B8
:1043F0008DF8070003208DF8050069463D48FFF75A
:10440000C5FE0420009001208DF8040000208DF8E6
:1044100006008DF8070003208DF805006946364830
:10442000FFF7B4FE354800684FF47A72B0FBF2F142
:10443000B1F1807F01D301201EE021F07F40401EBA
:104440004FF0E022506150170F22002808DA1307BE
:104450001D0E274B103300F00F04241F1D5503E0E1
:1044600013071C0E264B1C5400BF00204FF0E02207
:10447000906107201061002008B100BFFEE734E022
:104480004FF480601B49183108604FF47A70FFF7D1
:1044900071FE4FF480601749283108804FF47A701C
:1044A000FFF768FE4FF40060124918310860C82019
:1044B000FFF760FE4FF480500E4918310860C820A5
:1044C000FFF758FE04200C4918310860C820FFF798
:1044D00051FE4FF4E0500749283108800420064976
:1044E00028310880C820FFF745FEC9E700400008D2
:1044F00008ED00E000080048000C0048040000201F
:1045000000E400E02445000800000020180000003E
:10451000AC4300083C4500081800002000040000DF
:10452000BC4300080000000000A24A040000000094
:0C45300000000000010203040607080957
:04000005080041119D
:00000001FF
