:020000040800F2
:104000001804002025410008374200082F4200080C
:10401000334200086D410008BD4300080000000065
:104020000000000000000000000000005D420008E9
:1040300071410008000000003942000829430008CF
:104040003F4100083F4100083F4100083F41000850
:104050003F4100083F4100083F4100083F41000840
:104060003F4100083F4100083F4100083F41000830
:104070003F4100083F4100083F4100083F41000820
:104080003F4100083F410008000000003F41000898
:104090003F4100083F4100083F4100083F41000800
:1040A0003F4100083F4100083F4100083F410008F0
:1040B0003F410008000000003F41000800000000F0
:1040C0003F410008000000003F4100083F41000858
:1040D0003F4100083F4100083F4100080000000048
:1040E00000000000000000003F4100080000000048
:1040F00000000000000000000000000000000000C0
:104100003F41000800000000000000003F4100089F
:10411000DFF80CD000F018F800480047E143000831
:10412000180400200648804706480047FEE7FEE7DF
:10413000FEE7FEE7FEE7FEE7FEE7FEE7FEE7FEE757
:104140003143000811410008064C074D06E0E068C5
:1041500040F0010394E8070098471034AC42F6D3CE
:10416000FFF7DAFFDC450008FC45000800BFFEE76A
:104170007047000001B504490098086000BF02487C
:1041800000680028FBD108BD00000020F0B50A46F9
:1041900000210023002400BF3DE0012505FA01F3C2
:1041A000156805EA03049C4234D11579012D02D02B
:1041B0001579022D16D185684F000326BE40B54300
:1041C000856055794E00B540866835438560066840
:1041D00003258D40AE430660066895798D40ADB2EB
:1041E0002E43066005684F000326BE40B5430560B8
:1041F00015794E00B540066835430560C5684F0027
:104200000326BE40B543C560D5794E00B540C668AB
:104210003543C560491C1029BFD3F0BD02460020BC
:10422000138A0B4201D0012000E00020704700BF3C
:10423000FEE700BFFEE770477047000029B1064A5D
:1042400052690243044B5A6104E0034A52698243B3
:10425000014B5A617047000000100240704710B5D2
:1042600000F002F810BD00000CB500200190009095
:104270002B48006840F480302949086000BF284876
:10428000006800F4003000900198401C01900098F4
:1042900018B90198B0F5006FF1D12148006810F409
:1042A000003F02D00120009001E000200090009823
:1042B000012833D11A4840681949486008464068C7
:1042C00048600846406840F480604860084640689E
:1042D00014490840124948600846406840F4E81014
:1042E00048600846006840F08070086000BF0C48D5
:1042F000006810F0007FFAD00948406820F0030001
:10430000074948600846406840F00200486000BF26
:104310000348406800F00C000828F9D10CBD0000EB
:1043200000100240FFFFC0F710B500F03BF810BDD1
:1043300010B51948006840F00100174908600846A8
:104340004068164908401449486008460068144906
:104350000840114908600846006820F48020086081
:104360000846406820F47C1048600846C06A20F087
:104370000F00C8620846006B40F25311884306499B
:1043800008630846406B20F0010048630020886005
:10439000FFF765FF10BD0000001002400CB8FFF8E9
:1043A000FFFFF6FE0448006820B103480068401E85
:1043B00001490860704700000000002000BFFEE7D0
:1043C00002E008C8121F08C1002AFAD170477047DE
:1043D000002001E001C1121F002AFBD1704700003C
:1043E0001CB578487849086001214001FFF726FF95
:1043F00001214804FFF722FF01218805FFF71EFF76
:104400004FF4E050009001208DF8040000208DF85A
:1044100006008DF8070003208DF8050069466B48FB
:10442000FFF7B4FE0120009000208DF804006946DB
:104430004FF09040FFF7AAFE802000906946644844
:10444000FFF7A4FE4FF40050009069465F48FFF765
:104450009DFE604800684FF47A72B0FBF2F1481E8E
:10446000B0F1807F01D301201CE0481E4FF0E02214
:10447000506150170F22002808DA13071D0E524B07
:10448000103300F00F04241F1D5503E013071C0E0A
:10449000514B1C5400BF00204FF0E02290610720D8
:1044A0001061002008B100BFFEE789E001214FF054
:1044B0009040FFF7B3FE18BB0520FFF75BFE01211C
:1044C0004FF09040FFF7AAFEA0B90520FFF752FE7B
:1044D00001214FF09040FFF7A1FE28B94FF4806012
:1044E0003A491831086010E04FF4806037492831AC
:1044F00008800AE04FF4806034492831088004E0E5
:104500004FF4806031492831088080213048FFF71E
:1045100085FE08BB0520FFF72DFE80212C48FFF704
:104520007DFE98B90520FFF725FE80212848FFF77A
:1045300075FE28B94FF4006024491831086010E076
:104540004FF400602149283108800AE04FF40060F0
:104550001E492831088004E04FF400601B492831CF
:1045600008804FF400511948FFF758FE18BB05208A
:10457000FFF700FE4FF400511448FFF74FFEA0B9BB
:104580000520FFF7F7FD4FF400511048FFF746FEF6
:1045900028B94FF480500D491831086010E04FF4ED
:1045A00080500A49283108800AE04FF480500749BA
:1045B0002831088004E04FF48050044928310880F5
:1045C00074E700000040000808ED00E00008004823
:1045D000001400480400002000E400E0FC4500084E
:1045E0000000002018000000C04300081446000826
:1045F0001800002000040000D04300080000000064
:1046000000A24A04000000000000000001020304B0
:044610000607080988
:04000005080041119D
:00000001FF
