:020000040800F2
:104000003004002025410008C149000893460008FB
:10401000BD4900086D410008C150000800000000C3
:10402000000000000000000000000000634F0008D6
:104030007141000800000000E94900082D50000807
:104040003F4100083F4100083F4100083F41000850
:104050003F4100083F4100083F4100083F41000840
:104060003F4100083F4100083F4100083F41000830
:104070003F4100083F4100083F4100083F41000820
:104080003F4100083F410008000000003F41000898
:104090003F4100083F4100083F4100083F41000800
:1040A0003F4100083F4100083F4100083F410008F0
:1040B0003F410008000000003F41000800000000F0
:1040C0003F410008000000003F4100083F41000858
:1040D0003F4100083F4100083F4100080000000048
:1040E00000000000000000003F4100080000000048
:1040F00000000000000000000000000000000000C0
:104100003F41000800000000000000003F4100089F
:10411000DFF80CD000F018F80048004761510008A3
:10412000300400200648804706480047FEE7FEE7C7
:10413000FEE7FEE7FEE7FEE7FEE7FEE7FEE7FEE757
:104140003550000811410008064C074D06E0E068B4
:1041500040F0010394E8070098471034AC42F6D3CE
:10416000FFF7DAFFC4640008E464000800BFFEE75C
:104170007047000001B504490098086000BF02487C
:1041800000680028FBD108BD00000020F0B50A46F9
:1041900000210023002400BF3DE0012505FA01F3C2
:1041A000156805EA03049C4234D11579012D02D02B
:1041B0001579022D16D185684F000326BE40B54300
:1041C000856055794E00B540866835438560066840
:1041D00003258D40AE430660066895798D40ADB2EB
:1041E0002E43066005684F000326BE40B5430560B8
:1041F00015794E00B540066835430560C5684F0027
:104200000326BE40B543C560D5794E00B540C668AB
:104210003543C560491C1029BFD3F0BDF0B500235C
:1042200000244D07ED0E02FA05F3CE1000F1200533
:1042300055F826504E07F70E0F26BE40B543CF1057
:1042400000F1200646F82750CE1000F1200555F861
:10425000265045EA0304CE1000F1200545F826401B
:10426000F0BD02460020138A0B4201D0012000E07D
:10427000002070472DE9F84F0746884693469A4636
:10428000DDF828900097B7E099F8000080283DDA23
:1042900099F800600D2E05D1009F08F110001FFA5B
:1042A00080F830E0202E03DDA6F1200086B200E089
:1042B0000026002422E000251CE004EB06105249F1
:1042C000085C80212941084208D008EB040291B221
:1042D0007A1990B25A4600F0CDF909E0D34507D0DB
:1042E00008EB040291B27A1990B2524600F0C2F97A
:1042F000681CC5B2082DE0DB601CC4B2102CDADBF0
:1043000007F1080087B209F1010975E000266CE0A9
:10431000C6EBC60000EB80003C49085C99F8001031
:10432000884260D1C6EBC60000EB800037490844E4
:10433000407899F80110884255D1002451E00025B9
:1043400021E0C6EBC60000EB800030490844C01CE9
:1043500010F8141080202841014208D008EB040214
:1043600091B27A1990B25A4600F084F909E0D34527
:1043700007D008EB040291B27A1990B2524600F0CD
:1043800079F9681CC5B2082DDBDB002525E0C6EBFA
:10439000C60000EB80001D490844C01C012101EB50
:1043A0004401405C80212941084209D008EB040205
:1043B00091B27A19083290B25A4600F05BF90AE0DD
:1043C000D34508D008EB040291B27A19083290B2B2
:1043D000524600F04FF9681CC5B2082DD7DB601CAF
:1043E000C4B2102CABDB701C86B2642E90DB09F1DA
:1043F000020907F1100087B299F8000000287FF445
:1044000043AFBDE8F88F00002C5500089E620008FD
:104410002DE9F05F0646884693469A46DDF82890D7
:10442000DDE099F80000802835DA99F80070202F37
:1044300003DDA7F1200087B200E00027002522E07D
:1044400000241CE005EB07106849095C802020412E
:10445000014208D008EB050291B2321990B25A46D7
:1044600000F008F909E0D34507D008EB050291B246
:10447000321990B2524600F0FDF8601CC4B2082C0C
:10448000E0DB681CC5B2102DDADB09F1010906F189
:10449000080086B2A3E0002799E0C7EB071000EB05
:1044A00080005349085C99F80010884278D1C7EB26
:1044B000071000EB80004E490844407899F801103D
:1044C0008842F3D100257DE0002422E0C7EB0710ED
:1044D00000EB800046490844C01C05EB4501415CE7
:1044E00080202041014208D008EB050291B2321928
:1044F00090B25A4600F0BEF809E0D34507D008EB69
:10450000050291B2321990B2524600F0B3F8601C25
:10451000C4B2082CDADB002425E0C7EB071000EB5F
:10452000800033490844C01C05EB4501491C415C2F
:1045300080202041014209D008EB050291B23219D6
:10454000083290B25A4600F095F80AE0D34508D0F8
:1045500008EB050291B23219083290B2524600F0CF
:1045600089F8601CC4B2082CD7DB002426E0C7EB16
:10457000071000EB80001E490844C01C05EB4501F4
:10458000891C405C8021214108420AD008EB0502C9
:1045900091B23219103290B25A4600F06BF80BE02B
:1045A00013E0D34508D008EB050291B2321910325E
:1045B00090B2524600F05EF8601CC4B2082CD6DB04
:1045C000681CC5B2182DFFF67FAF781C87B2642F28
:1045D000FFF663AF09F1020906F1180086B299F8F7
:1045E000000000287FF41DAFBDE8F09F2C550008A7
:1045F0004D6300082DE9F05F0746884692469946CC
:10460000002531E000242BE019490A9801EBC01085
:1046100000EB850010F804B000261DE0802030413A
:1046200010EA0B0F0AD008EB050291B207EBC402A7
:10463000324490B2524600F01DF80BE0CA4509D052
:1046400008EB050291B207EBC402324490B24A462D
:1046500000F010F8701CC6B2082EDFDB601CC4B27C
:10466000042CD1DB681CC5B2202DCBDBBDE8F09F4C
:104670001D5B000870B505460E46144631462846B7
:1046800000F061F9201200F073F9E0B200F070F967
:1046900070BD00BFFEE7000070B5044640F23F1356
:1046A000EF220021084600F02FF908200A4908608F
:1046B00000250DE0002608E02112084800F042FC29
:1046C000E1B2064800F03EFC761CF02EF4D36D1CDF
:1046D000B5F5A07FEED370BD18080048003001404A
:1046E00010B500F0A3FB00F0FDF8CB2000F058F966
:1046F000392000F03DF92C2000F03AF9002000F0BC
:1047000037F9342000F034F9022000F031F9CF20DD
:1047100000F046F9002000F02BF9C12000F028F944
:10472000302000F025F9E82000F03AF9852000F06B
:104730001FF9002000F01CF9782000F019F9EA2098
:1047400000F02EF9002000F013F9002000F010F91D
:10475000ED2000F025F9642000F00AF9032000F0B4
:1047600007F9122000F004F9812000F001F9F72088
:1047700000F016F9202000F0FBF8C02000F010F93E
:10478000232000F0F5F8C12000F00AF9102000F015
:10479000EFF8C52000F004F93E2000F0E9F82820E9
:1047A00000F0E6F8C72000F0FBF8862000F0E0F803
:1047B000362000F0F5F8482000F0DAF83A2000F052
:1047C000EFF8552000F0D4F8B12000F0E9F800200F
:1047D00000F0CEF8182000F0CBF8B62000F0E0F89A
:1047E000082000F0C5F8822000F0C2F8272000F071
:1047F000BFF8F22000F0D4F8002000F0B9F826202D
:1048000000F0CEF8012000F0B3F8E02000F0C8F886
:104810000F2000F0ADF8312000F0AAF82B2000F0B6
:10482000A7F80C2000F0A4F80E2000F0A1F8082052
:1048300000F09EF84E2000F09BF8F12000F098F870
:10484000372000F095F8072000F092F8102000F0D3
:104850008FF8032000F08CF80E2000F089F8092072
:1048600000F086F8002000F083F8E12000F098F8CE
:10487000002000F07DF80E2000F07AF8142000F0FF
:1048800077F8032000F074F8112000F071F8072089
:1048900000F06EF8312000F06BF8C12000F068F8ED
:1048A000482000F065F8082000F062F80F2000F0C2
:1048B0005FF80C2000F05CF8312000F059F8362049
:1048C00000F056F80F2000F053F8112000F068F8BF
:1048D000782000F027FC292000F062F82C2000F05E
:1048E0005FF810BD10B5102006490880642000F064
:1048F00019FC1020034910390860322000F012FC26
:1049000010BD000028080048F0B504460D461646C4
:104910001F462A2000F044F8E1B2201200F036F8D9
:10492000F1B2301200F032F82B2000F039F8E9B281
:10493000281200F02BF8F9B2381200F027F82C20DA
:1049400000F02EF8F0BD30B504460D462A2000F0E8
:1049500027F8E1B2201200F019F82B2000F020F81F
:10496000E9B2281200F012F82C2000F019F830BD3E
:1049700000B503460820034908601946024800F0C4
:10498000E1FA00BD180800480030014030B5054686
:104990000C462846FFF7ECFF2046FFF7E9FF30BD45
:1049A00000B503460820034908801946024800F074
:1049B000C9FA00BD280800480030014000BFFEE7EA
:1049C0007047000030B10749096841F48071054A19
:1049D000116005E00349096821F48071014A116002
:1049E00070470000007000407047000029B1064A7F
:1049F00052690243044B5A6104E0034A52698243FC
:104A0000014B5A61704700000010024029B1064A6C
:104A1000D2690243044BDA6104E0034AD26982435B
:104A2000014BDA61704700000010024029B1064ACC
:104A300092690243044B9A6104E0034A92698243FB
:104A4000014B9A61704700000010024010B5024609
:104A5000002100230020511111B90C4C23680BE0F8
:104A6000012902D1094C236A06E0022902D1074C30
:104A7000636A01E0054C636B02F01F0101248C4066
:104A80001C4201D0012000E0002010BD00100240B7
:104A900030B10749496A41F00101054A516205E018
:104AA0000349496A21F00101014A5162704700003F
:104AB0000010024030B10749096A41F40041054A3B
:104AC000116205E00349096A21F40041014A1162BB
:104AD00070470000001002400249096A0143014A80
:104AE0001162704700100240014600BF080900EB48
:104AF0008000420001F00F001044C0B27047014630
:104B0000002204E0501CC2B2A1F10A00C1B20A297D
:104B1000F8DA100741EA10607047000008B500227B
:104B2000009200200021104A126812F0400F19D1A3
:104B3000421E0D4B1A6000BF0B4A126802F0400182
:104B4000009A521C0092009AB2F5804F01D00029C1
:104B5000F2D0054A126812F0400F01D0012002E0A5
:104B6000002000E0012008BD0C2800400348006838
:104B700020F0800001490860704700000C280040C8
:104B800070B506460C4600250F4800680F4900EA3C
:104B90000105280CE070C5F30420607005F03F00AB
:104BA000A070C5F3423020706EB9E078FFF79CFF2B
:104BB000E0706078FFF798FF6070A078FFF794FFCF
:104BC000A0702078207070BD042800403FFFFF00D7
:104BD00070B506460C4600250F4800680F4900EAEC
:104BE0000105C5F305402070C5F30620607005F08F
:104BF0007F00A07005F48000000CE0705EB92078A2
:104C0000FFF772FF20706078FFF76EFF6070A0788A
:104C1000FFF76AFFA07070BD002800407F7F7F0013
:104C20002DE9F04105460C46002600274DB9607875
:104C300000F01000102804D1607820F010000A3035
:104C4000607005B908E06078FFF74EFF0646A0786F
:104C5000FFF74AFF064600BF55B1E07800046178CF
:104C600040EA0120A1780843217840EA413611E06A
:104C7000E078FFF744FF4FEA00486078FFF73FFF16
:104C800048EA0028A078FFF73AFF48EA00082078B1
:104C900048EA4036CA201249086053200860FFF7EE
:104CA0003DFF08B9002714E00E4830400C49203978
:104CB0000860FFF75BFF0A481C38006810F0200FFF
:104CC00006D100F079F808B9002702E0012700E0DA
:104CD0000127FF20024908603846BDE8F081000046
:104CE000242800403FFFFF002DE9F04105460C4617
:104CF000002600274DB92E48006810F0400F00D064
:104D000002E00020E07000BF0DE02948006810F0CC
:104D1000400F04D02078FFF7E7FE064602E00020AF
:104D2000E07000BF00BF55B120780004617840EA10
:104D30000120A1780843E17840EA014611E020789B
:104D4000FFF7DDFE4FEA00486078FFF7D8FE48EA3B
:104D50000028A078FFF7D3FE48EA0008E07848EA88
:104D60000046CA2012491C31086053200860FFF732
:104D7000D5FE08B9002713E00E4830400C49083929
:104D80000860FFF7F3FE0A48006810F0200F06D114
:104D900000F012F808B9002702E0012700E001271F
:104DA000FF2003491C3108603846BDE8F08100004F
:104DB000082800407F7F7F0008B500220092002075
:104DC0000021194A126812F0200F01D0012029E0B9
:104DD000CA22154B1C331A6053221A60124A121D44
:104DE000126822F0A002104B1B1D1A6000BF0E4A71
:104DF000121D126802F02001009A521C0092009AC3
:104E0000B2F5004F01D00029F1D0074A121D1268F7
:104E100012F0200F01D0012000E00020FF22024B01
:104E20001C331A6008BD00000828004000B587B098
:104E3000002203212A48FFF7F1F900220421284823
:104E4000FFF7ECF9002205212548FFF7E7F93820A4
:104E5000009002208DF8040003208DF8050000204A
:104E60008DF806008DF8070069461D48FFF78EF99A
:104E700001208DF804001820009069461948FFF7BA
:104E800085F92020009069461748FFF77FF9012136
:104E90000803FFF7CBFD0020ADF808004FF4827047
:104EA000ADF80A000020ADF80C000220ADF80E00AD
:104EB0000120ADF810004002ADF812000020ADF85E
:104EC0001400ADF816000720ADF8180002A9074835
:104ED00000F01AF80121054800F00AF807B000BDFB
:104EE0000004004800080048001400480030014059
:104EF00021B1028842F04002028004E002884FF6AD
:104F0000BF731A400280704710B50022028802F475
:104F100041520B884C8823438C882343CC882343FD
:104F20000C8923434C8923438C892343CC89234315
:104F30001A430280838B4FF2FF74234083830B8AD2
:104F4000038210BD024600BF108910F0020FFBD093
:104F5000918100BF108910F0010FFBD09089C0B281
:104F60007047704710B500F001F810BD0CB5002077
:104F7000019000902B48006840F480302949086077
:104F800000BF2848006800F4003000900198401CE1
:104F90000190009818B90198B0F5006FF1D121483F
:104FA000006810F4003F02D00120009001E00020D2
:104FB00000900098012833D11A4840681949486088
:104FC0000846406848600846406840F48060486091
:104FD000084640681449084012494860084640683D
:104FE00040F4E81048600846006840F080700860AF
:104FF00000BF0C48006810F0007FFAD009484068F4
:1050000020F00300074948600846406840F002006D
:10501000486000BF0348406800F00C000828F9D140
:105020000CBD000000100240FFFFC0F710B500F0FB
:105030003BF810BD10B51948006840F00100174951
:105040000860084640681649084014494860084608
:10505000006814490840114908600846006820F4B7
:10506000802008600846406820F47C1048600846AC
:10507000C06A20F00F00C8620846006B40F253116E
:105080008843064908630846406B20F001004863E6
:1050900000208860FFF766FF10BD0000001002408E
:1050A0000CB8FFF8FFFFF6FE0448006820B1034883
:1050B0000068401E014908607047000000000020A1
:1050C00000BFFEE702E008C8121F08C1002AFAD19B
:1050D00070477047002001E001C1121F002AFBD178
:1050E000704700004FF0E021096921F004014FF002
:1050F000E0221161C21700EB5272C2F3C702074BE4
:105100001A701946097801EB4102C2EBC1114FF642
:10511000FF7202EAC101024A1180704714000020A8
:105120001600002001460D4A12884A434FF0E02342
:105130005A6100229A6101221A6100BF4FF0E022F9
:10514000106910F0010F02D010F4803FF6D0002259
:105150004FF0E0231A619A617047000016000020AA
:105160001CB5DD48DD49086001214FF49C00FFF7C4
:105170003DFC4820FFF7B6FFFFF7B2FA1F20FFF70C
:105180008BFAD7A01F234FF6E0721E2100900A2051
:10519000FFF770F80121C804FFF728FC4FF4E05036
:1051A000009001208DF8040000208DF806008DF895
:1051B000070003208DF805006946CC48FEF7E6FF9E
:1051C00000208DF804000120009069464FF09040C7
:1051D000FEF7DCFFC64800684FF47A72B0FBF2F1CC
:1051E000481EB0F1807F01D301201CE0481E4FF023
:1051F000E022506150170F22002808DA13071D0E15
:10520000B64B103300F00F04241F1D5503E01307A5
:105210001C0EB84B1C5400BF00204FF0E0229061E0
:1052200007201061002008B100BFFEE70121080738
:10523000FFF7ECFB0120FFF7C5FB0120FFF728FC7F
:1052400000BF4120FFF702FC0028FAD04FF40070A5
:10525000FFF742FC40F28F10A74908606320A7497E
:1052600008600120FFF726FCFFF7A6FD32E1A44904
:105270000020FFF785FC9AA01F234FF6E072202143
:1052800000900A20FFF7C4F802201F234FF6E072B7
:105290003C2100900520FFF7ADF900201F234FF6B9
:1052A000E0723C2100901D20FFF7A4F99448C078DB
:1052B0000A2190FBF1F084B21F234FF6E0723C21EB
:1052C00035200094FFF796F98D48C0780A2190FBAD
:1052D000F1F201FB120084B21F234FF6E0723C2171
:1052E0004D200094FFF786F9854840780A2190FB0D
:1052F000F1F084B21F234FF6E0723C217820009435
:10530000FFF778F97E4840780A2190FBF1F201FB23
:10531000120084B21F234FF6E0723C2190200094CB
:10532000FFF768F9764880780A2190FBF1F084B2A3
:105330001F234FF6E0723C21AC200094FFF75AF98E
:105340006F4880780A2190FBF1F201FB120084B2D1
:105350001F234FF6E0723C21C4200094FFF74AF966
:1053600068A01F234FF6E0726C2100900A20FFF71F
:105370004FF868490020FFF72BFC6648C07848B911
:1053800065A01F234FF6E072902100901420FFF7D4
:105390003FF808E062A01F234FF6E07290210090D2
:1053A0001420FFF735F85B4800780A2190FBF1F0F4
:1053B00084B21F234FF6E07288213C200094FFF74F
:1053C00019F9544800780A2190FBF1F201FB120010
:1053D00084B21F234FF6E072882154200094FFF717
:1053E00009F951A01F234FF6E07290210090702020
:1053F000FFF70EF8474840780A2190FBF1F084B29D
:105400001F234FF6E072882174200094FFF7F2F812
:10541000404840780A2190FBF1F201FB120084B26F
:105420001F234FF6E07288218C200094FFF7E2F8EA
:105430003DA01F234FF6E07290210090A420FEF7BC
:10544000E7FF344880780A2190FBF1F084B21F23F3
:105450004FF6E0728821A8200094FFF7CBF82D4882
:1054600080780A2190FBF1F201FB120084B21F2325
:105470004FF6E0728821C0200094FFF7BBF80121AD
:105480004FF09040FEF7EDFE20BB0520FEF772FEC8
:1054900001214FF09040FEF7E4FED8B90520FEF759
:1054A00069FE01214FF09040FEF7DBFE90B9142019
:1054B0001349C8700120487088700870FFF7B0FB6E
:1054C000122014490870002048708870C8700120AC
:1054D000FFF70AFCCBE600000040000808ED00E002
:1054E0002020546F6461792069732000000800480F
:1054F0001800002000E400E0080000200400002064
:105500001000002020204E6F772054696D652069BF
:10551000732000000C0000202020414D20000000DE
:105520002020504D200000003A0000000000000044
:10553000000000000000000000000000001010103B
:1055400010101010101000001010000000006C6C03
:105550002424000000000100000000000024242496
:1055600024FE48484848FC909090900000103C541D
:105570009290503814121292547810000000225C5D
:1055800094A8481010242A52548800000000304883
:105590004850206E54948C888A740000000030308B
:1055A00010100000000000000000000000040810BF
:1055B000102020202020201010080400008040200F
:1055C000201010101010102020408000000000005B
:1055D0001054381038541000000000000000001073
:1055E000101010FE1010101000000000000000004D
:1055F000000000000000000010102000000000006B
:10560000000000FE0000000000000000000000009C
:105610000000000000000000101000000000040462
:10562000080810102020404080800000000038440E
:10563000828282828282828244380000000010705E
:105640001010101010101010107C000000003844D2
:10565000828204081020408284FC0000000038444C
:105660008202043804020282443800000000040C64
:10567000141424244444FE04040E00000000FC80A2
:105680008080B8C4820202828478000000003C421C
:105690008280B8C4828282824438000000007E4248
:1056A000820404080808101010100000000038449C
:1056B00082824438448282824438000000003844A8
:1056C00082828282463A0282443800000000000052
:1056D000101000000000101000000000000000008A
:1056E000101000000000001010200000000000005A
:1056F000061860806018060000000000000000002E
:105700000000FE0000FE000000000000000000009D
:10571000C0300C020C30C000000000000038448291
:10572000820204081010100010100000000038441D
:10573000829AAAAAAAAAAA9680423C000000101047
:105740001028282844447C4444EE00000000FC4219
:105750004242427C4242424242FC000000003C4441
:105760008280808080808282443800000000F8447B
:10577000424242424242424244F800000000FC449D
:105780004240447C4440404244FC00000000FC4451
:105790004240447C4440404040F000000000344C13
:1057A000828080808E8484844C3400000000EE442B
:1057B0004444447C4444444444EE000000007C10D3
:1057C0001010101010101010107C000000003E0887
:1057D0000808080808080888887000000000EE44DF
:1057E000484850605048484444EE00000000E04003
:1057F000404040404040404244FC00000000C6445D
:105800006C6C6C545454444444EE00000000CE448C
:1058100064646454544C4C4C44E40000000038442C
:105820008282828282828282443800000000F844B0
:10583000424242447840404040E00000000038448A
:1058400082828282828282BA443C02000000F04856
:10585000444444487048444444E6000000003C444A
:10586000828040300C0202824478000000007C54A8
:105870009210101010101010103800000000EE44AC
:105880004444444444444444443800000000EE444A
:105890004444442828282810101000000000EE443A
:1058A0005454545454542828282800000000EE442E
:1058B000442828101028284444EE00000000EE443C
:1058C00044282828101010101038000000007E44D2
:1058D000840808102020408284FC0000001C101066
:1058E000101010101010101010101C000000EE44CA
:1058F0005454FE54545428282828000000701010D6
:10590000101010101010101010107000003048848B
:105910000000000000000000000000000000000087
:1059200000000000000000000000FE000040200019
:105930000000000000000000000000000000000067
:1059400000007884047C84848C7600000000C040D1
:105950004040586442424242645800000000000047
:1059600000003844808080804438000000000C042F
:105970000404344C848484844C360000000000000D
:105980000000788484FC8080847800000000182463
:105990002020F8202020202020700000000000009F
:1059A00000003A444478807C82827C000000C04041
:1059B000404058644444444444EE00000000101049
:1059C00000003010101010101038000000001010EF
:1059D0000000301010101010109060000000C04047
:1059E00040405C485060504844EE000000003010D9
:1059F00010101011101010101039000000000000DD
:105A00000000ACD29292929292D600000000000068
:105A1000000058E44444444444EE00000000000008
:105A20000000384482828282443800000000000076
:105A30000000D864424242645840E0000000000088
:105A40000000364C8484844C34040E0000000000B6
:105A500000006C302020202020700000000000009A
:105A600000007888846018844478000000000020DA
:105A70002020F82020202020241800000000000012
:105A80000000C64242424242463A00000000000086
:105A90000000EE44442828281010000000000000F8
:105AA0000000EE4444545428282800000000000060
:105AB0000000EE442810102844EE00000000000012
:105AC0000000EE444428281010A0C0000000000090
:105AD00000007E448810204284FC0000000C10105E
:105AE000101010601010101010100C00001010108A
:105AF00010101010101010101010100000C02020F6
:105B000020202018202020202020C000000000009D
:105B1000000000728C000000000000000000000087
:105B200000001FE000003FF000003FF000001FE019
:105B3000000180060003C00F0003C00F0003C00F68
:105B40000003C00F0003C00F0003C00F0003C00F0D
:105B50000003C00F0003000300000000000000006D
:105B600000000000000300030003C00F0003C00F8B
:105B70000003C00F0003C00F0003C00F0003C00FDD
:105B80000003C00F0003C00F0001800600001FE0EB
:105B900000003FF000003FF000001FE000000000A8
:105BA0000000000000000080000001800000038071
:105BB00000000780000007800000078000000780C9
:105BC00000000780000007800000078000000780B9
:105BD00000000780000001800000000000000000BD
:105BE0000000000000000180000007800000078026
:105BF0000000078000000780000007800000078089
:105C0000000007800000078000000780000003807C
:105C10000000018000000080000000000000000083
:105C200000001FE000003FF00000FFF00001FFE077
:105C3000000000060000000F0000000F0000000F31
:105C40000000000F0000000F0000000F0000000F18
:105C50000000000F00001FE300007FF800007FF845
:105C600000001FE0000300000003C0000003C000AC
:105C70000003C0000003C0000003C0000003C00018
:105C80000003C0000003C0000001800000001FF0FE
:105C900000003FF800003FFC00001FFE0000000075
:105CA0000003FF800001FFC00000FFC000007F80F4
:105CB000000000180000003C0000003C0000003C18
:105CC0000000003C0000003C0000003C0000003CE4
:105CD0000000003C00007F8C0001FFE00001FFF0AD
:105CE00000007F800000000C0000003C0000003C31
:105CF0000000003C0000003C0000003C0000003CB4
:105D00000000003C0000003C0000001800007F8004
:105D10000000FFC00001FFC00003FF800000000082
:105D200000000000000200010003000300038007E0
:105D30000003C00F0003C00F0003C00F0003C00F1B
:105D40000003C00F0003C00F0003C00F0003C00F0B
:105D50000003C00F00031FE300007FF800007FFC7A
:105D600000001FE0000000030000000F0000000F13
:105D70000000000F0000000F0000000F0000000FE7
:105D80000000000F0000000F0000000F00000007DF
:105D900000000003000000010000000000000000FF
:105DA00000001FFC00003FF800003FF000001FE073
:105DB000000180000003C0000003C0000003C00019
:105DC0000003C0000003C0000003C0000003C000C7
:105DD0000003C00000031FE000007FF800007FF810
:105DE00000001FE0000000030000000F0000000F93
:105DF0000000000F0000000F0000000F0000000F67
:105E00000000000F0000000F0000000600003FE04F
:105E100000007FF00000FFF00001FFE00000000044
:105E200000001FFC00003FF800003FF000001FE0F2
:105E3000000180000003C0000003C0000003C00098
:105E40000003C0000003C0000003C0000003C00046
:105E50000003C00000031FE000007FF800007FFC8B
:105E600000001FE0000300030003C00F0003C00F89
:105E70000003C00F0003C00F0003C00F0003C00FDA
:105E80000003C00F0003C00F0001800600001FE0E8
:105E900000003FF000003FF000001FE000000000A5
:105EA0000007FFE00003FFC00001FF880000FF18AB
:105EB0000000003800000078000000780000007842
:105EC00000000078000000780000007800000078F2
:105ED0000000007800000018000000000000000032
:105EE00000000000000000180000007800000078AA
:105EF00000000078000000780000007800000078C2
:105F000000000078000000780000007800000038F1
:105F10000000001800000008000000000000000061
:105F200000001FE000003FF000003FF000001FE015
:105F3000000180060003C00F0003C00F0003C00F64
:105F40000003C00F0003C00F0003C00F0003C00F09
:105F50000003C00F00031FE300007FF800007FFC78
:105F600000001FE0000300030003C00F0003C00F88
:105F70000003C00F0003C00F0003C00F0003C00FD9
:105F80000003C00F0003C00F0001800600001FE0E7
:105F900000003FF000003FF000001FE000000000A4
:105FA00000001FE000003FF000003FF000001FE095
:105FB000000180060003C00F0003C00F0003C00FE4
:105FC0000003C00F0003C00F0003C00F0003C00F89
:105FD0000003C00F00031FE300007FF800007FFCF8
:105FE00000001FE0000000030000000F0000000F91
:105FF0000000000F0000000F0000000F0000000F65
:106000000000000F0000000F0000000600001FE06D
:1060100000003FF000007FF00000FFE00000000003
:106020000000000000000000000000000000000070
:106030000000000000000000000000000000000060
:106040000000000000000000000000000000000050
:106050000000000000000000000000000000000040
:106060000000000000000000000000000000000030
:106070000000780000007800000078000000780040
:106080000000780000007800000000000000000020
:106090000000000000000000000000000000000000
:1060A00000000000000000000000000000000000F0
:1060B00000000000000000000000000000000700D9
:1060C00000000F8000000F8000000F80000007001C
:1060D00000000000000000000000000000000000C0
:1060E00000000000000000000000070000000F801A
:1060F00000000F8000000F8000000700000000007B
:10610000000000000000000000000000000000008F
:10611000000000000000000000000000000000007F
:106120000000000000000000000000000007C006A2
:10613000000FE0060000000C00301818003018189E
:10614000003018300030183000301860003008C0BF
:106150000007C0C0000FE080000000000000000F3A
:10616000E0000607C000063018000C3018000C30A4
:106170001800183018003030180030301800600057
:106180000000C00FE000C007C000000000000000D9
:1061900000000000000000000000000000000000FF
:1061A00000000000000000000000000000000000EF
:1061B00000000000000700E0000887FC00088E03D4
:1061C00000089801800718008000300000003000AF
:1061D000000070000000600000006000000060002F
:1061E000000060000000600000007000000030004F
:1061F00000003000000038000000180100000C030F
:10620000000007FC000001F000000000000000009A
:10621000000000000000000000000000000000007E
:10622000000000000000000000000000000000006E
:10623000000000000000000000000000000000005E
:10624000000000000000000000000000000000004E
:10625000000000000000000000003FF000007FF0A0
:1062600000007FE00000FFC0000000000000000010
:10627000000000000000000000000000000000001E
:10628000000000000000000000000000000000000E
:106290000000000000000000000000000000CFD45B
:1062A0000000001FF0101010101FF0101010101F31
:1062B000F0044044442444144814500440FFFE00B9
:1062C00000CABE0000003FF800000000000000000F
:1062D000FFFE01000100111011082104410281029A
:1062E00005000200B2E200000427C41444145485DF
:1062F0005445544554155415542554E5542104224D
:1063000084224424140808CAD4000028202410241D
:10631000102007FE0020F02017E0112011101110AE
:10632000151019CA170A020600020000000000003A
:10633000000000000000000000000000000000005D
:1063400000000000000000000000000000CFD400AA
:1063500000000000000007FF000F03C00C00401FFA
:10636000F8601800600800400E01C007FF00000040
:10637000000184000184001987800F8CE0078C20C5
:1063800000CC0003FFE01FFFC00000000000000081
:106390000000000000000000CABE00000000000075
:1063A000000E00001FFFC0007FE0000000000000A2
:1063B000000000000000003FC03FFFE00030000090
:1063C00030000030000613000C13C00C18F0181831
:1063D000001818000000000000000000000000008D
:1063E000000000B2E20000000000000000003039B0
:1063F000FC301FCC300706B00F06F01907B031375C
:10640000B03136F01F27F00167F001E5F001E1F04F
:106410000041F00CF8B03CD830008C3000803000E7
:106420000000000000000000000000000000CAD4CE
:10643000000000000000000803600C03700C033033
:10644000003FE0003F800801003C0180047F8004A1
:106450007D800C00800C10C00C10C00C18400C1C6F
:10646000600F7E6006703000003000000000000009
:10647000000000000000000000000000000000001C
:10648000000000000000000000000000000000000C
:1064900000000000000000000000000000000000FC
:1064A00000000000000000000000000000000000EC
:1064B00000000000000000000000000000000000DC
:1064C00000000000E4640008000000202C00000030
:1064D000C4500008106500082C00002004040000CF
:1064E000D450000800000000000000000000000080
:1064F00000000000000000000000000000A24A04AC
:106500000000000000000000010203040607080963
:04000005080041119D
:00000001FF
