:020000040800F2
:10400000B0040020254100089B45000849420008F3
:10401000494500086D410008616400080000000087
:1040200000000000000000000000000043470008FE
:1040300071410008000000009D450008214800086B
:104040003F4100083F4100083F4100083F41000850
:104050003F4100083F4100083F4100083F41000840
:10406000456300083F4100083F4100083F41000808
:104070003F4100083F4100083F4100083F41000820
:104080003F4100083F410008000000003F41000898
:104090003F4100083F4100083F4100083F41000800
:1040A0003F4100083F4100083F4100086D630008A0
:1040B000A5630008000000003F4100080000000068
:1040C0003F410008000000003F4100083F41000858
:1040D0003F4100083F4100083F4100080000000048
:1040E00000000000000000003F4100080000000048
:1040F00000000000000000000000000000000000C0
:104100003F41000800000000000000003F4100089F
:10411000DFF80CD000F018F80048004701650008EF
:10412000B00400200648804706480047FEE7FEE747
:10413000FEE7FEE7FEE7FEE7FEE7FEE7FEE7FEE757
:104140003D48000811410008064C074D06E0E068B4
:1041500040F0010394E8070098471034AC42F6D3CE
:10416000FFF7DAFF586700087867000800BFFEE72E
:104170007047F0B50A4600210023002400BF3DE04F
:10418000012505FA01F3156805EA03049C4234D1C0
:104190001579012D02D01579022D16D185684F00B1
:1041A0000326BE40B543856055794E00B54086680C
:1041B00035438560066803258D40AE43066006687A
:1041C00095798D40ADB22E43066005684F000326F9
:1041D000BE40B543056015794E00B54006683543CD
:1041E0000560C5684F000326BE40B543C560D5795C
:1041F0004E00B540C6683543C560491C1029BFD381
:10420000F0BDF0B5002300244D07ED0E02FA05F3D2
:10421000CE1000F1200555F826504E07F70E0F2658
:10422000BE40B543CF1000F1200646F82750CE100F
:1042300000F1200555F8265045EA0304CE1000F1A0
:10424000200545F82640F0BD00BFFEE770B50446E6
:1042500040F23F13EF220021084600F02FF908201A
:104260000A49086000250DE0002608E021120848F0
:1042700000F058FAE1B2064800F054FA761CF02E2D
:10428000F4D36D1CB5F5A07FEED370BD18080048BF
:104290000030014010B500F0B7F900F0FDF8CB2078
:1042A00000F044F9392000F029F92C2000F026F91B
:1042B000002000F023F9342000F020F9022000F063
:1042C0001DF9CF2000F032F9002000F017F9C120CD
:1042D00000F014F9302000F011F9E82000F026F980
:1042E000852000F00BF9002000F008F9782000F09C
:1042F00005F9EA2000F01AF9002000F0FFF800208C
:1043000000F0FCF8ED2000F011F9642000F0F6F860
:10431000032000F0F3F8122000F0F0F8812000F004
:10432000EDF8F72000F002F9202000F0E7F8C020B7
:1043300000F0FCF8232000F0E1F8C12000F0F6F8CE
:10434000102000F0DBF8C52000F0F0F83E2000F06F
:10435000D5F8282000F0D2F8C72000F0E7F8862032
:1043600000F0CCF8362000F0E1F8482000F0C6F864
:104370003A2000F0DBF8552000F0C0F8B12000F042
:10438000D5F8002000F0BAF8182000F0B7F8B620F1
:1043900000F0CCF8082000F0B1F8822000F0AEF870
:1043A000272000F0ABF8F22000F0C0F8002000F069
:1043B000A5F8262000F0BAF8012000F09FF8E020D0
:1043C00000F0B4F80F2000F099F8312000F096F8D2
:1043D0002B2000F093F80C2000F090F80E2000F055
:1043E0008DF8082000F08AF84E2000F087F8F120C0
:1043F00000F084F8372000F081F8072000F07EF804
:10440000102000F07BF8032000F078F80E2000F078
:1044100075F8092000F072F8002000F06FF8E12034
:1044200000F084F8002000F069F80E2000F066F833
:10443000142000F063F8032000F060F8112000F071
:104440005DF8072000F05AF8312000F057F8C1203D
:1044500000F054F8482000F051F8082000F04EF821
:104460000F2000F04BF80C2000F048F8312000F04D
:1044700045F8362000F042F80F2000F03FF81120F8
:1044800000F054F8782002F01DF8292000F04EF8D2
:104490002C2000F04BF810BD10B510200649088004
:1044A000642002F00FF81020034910390860322010
:1044B00002F008F810BD000028080048F0B50446D6
:1044C0000D4616461F462A2000F030F8E1B22012B1
:1044D00000F022F8F1B2301200F01EF82B2000F0AC
:1044E00025F8E9B2281200F017F8F9B2381200F0F6
:1044F00013F82C2000F01AF8F0BD000000B50346B8
:104500000820034908601946024800F00BF900BD75
:10451000180800480030014030B505460C462846D2
:10452000FFF7ECFF2046FFF7E9FF30BD00B503467B
:104530000820034908801946024800F0F3F800BD3E
:10454000280800480030014000BFFEE701F0F4FCFD
:104550004FF080600E490860C0130860400008609A
:1045600004200C49086000BF0948001F008880F43F
:1045700080600749091F08800648001F008880F0F6
:1045800004000449091F0880642000F091F9EBE75A
:1045900018080048180C0048704770477047000022
:1045A00010B500BF00BF00BF00BF0648006880789C
:1045B00000EB80008401E11704EB5161C81101F0A8
:1045C000EFFF10BD2C67000829B1064A526902436B
:1045D000044B5A6104E0034A52698243014B5A6119
:1045E000704700000010024029B1064A9269024358
:1045F000044B9A6104E0034A92698243014B9A6139
:10460000704700000010024000B587B0002203216F
:104610002B48FFF7F6FD002204212948FFF7F1FDA2
:10462000002205212648FFF7ECFD382000900220EB
:104630008DF8040003208DF8050000208DF8060099
:104640008DF8070069461E48FFF793FD01208DF89D
:1046500004001820009069461A48FFF78AFD2020C0
:10466000009069461848FFF784FD01210803FFF711
:10467000BBFF0020ADF808004FF48270ADF80A00CF
:104680000020ADF80C000220ADF80E000120ADF8BE
:1046900010004002ADF812000820ADF81400002010
:1046A000ADF816000720ADF8180002A9074800F081
:1046B0001BF80121054800F00BF807B000BD000011
:1046C0000004004800080048001400480030014081
:1046D00021B1028842F04002028004E002884FF6D5
:1046E000BF731A400280704710B50022028802F49E
:1046F00041520B884C8823438C882343CC88234326
:104700000C8923434C8923438C892343CC8923433D
:104710001A430280838B4FF2FF74234083830B8AFA
:10472000038210BD024600BF108910F0020FFBD0BB
:10473000918100BF108910F0010FFBD09089C0B2A9
:104740007047704710B500F001F810BD0CB500209F
:10475000019000902B48006840F48030294908609F
:1047600000BF2848006800F4003000900198401C09
:104770000190009818B90198B0F5006FF1D1214867
:10478000006810F4003F02D00120009001E00020FA
:1047900000900098012833D11A48406819494860B0
:1047A0000846406848600846406840F480604860B9
:1047B0000846406814490840124948600846406865
:1047C00040F4E81048600846006840F080700860D7
:1047D00000BF0C48006810F0007FFAD0094840681C
:1047E00020F00300074948600846406840F0020096
:1047F000486000BF0348406800F00C000828F9D169
:104800000CBD000000100240FFFFC0F708B500908B
:1048100002E00098401E009000980028F9D108BDE1
:1048200010B50548006820B103480068401E0249E1
:10483000086001F0FDFC10BD0400002010B519480F
:10484000006840F0010017490860084640681649B2
:104850000840144948600846006814490840114956
:1048600008600846006820F4802008600846406818
:1048700020F47C1048600846C06A20F00F00C8622F
:104880000846006B40F25311884306490863084606
:10489000406B20F00100486300208860FFF752FF62
:1048A00010BD0000001002400CB8FFF8FFFFF6FE3C
:1048B00001B504490098086000BF0248006800285C
:1048C000FBD108BD0400002070B5044605484460D3
:1048D00001F07AFC054615B900F074F90546284642
:1048E00070BD0000680000202DE9F04102461D481F
:1048F000406802EB420800EBC8010C68D1F804C024
:1049000018480272DFF860800869C8F82800486912
:10491000C8F8300000251EE0BCF8008008EB48080D
:10492000886810F82800C0F3C103032B0ED0A668D6
:104930000D48006BB043DFF83080C8F830002BB969
:1049400067684046806AB843C8F828000C340CF108
:10495000020C681CC5B28889A842DDDC0020BDE8D5
:10496000F081000068000020004002402DE9FF5F58
:1049700082460F469046002003906E4840680AEB3E
:104980004A0100EBC10460680190206800904FF07C
:10499000000BC6E00198058805EB4501A06810F8FA
:1049A0002100C0F3C100032838D105EB4501A06800
:1049B00050F8210020F00100401C05EB4502A168E1
:1049C00041F822000099087800F0F4F8064605EB5B
:1049D0004501A06800EB81004089029005EB45018C
:1049E000A06800EB8100468153480088B04216DD84
:1049F00005EB4501A06850F8210020F00600001DDD
:104A000005EB4502A16841F82200002005EB4502B4
:104A1000A16801EB820108810220039077E04648FB
:104A20004088B04216DA05EB4501A06850F8210035
:104A300020F00600801D05EB4502A16841F8220028
:104A4000002005EB4502A16801EB820108810220EC
:104A500003905CE005EB4502A16801EB820000F0E9
:104A600087F970B34FB131460298B847064605EB57
:104A70004501A06800EB8100468105EB4502A16875
:104A800001EB82018888314600F08CF8814600F005
:104A900087F805EB4502A16851F8221060F3420146
:104AA00005EB4502A06840F82210B8F1000F09D0CC
:104AB0004846C04705EB4502A16801EB8201088129
:104AC00025E007E005EB4501A06800EB8100A0F8B8
:104AD00008901CE005EB4502A16801EB8201888883
:104AE000314600F05FF805EB4502A16801EB820159
:104AF000088100F055F805EB4502A16851F8221035
:104B000060F3420105EB4502A06840F822100198CD
:104B1000801C019000980C3000900BF1010000F017
:104B2000FF0BA08958453FF735AF039804B0BDE8A7
:104B3000F09F0000680000203C00002000B50B48FA
:104B4000806840F00300094988604FF47A70FFF7ED
:104B50005DFE0648006840F0100004490860084601
:104B6000006840F00200086000BD00000040024004
:104B700001200A49C96811F0010F0DD007490968E1
:104B800021F01001054A11601146C96811F0020FA9
:104B900001D0022000E000207047000000400240E9
:104BA000002070470246501A00B270470246501A61
:104BB00080B270470146024850F8210080B2704729
:104BC0003440024010B500F035F81848406940F014
:104BD0008070164948610120154908600846006840
:104BE00040F0805008600846006840F0807008601F
:104BF00008460068086008460068086008460068C3
:104C000008600846006840F4A04008600846006854
:104C100040F0600008600846006820F0100008605E
:104C2000084600680860002010BD00000010024027
:104C3000004002407CB54848406940F46020464945
:104C4000486102208DF8040001208DF80600022042
:104C50008DF8050000208DF807000090009820B125
:104C600069464FF09040FFF784FA002000900098CA
:104C700040F400600090009818B169463748FFF78B
:104C800078FA00208DF806000090009820B169465F
:104C90004FF09040FFF76DFA00200090009840F42C
:104CA00080500090009840F400500090009840F42C
:104CB00080400090009818B169462848FFF759FADB
:104CC0000024002534B14FF09040006A20434FF09B
:104CD0009041086235B14FF09040406A28434FF050
:104CE000904148620024002545F4405545F4403584
:104CF00045F4401545F0407534B11848203000683F
:104D0000204316492031086025B11448406A2843E1
:104D1000124948621048406940F080700E4948616D
:104D20004FF0FF3424F4801424F4001424F480049D
:104D300024F40004601C04D009480069204008499C
:104D40000861002444F4801424B10548006A20431B
:104D5000034908627CBD00000010024000040048C6
:104D60000040024002460120704701460020704783
:104D700001460120704700002DE9F041044600275C
:104D8000B846A07910F0040F01D1BDE8F081256884
:104D9000002655E0284601F0C3F94648C06800786F
:104DA00020280ED04348C0680078212809D0414807
:104DB000C0680078222804D03E48C06800782328C4
:104DC0003BD13C480069006800780A2835D1394851
:104DD000006900680079C0F38010C0B1B8F1000F1D
:104DE00003D14FF00108002727E00C203149096961
:104DF000096808702F4800690068006820F080404A
:104E000000F180402B4909690968086015E00C2011
:104E1000284909690968087026480069006800681F
:104E200020F0804000F1804022490969096808604B
:104E30001FB9B8F1000F00D12F460835701CC6B25B
:104E4000A088B042A6DC97B3384601F069F919484A
:104E5000C068007820280ED01648C0680078212845
:104E600009D01448C0680078222804D01148C068CE
:104E7000007823281BD10A200E49096909680870A7
:104E80000C4800690068006820F0804000F1804014
:104E900008490969096808600648006900684068AF
:104EA00020F040004030034909690968486000BFAC
:104EB0006BE70000680000202DE9FF5F04460D4607
:104EC00016464FF00009012003904FF0000A0195AB
:104ED00000200090834620680290002753E002984B
:104EE00001F01EF92D48C068007820280ED02B480C
:104EF000C0680078212809D02848C0680078222896
:104F000004D02648C068007823280ED123480069C1
:104F100000680078022800D033E0204800698089CA
:104F200000901E480069D0F808B04FF0000821E05A
:104F3000BBF90890B9F1000F02D10020039013E0F3
:104F4000B9F1000F08DABAF1000F02DD002003907A
:104F50000AE04FF0FF3A07E0BAF1000F02DA002052
:104F6000039001E04FF0010A0BF10C0B08F1010076
:104F700000F0FF0800988045DADB029808300290C4
:104F800000BF781CC7B2A088B842A8DC039800B163
:104F90000196019804B0BDE8F09F00006800002071
:104FA00070B50446A07910F0010F21D0A07910F05F
:104FB0003E0F1DD121480078F8B94FF0E02000697C
:104FC00020F002004FF0E02108611D4800881D49D3
:104FD00008804FF0E020006940F002004FF0E0212F
:104FE000086101201549087000201749087004E085
:104FF000002012490870144908701048007858B110
:105000001148007840B90F494FF4FA7001F0A0F848
:1050100010B901200C4908700B48007858B11422CF
:105020000A212046FFF748FF06463146204600F099
:105030000DF8002500E00125284670BD290000205C
:10504000680000202A000020280000202DE9FE4FE3
:1050500006460F460020019000240090D6F800A0DC
:1050600087F0FF00401C80B20290A04654E05046FA
:1050700001F056F82B48C068007820280ED0294847
:10508000C0680078212809D02648C0680078222806
:1050900004D02448C068007823280FD12148006933
:1050A00000680078022800D032E01E48006980893C
:1050B00001901C48006984681B4800904FF000096B
:1050C00020E0B4F90810A088FFF770FD83464FEA8E
:1050D0000B2BA5882D02A07905440298454307FBB8
:1050E0000B55280AA071280CA0802046FFF73DFE32
:1050F000012802D10020009988470C3409F10100F1
:1051000000F0FF0901988145DBDB0AF1080A00BFC6
:1051100008F1010000F0FF08B0884045A7DCBDE8B9
:10512000FE8F000068000020B15E00082DE9F84FF6
:10513000FE4800698068009000270024A246A3462C
:105140000020FB490880FB490880FB490880FB4997
:105150000870FB490870F54800690068006820F095
:105160000040F249096909680860F04800698089CF
:10517000032802DA0220BDE8F88F00263AE0314623
:10518000009800F0EDFC0546002D00DA0025E84807
:10519000B0F90000854212DDE648B0F90000E649AA
:1051A0000880E348B0F90000E2490880E048058043
:1051B000E2480078E2490870E048067015E0DD48F2
:1051C000B0F90000854209DDDA48B0F90000DA499B
:1051D0000880D8480580DA48067006E0D648B0F95D
:1051E0000000854201DDD448058000980C30009015
:1051F000701CC6B2CD4800698089B042BFDCCB4884
:105200000069406840780121C1EB6000C949B1F9EB
:105210000010884201DD0220ADE7C6480088C6497B
:105220000988401A1FFA80F9C1480088C2490988D4
:10523000401A1FFA80F8BD4800694169BB480069FF
:105240008089BE4A1278504301EB4000BC4909787E
:1052500030F91140B5480069077EB448006990F8FC
:1052600019B008FB07F087B208EB090097FBF0F0D4
:1052700087B2002C04DD600004B2E01904B204E03F
:105280006042400004B2E01B04B2A848C068007845
:10529000202804D0A548C0680078212810D1002C0F
:1052A00003DDA4EB0B0004B203E0CBF580702044D7
:1052B00004B2002C00DA0024FF2C02DDFF2400E001
:1052C000E4B29A48006900680079C0F3C010002871
:1052D0007ED0E0B29549096909684978884253DD72
:1052E000E0B29249096909684978401AFF284BDA07
:1052F0008E480069006840788C4909694968497A94
:105300000844A0420FDD894800694068C179874898
:1053100000690068406861F305008449096909680B
:105320004860022027E78148006900680079401E34
:105330007E4909690968496860F305017B4800698D
:1053400000684160794800690068007910F03F0FFB
:1053500018D1764800694068C179744800690068CE
:10536000406861F3050071490969096848606F4840
:1053700000690068406820F080006C49096909688C
:10538000486001E00220F6E668480069006841785C
:1053900004F1FF0081424CDD6448006900684078F8
:1053A000624909694968497A014404F5807081427B
:1053B00011DD5E4800694068C1795C480069006899
:1053C000406861F30500594909690968486000E0CF
:1053D00032E00220CFE65548006900680079401E9F
:1053E000524909690968496860F305014F48006935
:1053F000006841604D4800690068007910F03F0F77
:1054000018D14A4800694068C17948480069006875
:10541000406861F3050045490969096848604348E7
:1054200000690068406820F0800040490969096807
:105430004860C1E002209EE6E0B23C490969096883
:105440004978884254DA3948006900684078E1B206
:10545000401AFF284CDA354800694068407A2044F9
:10546000324909690968497888420FDD2F48006987
:105470004068C1792D4800690068406861F3050003
:105480002A49096909684860022074E627480069CA
:1054900000680079401E254909690968496860F378
:1054A00005012248006900684160204800690068E1
:1054B000007910F03F0F19D11C4800694068C1798C
:1054C0001A4800690068406861F3050017490969D6
:1054D00009684860154800690068406820F080004D
:1054E0008030124909690968486001E0022042E6FB
:1054F0000E48006900684078FF30A0425CDA0B4833
:1055000000694068407A01190848006900684078DD
:1055100000F5807081421DDD044800694068C17952
:1055200002480069006840680CE000006800002044
:105530001C0000201E00002020000020220000206F
:105540002300002061F305002F49096909684860BC
:10555000022010E62C48006900680079401E2A49A4
:1055600009690968496860F305012748006900680E
:105570004160254800690068007910F03F0F19D19B
:10558000214800694068C1791F4800690068406887
:1055900061F305001C490969096848601A480069F7
:1055A0000068406820F08000803017490969096868
:1055B000486001E00220DEE51349096909684C7082
:1055C000E0B2114909694968097AC1F1080140FA54
:1055D00001FA0D48006900688078504501D1022029
:1055E000C9E509480069006880F802A0064800691A
:1055F0000068006820F0004000F10040024909699D
:10560000096808600020B6E56800002070B500F069
:1056100045FB00BB46480069406881794448006901
:105620000068006861F31D60414909690968086004
:105630003F48006900680068C0F3056028B90D2084
:105640003B490969096808706FE00E20384909690B
:105650000968087069E0364800698468002625E01A
:1056600065893348006900680068C0F30560314906
:105670000979884209D129462046FFF773FB08B112
:10568000A58010E00020A08070BDA0882844A080E4
:10569000A088A84207DA0020A0800D2024490969CB
:1056A00009680870F0E70C34701CC6B22048006925
:1056B0008089B042D4DC1E48006900680068C0F3ED
:1056C0000560002810DD1A48006900680068C0F312
:1056D0000560401E164909690968096860F31D6183
:1056E000134800690068016011480069006800689B
:1056F000C0F30560C8B90E480069846800260AE056
:10570000A0880D4909780841A0800020A07120815F
:105710000C34701CC6B2064800698089B042EFDCC8
:105720000220034909690968087000BFACE700005E
:10573000680000203C0000202400002000B500F09C
:10574000ADFA28B902201B490969096808702FE0E1
:10575000184909694968887800F014FB18BB154896
:10576000006900680068C0F30560002810DD11487A
:10577000006900680068C0F30560401E0D490969B2
:105780000968096860F31D610A48006900680160E2
:105790000848006900680068C0F3056040B900204F
:1057A00000F086FB04E002200249096909680870DC
:1057B00000BD00006800002000B500F06FFA28B9B5
:1057C00002201C4909690968087032E01949096911
:1057D00049680878012100F0B5FA28BB154800692E
:1057E00000680068C0F30560002810DD11480069FA
:1057F00000680068C0F30560401E0E490969096829
:10580000096860F31D610B48006900680160094880
:10581000006900680068C0F3056050B90A200549B6
:1058200009690968087004E00220024909690968E9
:10583000087000BD6800002008B500F02FFA28BBF2
:105840002B48006900680068C0F30560002810DD7F
:105850002748006900680068C0F30560401E2449BD
:1058600009690968096860F31D61214800690068D9
:1058700001601F48006900680068C0F3056080BBD4
:105880000D201B4909690968087030E000F01AF919
:1058900000909DF8000000F05F0000909DF800006F
:1058A000012806D002280AD004280ED0082819D1D1
:1058B00011E002200E4909690968087016E0062007
:1058C0000B4909690968087010E00A20084909694C
:1058D000096808700AE00C20054909690968087020
:1058E00004E004E0002000F0E3FA00BF00BF08BDC0
:1058F0006800002000B500F0D1F928B90A201C4941
:1059000009690968087032E01949096949684878E5
:10591000012100F0F7F928B90A2015490969096839
:10592000087024E01248006900680068C0F3056050
:10593000002810DD0E48006900680068C0F30560AB
:10594000401E0B4909690968096860F31D61084830
:105950000069006801600648006900680068C0F3DB
:10596000056020B90220024909690968087000BD74
:105970006800002000B500F091F928B90C201C49FE
:1059800009690968087032E0194909694968487865
:10599000012100F0B7F928B90C20154909690968F7
:1059A000087024E01248006900680068C0F30560D0
:1059B000002810DD0E48006900680068C0F305602B
:1059C000401E0B4909690968096860F31D610848B0
:1059D0000069006801600648006900680068C0F35B
:1059E000056020B90220024909690968087000BDF4
:1059F0006800002010B500F051F900BB2F48006985
:105A0000406881792D4800690068006861F31D6075
:105A10002A4909690968086028480069006800681F
:105A2000C0F3056028B90D20244909690968087088
:105A300042E0112021490969096808703CE01F49CA
:105A4000096949684878012100F05CF9A0B91B4850
:105A5000C0680078202804D01848C0680078222840
:105A600005D116490969096A8868804703E0144925
:105A7000C9688868804710BD10480069406841794E
:105A80000E4800690068006861F31D600B490969F0
:105A9000096808600948006900680068C0F305608B
:105AA00028B90220054909690968087004E0042042
:105AB000024909690968087000BFDCE76800002036
:105AC0003C00002000200A49C9680978202904D038
:105AD0000749C9680978222908D105490969C969AE
:105AE000034A12691268127811F8320070470000F8
:105AF0006800002000B51420184909694968087039
:105B00000F2016490969496848701420134909692A
:105B1000496888700320114909694968C8700F49AC
:105B20000969496808710D490969496848710B4953
:105B30000969496888710720084909694968087234
:105B40000A20064909694968487201200349096920
:105B50004968C871002000F0ABF900BD6800002062
:105B60000346B3F9082008480069006930F81100BD
:105B7000B0F5807F06D004480069006930F8110054
:105B80004243120A10B270476800002010B500F0BE
:105B90009FF828B12B48006900680078132850D17D
:105BA00028480069006804782648C06800782028E2
:105BB00004D02448C068007822280AD12149096904
:105BC000C969204A12691268127801EBC20148685B
:105BD00080471C48006900680078A0420AD1194833
:105BE00000690068006820F080401649096909686A
:105BF00008600BE0134800690068006820F08040EE
:105C000000F180400F490969096808600D48006982
:105C1000006800780A2809D00A48006900684068CE
:105C200020F0400007490969096848600548006993
:105C3000006800780C2804D10A2002490969096823
:105C4000087010BD68000020084A126990680021A1
:105C500005E00022828082710C304A1CD1B2034AD6
:105C6000126992898A42F4DC7047000068000020C3
:105C70000146094B1B699868002206E0036861F33E
:105C8000C40303600C30531CDAB2034B1B699B89BD
:105C90009342F3DC70470000680000200B48006965
:105CA000826800210AE01078C0F3410010F0020F72
:105CB00001D0002070470C32481CC1B20348006973
:105CC00080898842EFDC0220F4E7000068000020B1
:105CD0000B4B1B699968022000220BE00B7813F034
:105CE000010F04D00B6823F001030B6000200C317E
:105CF000531CDAB2024B1B699B899342EEDC70475E
:105D0000680000202DE9F041064688460C480069ED
:105D1000876800240CE021463846FFF721FF05463E
:105D2000B54202DD0020BDE8F0810C37601CC4B232
:105D3000034800698089A042EDDC0220F3E70000FF
:105D4000680000202DE9F041064688460C480069AD
:105D5000876800240CE021463846FFF701FF05461E
:105D6000B54202DB0020BDE8F0810C37601CC4B2F4
:105D7000034800698089A042EDDC0220F3E70000BF
:105D800068000020F0B506460C48006987680024CA
:105D90000CE021463846FFF7E3FE05467042854297
:105DA00001DC0020F0BD0C37601CC4B20348006960
:105DB0008089A042EDDC0220F4E7000068000020AA
:105DC00000B5FFF76BFF00BB384800694068817978
:105DD000364800690068006861F31D60334909694D
:105DE000096808603148006900680068C0F3056010
:105DF00028B90D202D4909690968087053E00F2062
:105E00002A490969096808704DE028490969496803
:105E100008780121FFF796FF00BB2448006940681D
:105E20000179224800690068006861F31D601F491C
:105E30000969096808601D48006900680068C0F3C6
:105E4000056028B90A20194909690968087004E041
:105E50000B20164909690968087000BD13490969D2
:105E600049688878FFF78EFFE8B9104800694068F4
:105E7000C1780E4800690068006861F31D600B4935
:105E80000969096808600948006900680068C0F38A
:105E9000056018B9002000F00BF804E00120034968
:105EA00009690968087000BFD7E700006800002092
:105EB00010B5044600201D490969096808701B488F
:105EC00000690068006820F0804000F180401749B8
:105ED0000969096808600320FFF7CAFE1448808832
:105EE000042802D0102808D103E0022011490880BC
:105EF0000AE004200F49088006E008200C49888049
:105F000003200C49088000BF00BF094800792044E5
:105F1000064909690968096860F31D610348006959
:105F200000680160FFF790FE10BD000068000020CF
:105F30003C0000202400002000B513200949096915
:105F400009680870074800690068006820F0804010
:105F500000F1804003490969096808600020FFF7E3
:105F600087FE00BD6800002010B5FFF797FE00BB5C
:105F70002F480069406881792D48006900680068F1
:105F800061F31D602A4909690968086028480069A9
:105F900000680068C0F3056028B90D20244909692C
:105FA0000968087042E012202149096909680870EF
:105FB0003CE01F490969496848780121FFF7A2FEC2
:105FC000A0B91B48C0680078202804D01848C068D1
:105FD0000078222805D116490969096A886880472E
:105FE00003E01449C9688868804710BD10480069FB
:105FF000406841790E4800690068006861F31D60DF
:106000000B49096909680860094800690068006867
:10601000C0F3056028B902200549096909680870BC
:1060200004E00520024909690968087000BFDCE73F
:10603000680000203C0000202DE9F04104460027C4
:10604000256800202072002627E0284600F068F826
:106050002878202802D022281AD100E000BF124957
:106060000969096A086880470F4800690068006884
:10607000C0F3807008B1012020720B480069C0692C
:10608000094909690968097810F83100074300E0F7
:1060900000BF00BF0835701CC6B2A088B042D4DC77
:1060A000E780BDE8F0810000680000202DE9F041A4
:1060B00004460027256800202072002627E0284695
:1060C00000F02EF82878202802D022281AD100E0EB
:1060D00000BF12490969096A486880470F4800698A
:1060E00000680068C0F3807008B1012020720B487E
:1060F0000069C069094909690968097810F831001F
:10610000074300E000BF00BF0835701CC6B2A0887E
:10611000B042D4DCE780BDE8F081000068000020D8
:106120000A49C8600178202906D0212905D02229F2
:1061300004D0232907D102E000BF00BF00BF034AFB
:106140004168116100E000BF00BF70476800002097
:1061500030B503464FF0E020006920F002004FF018
:10616000E02528611748028833B92846006940F0C5
:1061700002002861022030BD0888904203DC0888B4
:10618000101A84B206E008884FF6FF75281A1044EA
:10619000401C84B29C420ADB0A804FF0E020006978
:1061A00040F002004FF0E02528610020E3E74FF0C7
:1061B000E020006940F002004FF0E0252861012056
:1061C000D9E700006800002030B5164800684FF499
:1061D0007A72B0FBF2F1481EB0F1807F01D301204A
:1061E0001BE0481E4FF0E022506150170F2200289C
:1061F00007DA13071D0E0C4B00F00F04241F1D556A
:1062000003E013071C0E094B1C5400BF00204FF085
:10621000E022906107201061002008B1022030BD0B
:106220000020FCE70800002018ED00E000E400E09A
:106230000E480088401C0D4908800D480088401C0D
:106240000B49088008460088B0F57A7F0DDB0748C7
:106250008078401C05498870084680783F2801DD19
:1062600000208870002002490880704768000020E4
:106270002600002010B52548006840B92449087858
:10628000FEF732FBFEF75AFC012020490860FEF7BA
:106290006FFC68B91E49087800221146FEF766FBBC
:1062A0001B480068401C1A49086000201749086014
:1062B00017480068022826D90020154908601349AC
:1062C00008601448FFF7F2FE1248FEF755FD124928
:1062D0006420FFF73DFFA0B90E48FEF761FE48B904
:1062E0000E48008880F004000C49088000200C490A
:1062F000086006E004200949091D086001200849DA
:106300000860002400E00124204610BD5000002059
:106310004C000020300000205C000020140C0048DD
:106320006400002010B50448FFF786FE0348FEF71E
:10633000CBFA00F005F810BD3000002030660008F0
:10634000704700000748006820F010000549086009
:106350000846806840F00300886001200249086018
:1063600070470000004002406000002010B50A495C
:106370000A4800F033F820B100220749074800F02E
:1063800052F80749054800F029F820B100220449D5
:10639000024800F048F810BD050105000038014032
:1063A0000701070010B50A490A4800F017F820B1A4
:1063B00000220749074800F036F80749054800F071
:1063C0000DF820B100220449024800F02CF810BD5D
:1063D00005010500004400400701070070B50246B2
:1063E0000B460024002100250020C3F30725D9B265
:1063F000012606FA01F1012D02D11668314006E0AE
:10640000022D02D15668314001E0966831401C0CE3
:10641000012606FA04F4D669344011B10CB101200A
:1064200000E0002070BDF0B50346002400260025E2
:1064300000201846C1F30724CEB2012707FA06F55B
:10644000022C01D1001D02E0032C00D108301AB14A
:1064500007682F43076002E00768AF430760F0BD9D
:1064600000BFFEE702E008C8121F08C1002AFAD1E7
:1064700070477047002001E001C1121F002AFBD1C4
:10648000704700004FF0E021096921F004014FF04E
:10649000E0221161C21700EB5272C2F3C702074B30
:1064A0001A701946097801EB4102C2EBC1114FF68F
:1064B000FF7202EAC101024A118070472C000020DD
:1064C0002E00002001460D4A12884A434FF0E02377
:1064D0005A6100229A6101221A6100BF4FF0E02246
:1064E000106910F0010F02D010F4803FF6D00022A6
:1064F0004FF0E0231A619A61704700002E000020DF
:106500001CB522482249086001214FF4BC00FEF767
:106510005BF801208DF8040000208DF806000320B0
:106520008DF8050000208DF807004FF4E050009032
:1065300069461848FDF71DFE04200090694616487C
:10654000FDF717FE4820FFF79DFFFDF7A3FE1F2074
:10655000FDF77CFE002011490860002409E00F4887
:10656000006820440D4908600846006800F018F8EB
:106570002834B4F5A07FF2DBFFF7D4FE04E0FFF788
:1065800079FE08B9FEF70CF8F9E7000000400008B2
:1065900008ED00E000080048000C00480000002062
:1065A00070B5064600241FE000251AE0B44211DA57
:1065B00004EB4400C11700EB5171C9103C31A942F2
:1065C00008DD3C2D06DDFF20FDF798FFE020FDF7FC
:1065D00095FF05E00020FDF791FF1F20FDF78EFFDE
:1065E0006D1CF02DE2DB641CB4F5A07FDCDB70BD1C
:1065F0000000A0FFA0002000000060FF20FF60005E
:106600000000000005000000000020002000000045
:106610000500000000004000200000000500000010
:1066200000008000200000000000010002000000C7
:1066300004660008286600087C00002001000000B5
:106640000001200020000000106600082A660008F3
:106650007C0000200100000000014000200000003C
:106660001C6600082C6600087C0000200100000069
:106670000001800020000000100000000D560008FE
:10668000300000003D57000801000000C15D000817
:10669000230000000000000025000000F55800085D
:1066A00029000000755900080200000000000000E9
:1066B0002200000000000000260000000000000092
:1066C0002A0000000000000004000000F559000846
:1066D00024000000B957000808000000695F0008A6
:1066E000800000004D450008B00000003958000847
:1066F000A100000039580008A20000003958000825
:10670000A400000039580008A8000000395800080B
:106710004000000099450008F55A00088D5B00080C
:106720002D5100083001010100010000540000203B
:10673000A00000207C000020030000002467000867
:10674000F06500088080000078660008186700087F
:10675000200000002C670008786700080000002077
:106760006800000064640008E0670008680000201A
:1067700048040000746400080000000000000000ED
:1067800000A24A040000000000000000010203040F
:1067900006070809000000000000000000000000DB
:1067A0000000000000000000506700080100000029
:1067B000000000000A00FF070400000078660008DF
:1067C0001867000800000000000000000000000042
:1067D00000000000000000000000000000000000B9
:04000005080041119D
:00000001FF
