:020000040800F2
:10400000C004002065410008BB410008B34100081E
:10401000B7410008AD41000831420008000000002F
:10402000000000000000000000000000E741000860
:10403000B141000800000000E5410008E941000826
:104040007F4100087F4100087F4100087F41000850
:104050007F4100087F4100087F4100087F41000840
:104060007F4100087F4100087F4100087F41000830
:104070007F4100087F4100087F4100087F41000820
:104080007F4100087F4100087F4100087F41000810
:104090007F4100087F4100087F4100087F41000800
:1040A0007F4100087F4100087F4100087F410008F0
:1040B0007F4100087F4100087F4100087F410008E0
:1040C0007F4100087F4100087F4100087F410008D0
:1040D0007F4100087F4100087F4100087F410008C0
:1040E0007F4100087F4100087F4100087F410008B0
:1040F0007F4100087F4100087F4100080000000068
:104100007F410008000000007F4100087F41000857
:104110007F4100087F4100087F4100087F4100087F
:104120007F4100087F4100087F4100087F4100086F
:104130007F4100087F4100087F4100087F4100085F
:104140007F4100087F4100087F4100087F4100084F
:10415000DFF80CD000F018F800480047E54D0008E3
:10416000C00400200648804706480047FEE7FEE7F7
:10417000FEE7FEE7FEE7FEE7FEE7FEE7FEE7FEE717
:10418000F141000851410008064C074D06E0E06887
:1041900040F0010394E8070098471034AC42F6D38E
:1041A000FFF7DAFFA8F30008C8F3000800BFFEE736
:1041B000704700BFFEE700BFFEE7704710B500285C
:1041C00007DA0A07140E054A00F00F031B1FD45428
:1041D00003E00A07130E024A135410BD18ED00E065
:1041E00000E400E07047704710B500F0B7F910BD6B
:1041F00010B50D48006840F001000B490860002030
:104200004860C862084600680849084006490860D6
:104210004FF47F0088600846006820F48020086022
:1042200001F012F810BD000000100240FFFFF6EA96
:1042300000BFFEE702E008C8121F08C1002AFAD139
:1042400070477047002001E001C1121F002AFBD116
:1042500070470000FEB50646B348DFF8D0C20090B4
:10426000BCF800C00CF14F0C1FFA8CF3DFF8C0C291
:10427000BCF800C00CF1450C1FFA8CF2DFF8ACC2A0
:10428000BCF800C00CF1280C1FFA8CF1DFF8A0C2BA
:10429000BCF800C00CF11E0C1FFA8CF000F01BFDE6
:1042A000A148DFF888C20090BCF800C00CF14F0CA8
:1042B0001FFA8CF3DFF87CC2BCF800C00CF1450C8F
:1042C0001FFA8CF2DFF864C2BCF800C00CF1280CB5
:1042D0001FFA8CF1DFF85CC2BCF800C00CF11E0CB8
:1042E0001FFA8CF000F0F7FC8F48DFF84CC200900A
:1042F000BCF800C00CF14F0C1FFA8CF3DFF830C291
:10430000BCF800C00CF1450C1FFA8CF2DFF828C293
:10431000BCF800C00CF1280C1FFA8CF1DFF810C2B9
:10432000BCF800C00CF11E0C1FFA8CF000F0D3FC9E
:104330007D48DFF804C20090BCF800C00CF14F0CBF
:104340001FFA8CF3DFF8ECC1BCF800C00CF1450C8F
:104350001FFA8CF2DFF8E0C1BCF800C00CF1280CA9
:104360001FFA8CF1DFF8CCC1BCF800C00CF11E0CB8
:104370001FFA8CF000F0AFFC1827704D4FF6FF705D
:104380006F498880002411E06D484068009015F85E
:10439000012BE1001E3188B269490B68019349681D
:1043A0000291BE2100F0F8FA601C84B2BC42EBDB43
:1043B00036B1012E29D0022E4CD0032E6FD16FE0E2
:1043C0006048DFF868C10090BCF800C00CF14F0CE9
:1043D0001FFA8CF3DFF858C1BCF800C00CF1450C93
:1043E0001FFA8CF2DFF844C1BCF800C00CF1280CB5
:1043F0001FFA8CF1DFF838C1BCF800C00CF11E0CBC
:104400001FFA8CF000F067FC8BE04E48DFF81CC10F
:104410000090BCF800C00CF14F0C1FFA8CF3DFF8D1
:1044200014C1BCF800C00CF1450C1FFA8CF2DFF887
:10443000FCC0BCF800C00CF1280C1FFA8CF1DFF8AE
:10444000F4C0BCF800C00CF11E0C1FFA8CF000F098
:1044500042FC66E03B48DFF8E0C00090BCF800C0DA
:104460000CF14F0C1FFA8CF3DFF8C4C0BCF800C08D
:104470000CF1450C1FFA8CF2DFF8BCC0BCF800C090
:104480000CF1280C1FFA8CF1DFF8A4C0BCF800C0B6
:104490000CF11E0C1FFA8CF000F01DFC41E024E032
:1044A0002848DFF894C00090BCF800C00CF14F0C15
:1044B0001FFA8CF3DFF87CC0BCF800C00CF1450C8F
:1044C0001FFA8CF2DFF870C0BCF800C00CF1280CA9
:1044D0001FFA8CF1DFF85CC0BCF800C00CF11E0CB8
:1044E0001FFA8CF000F0F7FB1BE0144D4FF47840FE
:1044F00013498880002411E011484068009015F8A5
:10450000012BE1001E3188B20D490B680193496807
:104510000291BE2100F040FA601C84B2BC42EBDB89
:1045200000BF00BFFEBD0000607A0008060000204A
:104530000000002002000020080000200C000020E5
:1045400028000020D86D00080349086000BF024918
:1045500009680029FBD1704730000020044800683A
:1045600020B103480068401E014908607047000000
:104570003000002000B597B04FF4A16000F086FD38
:1045800040F2056000F082FD40F2066000F07EFD22
:104590004FF4C16000F07AFD4CF20373032218213E
:1045A000224800F09FF94FF680730322182120481B
:1045B00000F098F90423032218211D4800F092F915
:1045C000302303221821194800F08CF9802303229C
:1045D0001821164800F086F90020019002900390FF
:1045E000022004900A2005900220069005200790E2
:1045F0000020089009900A900B900C9001200D90DB
:1046000000200E900F90109011901020129000201A
:104610001390149001A81590169008A800F016F8B1
:10462000012000F007F817B000BD000000140140A1
:1046300000180140C100A1F1C041096841F0010228
:10464000C100A1F1C0410A607047000070B50021AF
:10465000002200230468E400A4F1C0442168414C16
:104660002140D0E90B4544EA4504856A2C43456A5C
:1046700044EA0524056A2C43C56944EA8524856912
:104680002C43456944EA0534056944EA45348568A4
:1046900044EA8534C56844EAC53445682C4321435F
:1046A000446B247E641E04F00F04456B6D696D1E1F
:1046B000F02606EA05152C43456B2D696D1E4FF457
:1046C0007F4606EA05252C43456BAD896D1E4FF4E8
:1046D000702606EA05452C43456BAD682C43456BB7
:1046E0006D682C43456B2D6844EA0502C46A082CAA
:1046F00001D141F040018468012C20D1846B247EDB
:10470000641E04F00F04856B6D696D1EF02606EAC9
:1047100005152C43856B2D696D1E4FF47F4606EA07
:1047200005252C43856BAD896D1E4FF4702606EA76
:1047300005452C43856B2D6844EA050301E06FF0C5
:1047400070430468E400A4F1C04421600468E400FC
:10475000A4F1C04462600468E400A4F1C044C4F859
:10476000043170BD8100F7FF0146002231F81200CC
:104770004B88984200DA012231F812008B88984267
:1047800000DA022231F81200CB88984200DA0322C4
:1047900031F8120000B90422D0B2704710B50446B7
:1047A0000B4931F8140000F071FC0A4951F824302B
:1047B000094951F824000322102100F093F805481C
:1047C00050F82400044951F82410486110BD00003D
:1047D000780000204800002038000020034951F8EC
:1047E0002010034A52F820205161704748000020F1
:1047F00038000020034951F82010034A52F82020C5
:104800001161704748000020380000202F4B1B88A2
:104810004633984212DA2D4B1B881E3398420DDD29
:104820002B4B1B881E33994208DD294B1B884633CE
:10483000994203DA13885B1C138046E0254B1B88E2
:104840004633984212DA234B1B881E3398420DDD03
:104850001F4B1B881E33994208DD1D4B1B884633B6
:10486000994203DA53885B1C53802EE0174B1B8858
:104870004633984212DA154B1B881E3398420DDDE1
:10488000154B1B881E33994208DD134B1B8846339A
:10489000994203DA93885B1C938016E00D4B1B88CA
:1048A0004633984211DA0B4B1B881E3398420CDDBD
:1048B000094B1B881E33994207DD074B1B88463383
:1048C000994202DAD3885B1CD38070470000002035
:1048D000060000200200002008000020416170470F
:1048E00001617047F0B50C4616460025002204F021
:1048F0000F0514F0100F08D0042E05D145F0030564
:10490000C76B1F43C76300E03543002118E0012750
:104910008F401F4212D002684FEA810C0F2707FA1E
:104920000CF7BA438F0005FA07F73A43282C01D158
:10493000436102E0482C00D1036102604F1CB9B210
:104940000829E4D308211CE001278F401F4216D01C
:104950004268A1F108074FEA870C0F2707FA0CF706
:10496000BA43A1F10807BF0005FA07F73A43282C1C
:1049700001D1436102E0482C00D1036142604F1C29
:10498000B9B21029E0D3F0BD02469068084201D0C8
:10499000012070470020FCE70FB42DE9F0470646E0
:1049A0000F46904600250024A146A246BDF82C00E3
:1049B00000284DD100BF48E0A8F1200005EB001011
:1049C0004D4911F80090BDF82E00F0B9002419E00F
:1049D000C4F1070049FA00F010F0010F08D0BDF84B
:1049E00030203B1999B2731B98B200F09EF907E092
:1049F000BDF832203B1999B2731B98B200F095F9BB
:104A0000601C84B2082CE3DB1DE0002419E0C4F133
:104A1000070049FA00F010F0010F08D0BDF830206F
:104A20007B1999B2331998B200F07FF907E0BDF80D
:104A300032207B1999B2331998B200F076F9601CD4
:104A400084B2082CE3DB681C85B2102DB4DB4EE089
:104A5000BDF82C0001284AD1002546E0A8F120002D
:104A600000EB400005EBC000244931F810A0BDF870
:104A70002E00E0B9002417E04AFA04F010F0010F0C
:104A800008D0BDF830203B1999B2731B98B200F0E2
:104A90004CF907E0BDF832203B1999B2731B98B26C
:104AA00000F043F9601C84B2102CE5DB1BE000240D
:104AB00017E04AFA04F010F0010F08D0BDF83020DA
:104AC0007B1999B2331998B200F02FF907E0BDF8BD
:104AD00032207B1999B2331998B200F026F9601C84
:104AE00084B2102CE5DB681C85B2182DB6DBBDE85E
:104AF000F0075DF814FB000000560008005C000899
:104B000030B5044600250021084600F00CF800F0FE
:104B10001AF800BF03E04FF0C24004806D1CB5F5E9
:104B2000963FF8D330BD10B503460C4619464E20CB
:104B300000F050F921464F2000F04CF910BD4FF025
:104B4000C2410880704722204FF0C0410880704762
:104B500000B50121002000F03DF94AF6A401032030
:104B600000F038F900210C2000F034F940F60C0177
:104B70000D2000F02FF94FF42C510E2000F02AF9EF
:104B8000B0211E2000F026F942F63F31012000F04E
:104B900021F94FF4C061022000F01CF9002110201F
:104BA00000F018F946F27001112000F013F900210D
:104BB000052000F00FF90021062000F00BF94EF659
:104BC0001C71162000F006F90321172000F002F9ED
:104BD00040F23321072000F0FDF800210B2000F007
:104BE000F9F800210F2000F0F5F80021412000F035
:104BF000F1F80021422000F0EDF80021482000F0FB
:104C0000E9F840F23F11492000F0E4F800214A2081
:104C100000F0E0F800214B2000F0DCF84FF46F4189
:104C2000442000F0D7F80021452000F0D3F840F2EE
:104C30003F11462000F0CEF840F20771302000F01E
:104C4000C9F84FF40171312000F0C4F84FF401713C
:104C5000322000F0BFF840F20251332000F0BAF8E1
:104C600040F20751342000F0B5F84FF401713520BF
:104C700000F0B0F84FF40171362000F0ABF840F2CC
:104C80000251372000F0A6F840F202313A2000F03D
:104C9000A1F840F202313B2000F09CF800212320D3
:104CA00000F098F80021242000F094F84FF400411F
:104CB000252000F08FF800214E2000F08BF8002115
:104CC0004F2000F087F84CF2503301E0581E83B2B9
:104CD000002BFBDC00BD2DE9F84F04460E461746BD
:104CE0009946DDF828B02546B046381B401CA9EB94
:104CF0000601491C484300904FF0000A10E03BF8C1
:104D0000022B4146284600F010F8681C85B2BD42CF
:104D100004DD08F101001FFA80F825460AF1010AB6
:104D200000988245EBD3BDE8F88F70B506460C4677
:104D30001546F02E02DCB4F5A07F00DD70BD2146E3
:104D40003046FFF7F0FEFFF7FEFE2846FFF7F7FEBE
:104D500000BFF3E72DE9F04706460F469046994617
:104D6000DDF820A034463D4600BF06E05246294605
:104D70002046FFF7DAFF601C84B24445F6DB3D466F
:104D800006E0524629462046FFF7CFFF681C85B251
:104D90004D45F6DB444606E0524629462046FFF7DD
:104DA000C4FF601E84B2B442F6DC4D4606E05246B3
:104DB00029462046FFF7B9FF681E85B2BD42F6DCE2
:104DC000BDE8F08701464FF0C04211804FF0C2426B
:104DD000108870474FF0C04210804FF0C2421180DF
:104DE000704700008AB00020089009900025974B7A
:104DF000D3E90012D3E90203CDE90603CDE9041299
:104E000000264FF48041480300F036F90020FFF7F8
:104E1000C5FC0120FFF7C2FC0220FFF7BFFC032006
:104E2000FFF7BCFC00F014FAFFF7A4FB00F006FB50
:104E30003220FFF789FB0020FFF7C4FF8449088078
:104E4000FFF786FE4FF6FF70FFF75AFE81484FF4DA
:104E50008F73C722C82100902820FFF73CFF1F2036
:104E60004FF49B73E6220A2100900846FFF772FF79
:104E70001F20794988804FF6FF70C8800120488044
:104E800000200880002461E07348406804AB009073
:104E90001A5D724B1B88143399B2714B1B882333F4
:104EA000082707FB043398B26B4B1F6802975B68B7
:104EB00003933B46FFF770FD6748406805AB0090E1
:104EC0001A5D664B1B88143399B2664B1B882333DB
:104ED000082707FB043398B25F4B1F6802975B6893
:104EE00003933B46FFF758FD5B48406806AB0090D4
:104EF0001A5D5D4B1B88143399B2594B1B882333C1
:104F0000082707FB043398B2534B1F6802975B686E
:104F100003933B46FFF740FD4F48406807AB0090C6
:104F20001A5D514B1B88143399B24E4B1B882333A7
:104F3000082707FB043398B2474B1F6802975B684A
:104F400003933B46FFF728FD601C84B2042C9BDBD7
:104F50004648424F00903F884F37BBB2404F3F8892
:104F60004537BAB23D4F3F882837B9B23C4F3F88EA
:104F70001E37B8B2FFF7AFFE3C48384F00903F886D
:104F80004F37BBB2374F3F884537BAB2334F3F88B0
:104F90002837B9B2334F3F881E37B8B2FFF79BFEB0
:104FA0003248314F00903F884F37BBB22C4F3F887B
:104FB0004537BAB22C4F3F882837B9B2284F3F88BF
:104FC0001E37B8B2FFF787FE2848274F00903F886A
:104FD0004F37BBB2234F3F884537BAB2224F3F8885
:104FE0002837B9B21F4F3F881E37B8B2FFF773FE9C
:104FF0002BE000F075FA012811D1681CC5B21C48DD
:10500000008800F0BFF9C0F5A07087B21948008889
:1050100000F0A3F9804608AA3946FFF7F7FB142DE4
:1050200013D108A8FFF7A0FB0646304600F0ABFA04
:105030003046FFF70FF90020ADF82600ADF8240048
:10504000ADF82200ADF820000025D2E7F0550008A9
:1050500026000020E8860008280000200600002026
:10506000000000200200002008000020607A0008F4
:10507000B8000020B6000020024A0A400243024B5A
:105080001A60704780FFFF1F08ED00E0064901EB42
:105090009011096800F01F0301229A401143024A4F
:1050A00002EB9012116070470010024010B50446E8
:1050B00024B120210448FFF713FC03E0202102481B
:1050C000FFF70CFC10BD00000008014010B50446BD
:1050D00024B110210448FFF703FC03E0102102482B
:1050E000FFF7FCFB10BD00000018014010B5402187
:1050F0000148FFF749FC10BD0008014010B5044607
:1051000024B180210448FFF7EBFB03E08021024833
:10511000FFF7E4FB10BD0000000801400020002163
:10512000434A126842F48032414B1A6000BF401C6F
:105130003F4A126802F4003111B9B0F5006FF6D1A0
:105140003B4A126812F4003F01D100BFFEE7384A23
:10515000D26942F08052364BDA61364A126842F424
:105160004042344B1A60324A5268314B5A601A46F8
:1051700052685A601A46526842F480625A601A466F
:1051800052682D4B1A402A4B5A601A4652682B4BD4
:105190001A43274B5A601A46D26A294B1A40244BAD
:1051A000DA621A46D26A274B1A43214BDA621A4650
:1051B000126842F080621A6000BF1D4A126812F045
:1051C000006FFAD01A4A126842F08072184B1A60C7
:1051D00000BF174A126812F0007FFAD0154A126811
:1051E00042F48032134B1A6000BF124A526812F424
:1051F000803FFAD00F4A126842F400320D4B1A6019
:1052000000BF0C4A526812F4003FFAD0084A5268B4
:1052100022F00302064B5A601A46526842F002021C
:105220005A6000BF024A526812F0080FFAD0704765
:105230000010024000700040FFFFC39F00003520B7
:1052400000F0FEBF4906010010B5FFF767FF10BD73
:1052500010B5124800684FF47A71B0FBF1F4601E8B
:10526000B0F1807F01D301200FE0601E4FF0E021FC
:1052700048610F214FF0FF30FEF7A0FF00204FF0F4
:10528000E021886107200861002008B100BFFEE727
:105290000021481EFEF792FF10BD000034000020E0
:1052A00010B500F0FBF808B1002010BD00F03CF98B
:1052B000002000F04AF9D22000F047F900F0F6F89B
:1052C000F3E72DE9F04704460D4600260027B046D7
:1052D000B146D22000F06CF80646922000F068F843
:1052E0000746D22000F064F88046922000F060F873
:1052F0008146B6EB080101D40A4600E04A42062A7C
:1053000007DCB7EB090001D4024600E04242062A5E
:1053100002DD0020BDE8F08706EB080000EBD0714D
:10532000C1F34F01218007EB090000EBD071C1F3FD
:105330004F0129800120EDE710B500F0AFF808B16A
:10534000002010BD00F0F0F8002000F0FEF89220E0
:1053500000F0FBF800F0AAF8F3E7034600BFA3F55E
:10536000967202EB0210C0EB022240F6DE50B2FB56
:10537000F0F081B2002901DDF02901DD0020704745
:105380000846FCE7034600BFA3F1DC02C2EB821033
:1053900000EB022240F62E60B2FBF0F081B2002951
:1053A00002DDB1F5A07F01DD002070470846FCE773
:1053B0002DE9FE430646002400250027A04600BF35
:1053C0000CE0D22E04D1FFF76BFF2DF8140003E0A0
:1053D000FFF7B2FF2DF81400601C84B2052CF0DB3F
:1053E000002416E0601C85B20FE03DF814003DF883
:1053F0001510884207DD3DF814803DF815002DF8A2
:1054000014002DF81580681C85B2052DEDDB601C9D
:1054100084B2042CE6DB0027012405E03DF81400EB
:10542000384487B2601C84B2042CF7DB032097FB5E
:10543000F0F01FFA80F84046BDE8FE8310B540F258
:105440000260FFF723FE40F20660FFF71FFE2023F5
:10545000032210210F48FFF745FA80230322102171
:105460000C48FFF73FFA4023032204210948FFF7C5
:1054700039FA1023032219460748FFF733FA20238D
:10548000032204210448FFF72DFA10210248FFF7F8
:1054900027FA10BD000801400018014010B5202176
:1054A0000148FFF771FA10BD0018014070B50024E3
:1054B000002510E04FF6FF7000EA44040120FFF7DA
:1054C000F5FD0020FFF7F2FDFFF710FE08B1601CAC
:1054D00084B2681CC5B20C2DECDB204670BD000008
:1054E00010B50024FFF7DAFF90B901E0601CC4B2E8
:1054F0000B490C48FFF7E5FE012801D0142CF5DB21
:10550000142C0BDB0020074908800549088010BDDA
:1055100000200449088002490880F8E70120F6E7E6
:10552000B8000020B600002010B50020FFF7BEFD37
:105530000120FFF7CBFD0120FFF7E0FD0120FFF781
:10554000B5FD0020FFF7C2FD10BD70B50646002076
:10555000FFF7ACFD002413E0C4F1070046FA00F0A9
:1055600000F001052846FFF7C9FD0020FFF79EFD6A
:105570000120FFF79BFD0020FFF798FD601CC4B2DF
:10558000082CE9DB70BD10B504460020FFF726F9B2
:105590000120FFF723F90220FFF720F90320FFF78E
:1055A0001DF934B1012C08D0022C0AD0032C10D1E3
:1055B0000BE00020FFF71EF918E00120FFF71AF9B1
:1055C00014E00220FFF716F910E00320FFF712F9AC
:1055D0000CE00020FFF70EF90120FFF70BF9022085
:1055E000FFF708F90320FFF705F900BF00BF10BD62
:1055F0004C4544324C4544334C4544344C45443589
:10560000000000000000000000000000000000009A
:105610000000183C3C3C1818180018180000000046
:105620000066666624000000000000000000000024
:105630000000006C6CFE6C6C6CFE6C6C000000007A
:1056400018187CC6C2C07C0686C67C1818000000EC
:1056500000000000C2C60C183060C68600000000C2
:105660000000386C6C3876DCCCCCCC7600000000C6
:10567000003030306000000000000000000000003A
:1056800000000C18303030303030180C00000000B2
:10569000000030180C0C0C0C0C0C18300000000032
:1056A0000000000000663CFF3C66000000000000B7
:1056B000000000000018187E18180000000000000C
:1056C0000000000000000000001818183000000062
:1056D00000000000000000FE0000000000000000CC
:1056E000000000000000000000001818000000008A
:1056F0000000000002060C183060C08000000000AE
:1057000000007CC6C6CED6D6E6C6C67C0000000029
:1057100000001838781818181818187E00000000B3
:1057200000007CC6060C183060C0C6FE00000000F9
:1057300000007CC606063C060606C67C000000008B
:1057400000000C1C3C6CCCFE0C0C0C1E000000007D
:105750000000FEC0C0C0FC0E0606C67C00000000B3
:1057600000003860C0C0FCC6C6C6C67C0000000091
:105770000000FEC606060C18303030300000000075
:1057800000007CC6C6C67CC6C6C6C67C000000003B
:1057900000007CC6C6C67E0606060C780000000027
:1057A0000000000018180000001818000000000099
:1057B0000000000018180000001818300000000059
:1057C000000000060C18306030180C0600000000C5
:1057D000000000000000FE0000FE000000000000CD
:1057E0000000006030180C060C183060000000004B
:1057F00000007CC6C60C181818001818000000001D
:105800000000007CC6C6DEDEDEDCC07C00000000DE
:10581000000010386CC6C6FEC6C6C6C60000000032
:105820000000FC6666667C66666666FC000000003A
:1058300000003C66C2C0C0C0C0C2663C00000000A0
:105840000000F86C6666666666666CF8000000002C
:105850000000FE6662687868606266FE0000000014
:105860000000FE6662687868606060F0000000001A
:1058700000003C66C2C0C0DEC6C6663A000000003A
:105880000000C6C6C6C6FEC6C6C6C6C60000000024
:1058900000003C18181818181818183C00000000D0
:1058A00000001E0C0C0C0C0CCCCCCC7800000000C2
:1058B0000000E6666C6C78786C6666E600000000B6
:1058C0000000F06060606060606266FE00000000E2
:1058D0000000C6EEFEFED6C6C6C6C6C60000000064
:1058E0000000C6E6F6FEDECEC6C6C6C60000000054
:1058F0000000386CC6C6C6C6C6C66C3800000000BC
:105900000000FC6666667C60606060F0000000007D
:1059100000007CC6C6C6C6C6C6D6DE7C0C0E00001D
:105920000000FC6666667C6C666666E60000000049
:1059300000007CC6C660380C06C6C67C00000000AD
:1059400000007E7E5A1818181818183C0000000035
:105950000000C6C6C6C6C6C6C6C6C67C00000000D5
:105960000000C6C6C6C6C6C6C66C38100000000019
:105970000000C6C6C6C6C6D6D6FE6C6C00000000C7
:105980000000C6C66C6C38386C6CC6C600000000DF
:105990000000666666663C181818183C0000000097
:1059A0000000FEC6860C183060C2C6FE0000000073
:1059B00000003C30303030303030303C00000000EF
:1059C00000000080C0E070381C0E060200000000DD
:1059D00000003C0C0C0C0C0C0C0C0C3C00000000EF
:1059E00010386CC60000000000000000000000003D
:1059F00000000000000000000000000000FF0000A8
:105A0000303018000000000000000000000000001E
:105A10000000000000780C7CCCCCCC7600000000AC
:105A20000000E06060786C66666666DC000000007E
:105A300000000000007CC6C0C0C0C67C00000000A2
:105A400000001C0C0C3C6CCCCCCCCC7600000000D4
:105A500000000000007CC6FEC0C0C67C0000000044
:105A60000000386C6460F060606060F0000000006E
:105A7000000000000076CCCCCCCCCC7C0CCC7800E8
:105A80000000E060606C7666666666E60000000016
:105A900000001818003818181818183C00000000EA
:105AA00000000606000E06060606060666663C00B0
:105AB0000000E06060666C78786C66E600000000CC
:105AC00000003818181818181818183C00000000A2
:105AD0000000000000ECFED6D6D6D6D600000000AE
:105AE0000000000000DC6666666666660000000076
:105AF00000000000007CC6C6C6C6C67C00000000D0
:105B00000000000000DC66666666667C6060F0008F
:105B1000000000000076CCCCCCCCCC7C0C0C1E0061
:105B20000000000000DC7662606060F000000000B1
:105B300000000000007CC660380CC67C000000003D
:105B40000000103030FC30303030361C00000000D7
:105B50000000000000CCCCCCCCCCCC760000000007
:105B6000000000000066666666663C1800000000E3
:105B70000000000000C6C6C6D6D6FE6C00000000BD
:105B80000000000000C66C3838386CC60000000009
:105B90000000000000C6C6C6C6C6C67E060CF800D9
:105BA0000000000000FECC183060C6FE00000000BF
:105BB00000000E18181870181818180E00000000B1
:105BC00000001818181800181818181800000000FD
:105BD0000000701818180E1818181870000000002F
:105BE000000076DC00000000000000000000000063
:105BF0000000000010386CC6C6C6FE0000000000A1
:105C00000000000000000000000000000000000094
:105C10000000000000000000000000000000000084
:105C20000000000000000000000000000000000074
:105C300000008001800180018001800180018001DD
:105C4000800180018001800180018001000000004E
:105C50008001800100000000000000000000000042
:105C600000000000CC00CC00CC00CC00CC00CC006C
:105C70000000000000000000000000000000000024
:105C80000000000000000000000000000000000014
:105C9000000000000000000000000000600C600C2C
:105CA000600C30063006FE1FFE1F30063807180352
:105CB000FE1FFE1F180318038C018C018C010000CD
:105CC00000008000E003F80F9C0E8C1C8C188C00E8
:105CD0009800F801E007800E801C8C188C189C1826
:105CE000B80CF00FE003800080000000000000000E
:105CF0000000000000000E181B0C110C110611060C
:105D0000110311039B018E01C038C06C60446044D4
:105D1000304430441844186C0C3800000000000077
:105D20000000E001F0033807180618063003F00100
:105D3000F000F8009C310E33061E061C061C063FC0
:105D4000FC73F021000000000000000000000000D3
:105D5000000000000C000C000C000C000C000C00FB
:105D60000000000000000000000000000000000033
:105D70000000000000000000000000000000000023
:105D80000000000200038001C000C000600060004D
:105D90003000300030003000300030003000300083
:105DA00060006000C000C00080010003000200002D
:105DB000000020006000C00080018001000300039B
:105DC00000060006000600060006000600060006A3
:105DD0000003000380018001C0006000200000007B
:105DE000000000000000000000000000C000C00033
:105DF000D806F807E0013003380700000000000073
:105E00000000000000000000000000000000000092
:105E10000000000000000000000000008001800180
:105E2000800180018001FC3FFC3F800180018001F6
:105E30008001800100000000000000000000000060
:105E40000000000000000000000000000000000052
:105E50000000000000000000000000000000000042
:105E600000008001800100010001800000000000AE
:105E70000000000000000000000000000000000022
:105E80000000000000000000E007E0070000000044
:105E90000000000000000000000000000000000002
:105EA00000000000000000000000000000000000F2
:105EB00000000000000000000000000000000000E2
:105EC0000000C000C0000000000000000000000052
:105ED0000000000C000C0006000600060003000392
:105EE00000038003800180018001C000C000C00069
:105EF00060006000000000000000000000000000E2
:105F00000000E003F007380E180C0C180C180C18E1
:105F10000C180C180C180C180C180C18180C380E3F
:105F2000F007E00300000000000000000000000097
:105F3000000000018001C001F0019801880180018A
:105F40008001800180018001800180018001800149
:105F5000800180010000000000000000000000003F
:105F60000000E003F80F180C0C180C1800180018AB
:105F7000000C000600038001C00060003000180023
:105F8000FC1FFC1F000000000000000000000000DB
:105F90000000E001F807180E0C0C0C0C000C0006B9
:105FA000C003C007000C001800180C180C18180CBF
:105FB000F807E003000000000000000000000000FF
:105FC0000000000C000E000F000F800DC00C600CD4
:105FD000600C300C180C0C0CFC3FFC3F000C000C4F
:105FE000000C000C00000000000000000000000099
:105FF0000000F80FF80F180018000C00EC03FC0765
:106000001C0E001C0018001800180C181C0C180E90
:10601000F807E0030000000000000000000000009E
:106020000000C007F00F381C181818000C00CC0333
:10603000EC0F3C0E1C1C0C180C180C18181C380EFD
:10604000F007E00300000000000000000000000076
:106050000000FC1FFC1F000C00060006000380036C
:106060008001C001C000E0006000600070003000EE
:1060700030003000000000000000000000000000C0
:106080000000E003F007380E180C180C180C380646
:10609000F007F007180C0C180C180C180C18380C1A
:1060A000F80FE00300000000000000000000000006
:1060B0000000E003F007380E1C0C0C180C180C182C
:1060C0001C1C381EF81BE0190018000C000C1C0EDC
:1060D000F807F001000000000000000000000000D0
:1060E00000000000000000000000000080018001AE
:1060F00000000000000000000000000000000000A0
:10610000800180010000000000000000000000008D
:10611000000000000000000000000000800180017D
:10612000000000000000000000000000000000006F
:1061300080018001000100018000000000000000DB
:10614000000000000000000000000000000000004F
:106150000010001C800FE003F8001800F800E003B6
:10616000800F001C00100000000000000000000074
:10617000000000000000000000000000000000001F
:10618000F81F000000000000F81F000000000000E1
:1061900000000000000000000000000000000000FF
:1061A00000000000000000000000000000000000EF
:1061B00008003800F001C007001F0018001FC007CA
:1061C000F00138000800000000000000000000009E
:1061D0000000E003F80F180C0C180C180018000C45
:1061E000000600038001C000C000C00000000000E5
:1061F000C000C0000000000000000000000000001F
:1062000000000000E00718180420C229224A1144A7
:1062100009440944094409221113E20C02400420F4
:106220001818E00700000000000000000000000057
:10623000000080038003C006C006C006600C600C2E
:10624000301830183018F83FF83F1C700C600C60A4
:1062500006C006C0000000000000000000000000B2
:106260000000FC03FC0F0C0C0C180C180C180C0C88
:10627000FC07FC0F0C180C300C300C300C300C18D8
:10628000FC1FFC07000000000000000000000000F0
:106290000000C007F01F38381C300C700660060084
:1062A0000600060006000600060006600C701C30A2
:1062B000F01FE007000000000000000000000000E8
:1062C0000000FE03FE0F060E061806180630063004
:1062D0000630063006300630063006180618060E60
:1062E000FE0FFE03000000000000000000000000A0
:1062F0000000FC3FFC3F0C000C000C000C000C00EC
:10630000FC1FFC1F0C000C000C000C000C000C000F
:10631000FC3FFC3F00000000000000000000000007
:106320000000F83FF83F1800180018001800180087
:10633000F81FF81F1800180018001800180018009F
:10634000180018000000000000000000000000001D
:106350000000E00FF83F3C780E6006E007C0030045
:10636000030003FE03FE03C007C006C00EC03CF0DE
:10637000F83FE00F000000000000000000000000F7
:1063800000000C300C300C300C300C300C300C3069
:10639000FC3FFC3F0C300C300C300C300C300C301F
:1063A0000C300C3000000000000000000000000075
:1063B0000000800180018001800180018001800156
:1063C00080018001800180018001800180018001C5
:1063D00080018001000000000000000000000000BB
:1063E0000000000600060006000600060006000683
:1063F0000006000600060006000618061806380704
:10640000F003E001000000000000000000000000B8
:10641000000006300618060C060606038601C600B4
:1064200066007600DE008E0106030606060C0618DE
:1064300006300660000000000000000000000000C0
:1064400000001800180018001800180018001800A4
:10645000180018001800180018001800180018007C
:10646000F81FF81F000000000000000000000000FE
:1064700000000EE01EF01EF01EF036D836D836D8DA
:1064800036D866CC66CC66CCC6C6C6C6C6C6C6C638
:1064900086C386C30000000000000000000000006A
:1064A00000000C301C303C303C306C306C30CC3058
:1064B000CC308C310C330C330C360C360C3C0C3C91
:1064C0000C380C300000000000000000000000004C
:1064D0000000E007F81F1C380E70066003C003C000
:1064E00003C003C003C003C003C006600E701C38A5
:1064F000F81FE0070000000000000000000000009E
:106500000000FC0FFC1F0C380C300C300C300C3031
:106510000C18FC1FFC070C000C000C000C000C00FD
:106520000C000C0000000000000000000000000053
:106530000000E007F81F1C380E70066003E003C07F
:1065400003C003C003C003C007E006630E3F1C3C4A
:10655000F83FE0F700C0000000000000000000006D
:106560000000FE0FFE1F06380630063006300638E3
:10657000FE1FFE0706030606060C06180618063060
:10658000063006600000000000000000000000006F
:106590000000E003F80F1C0C0C180C180C001C0079
:1065A000F803E00F001E0038063006300E301C1CC9
:1065B000F80FE007000000000000000000000000ED
:1065C0000000FE7FFE7F800180018001800180014C
:1065D00080018001800180018001800180018001B3
:1065E00080018001000000000000000000000000A9
:1065F00000000C300C300C300C300C300C300C30F7
:106600000C300C300C300C300C300C300C301818B6
:10661000F81FE0070000000000000000000000007C
:10662000000003600630063006300C180C180C18F9
:10663000180C180C380E3006300670076003600323
:10664000C001C001000000000000000000000000C8
:1066500000000360C361C361C361663366336633A0
:106660006633663366336C1B6C1B6C1B2C1A3C1E2A
:10667000380E380E0000000000000000000000008E
:1066800000000FE00C7018303018700C600EC0075E
:1066900080038003C003E006700C301C18180C3017
:1066A0000E6007E000000000000000000000000095
:1066B000000003C006600C301C383818300C60062F
:1066C000E007C0038001800180018001800180011A
:1066D00080018001000000000000000000000000B8
:1066E0000000FC7FFC7F006000300018000C0006FA
:1066F00000038001C0006000300018000C0006009C
:10670000FE7FFE7F0000000000000000000000008F
:106710000000E003E00360006000600060006000D3
:106720006000600060006000600060006000600069
:1067300060006000600060006000E003E0030000B3
:10674000000030003000600060006000C000C00049
:10675000C000C0018001800180010003000300032C
:10676000000600060000000000000000000000001D
:106770000000E003E0030003000300030003000344
:1067800000030003000300030003000300030003F1
:1067900000030003000300030003E003E003000024
:1067A00000000000C001C001600360036003300608
:1067B0003006180C180C000000000000000000005B
:1067C00000000000000000000000000000000000C9
:1067D00000000000000000000000000000000000B9
:1067E00000000000000000000000000000000000A9
:1067F0000000FFFFFFFF000000000000000000009D
:1068000000000C000C000C000C000C000C00000040
:106810000000000000000000000000000000000078
:106820000000000000000000000000000000000068
:10683000000000000000000000000000F003F80766
:106840001C0C0C0C000FF00FF80C0C0C0C0C1C0F9B
:10685000F80FF01800000000000000000000000029
:10686000000018001800180018001800D803F80FCE
:10687000380C181818181818181818181818380C70
:10688000F80FD80300000000000000000000000026
:10689000000000000000000000000000C003F0073E
:1068A000300E180C1800180018001800180C300EC4
:1068B000F007C0030000000000000000000000001E
:1068C000000000180018001800180018C01BF01F66
:1068D000301C181818181818181818181818301C00
:1068E000F01FC01B000000000000000000000000BE
:1068F000000000000000000000000000C003F00FD6
:10690000300C1818F81FF81F180018003818301C21
:10691000F00FC007000000000000000000000000B1
:106920000000800FC00FC000C000C000F007F007DB
:10693000C000C000C000C000C000C000C000C00057
:10694000C000C000000000000000000000000000C7
:10695000000000000000000000000000E00DF80F43
:10696000180E0C0C0C0C0C0C0C0C0C0C0C0C180E4B
:10697000F80FE00D000C0C0C1C06F807F0010000ED
:10698000000018001800180018001800D807F80FA9
:10699000381C181818181818181818181818181853
:1069A0001818181800000000000000000000000087
:1069B0000000C000C000000000000000C000C000D7
:1069C000C000C000C000C000C000C000C000C000C7
:1069D000C000C00000000000000000000000000037
:1069E0000000C000C000000000000000C000C000A7
:1069F000C000C000C000C000C000C000C000C00097
:106A0000C000C000C000C000C000F8007800000056
:106A100000000C000C000C000C000C000C0C0C0610
:106A20000C038C01CC006C00FC009C018C030C035B
:106A30000C060C0C0000000000000000000000002C
:106A40000000C000C000C000C000C000C000C00006
:106A5000C000C000C000C000C000C000C000C00036
:106A6000C000C000000000000000000000000000A6
:106A70000000000000000000000000007C3CFF7EE1
:106A8000C7E383C183C183C183C183C183C183C180
:106A900083C183C10000000000000000000000006E
:106AA0000000000000000000000000009807F80F40
:106AB000381C181818181818181818181818181832
:106AC0001818181800000000000000000000000066
:106AD000000000000000000000000000C003F00FF4
:106AE000300C181818181818181818181818300C0E
:106AF000F00FC003000000000000000000000000D4
:106B0000000000000000000000000000D803F80FA3
:106B1000380C181818181818181818181818380CCD
:106B2000F80FD8031800180018001800180000000B
:106B3000000000000000000000000000C01BF01F6B
:106B4000301C181818181818181818181818301C8D
:106B5000F01FC01B001800180018001800180000D3
:106B6000000000000000000000000000B007F0037B
:106B70007000300030003000300030003000300055
:106B800030003000000000000000000000000000A5
:106B9000000000000000000000000000E003F0031F
:106BA000380E180C3800F003C007000C180C380E13
:106BB000F007E003000000000000000000000000FB
:106BC000000000008000C000C000C000F007F00717
:106BD000C000C000C000C000C000C000C000C000B5
:106BE000C007800700000000000000000000000057
:106BF0000000000000000000000000001818181835
:106C00001818181818181818181818181818381CE0
:106C1000F01FE0190000000000000000000000006C
:106C20000000000000000000000000000C18180C1C
:106C3000180C180C30063006300660036003600341
:106C4000C001C001000000000000000000000000C2
:106C5000000000000000000000000000C141C14130
:106C6000C3616363636363633636363636361C1C32
:106C70001C1C1C1C000000000000000000000000A4
:106C80000000000000000000000000001C38381C5C
:106C9000300C600660036003600360036006300C24
:106CA000381C1C380000000000000000000000003C
:106CB0000000000000000000000000001830301844
:106CC00030187018600C600CE00CC006C006800321
:106CD0008003800380018001C001F000700000008B
:106CE000000000000000000000000000FC1FFC1F6E
:106CF000000C000600038001C00060003000180096
:106D0000FC1FFC1F0000000000000000000000004D
:106D1000000000038001C000C000C000C000C0002F
:106D2000C00060006000300060004000C000C00093
:106D3000C000C000C000C0008001000300000000CF
:106D400000008001800180018001800180018001BC
:106D5000800180018001800180018001800180012B
:106D6000800180018001800180018001800100009C
:106D700000006000C000C00180018001800180012E
:106D80008001000300030006000300018001800170
:106D90008001800180018001C000600000000000CF
:106DA00000000000000000000000000000000000E3
:106DB000F010F81F080F00000000000000000000A5
:106DC00000000000000000000000000000000000C3
:106DD000001028002800011BFFFFFFFFFFFFFFFF3F
:106DE000FFFFFFFFFFFFFFFFFFFFFFFFFFFFFFFFB3
:106DF000FFFFFFFFFFFFFFFFFFFFFFFFFFFFFFFFA3
:106E0000FFFFFFFFFFFFFFFFFFFFFFFFFFFFFFFF92
:106E1000FFFFFFFFFFFFFFFFFFFFFFFFFFFFFFFF82
:106E2000FFFFFFFFFFFFFFFFFFFFFFFFFFFFFFFF72
:106E3000FFFFFFFFFFFFFFFFFFFFFFFFFFFFFFFF62
:106E4000FFFFFFFFFFFF3BFFD8FE76FE34F614F690
:106E500014F6F4F515F697FE3BFFFFFFFFFFFFFF6B
:106E6000FFFFFFFFFFFFFFFFFFFFFFFFFFFFFFFF32
:106E7000FFFFFFFFFFFFFFFFFFFFFFFFFFFFFFFF22
:106E8000FFFFFFFFFFFFFFFFFFFFFFFFFFFFFFFF12
:106E90007DFFF2F58EF54BEDC9EC47ECC5EBA5EBAC
:106EA00064EB24EB04EB25EB67EB0AEC0FF57CFFBE
:106EB000FFFFFFFFFFFFFFFFFFFFFFFFFFFFFFFFE2
:106EC000FFFFFFFFFFFFFFFFFFFFFFFFFFFFFFFFD2
:106ED000FFFFFFFFFFFFFFFFFFFFFFFFBFFFEBEC29
:106EE00029EDAAED6AED2AEDE9ECA9EC48EC08ECF5
:106EF000C7EBA7EB66EB25EBE5EAA4EA63EA42EA17
:106F000046EB7CFFFFFFFFFFFFFFFFFFFFFFFFFFE1
:106F1000FFFFFFFFFFFFFFFFFFFFFFFFFFFFFFFF81
:106F2000FFFFFFFFFFFFFFFFBEFF90F504EC4AED00
:106F30006BED6BED4AED0AEDC9EC89EC48EC07EC22
:106F4000C7EB86EB66EB26EB06EBE5EAC5EAA4EABF
:106F500023EA80E94CF47CFFFFFFFFFFFFFFFFFF08
:106F6000FFFFFFFFFFFFFFFFFFFFFFFFFFFFFFFF31
:106F7000FFFFFFFFFFFFF9FE8AEC26ECC9EC0AEDEC
:106F80000AED0AED0AEDC9ECA9EC68EC28ECE7EB98
:106F9000A7EB86EB46EB26EB05EBE5EAC5EAA4EAB0
:106FA00084EA64EAC1E9A5EA35FEFFFFFFFFFFFFBF
:106FB000FFFFFFFFFFFFFFFFFFFFFFFFFFFFFFFFE1
:106FC000FFFFFFFFD9FEA6EBE6EB69EC89ECA9EC2D
:106FD000C9ECC9ECC9EC89EC68EC48EC08ECC7EBEF
:106FE000A7EB66EB46EB26EB05EBC5EAA5EAA4EAC0
:106FF00084EA64EA44EAE2E9C1E914F6FFFFFFFF2C
:10700000FFFFFFFFFFFFFFFFFFFFFFFFFFFFFFFF90
:10701000FFFFD9FE65EBA6EB08EC28EC48EC68EC2A
:1070200069EC89EC68EC48EC28EC08ECC7EBA7EBC2
:1070300086EB66EB26EB05EBE5EAC5EAA5EA84EA12
:1070400064EA64EA44EA43EA03EAA1E9F4F5FFFFEB
:10705000FFFFFFFFFFFFFFFFFFFFFFFFFFFFFFFF40
:10706000BEFFC8EB25EBA7EBC7EBE7EB08EC28EC82
:1070700028EC28EC28EC08ECE7EBC7EBA7EB86EB59
:1070800066EB46EB05EB05EBE5EAC5EAA4EA84EA24
:1070900064EA44EA44EA23EA23EAC2E943EA3BFF1A
:1070A000FFFFFFFFFFFFFFFFFFFFFFFFFFFFFFFFF0
:1070B00030F5A3EA66EB86EBA7EBC7EBC7EBE7EB94
:1070C000E7EBE7EBE7EBC7EBC7EBA7EB86EB66EB92
:1070D00046EB26EB05EBE5EAC5EAA5EA84EA84EA95
:1070E00064EA44EA44EA23EA03EA03EA60E9CAEB11
:1070F000FFFFFFFFFFFFFFFFFFFFFFFFFFFFFFFFA0
:1071000020EA06EB46EB46EB86EB87EBA7EBA7EB1B
:10711000A7EBC7EBA7EBA7EB86EB86EB66EB46EBA3
:1071200026EB05EBE5EAC5EAC5EAA4EA84EA64EAE7
:1071300064EA44EA24EA23EA03EA03EAE3E920E111
:107140005CFFFFFFFFFFFFFFFFFFFFFFFFFF0FF5EC
:1071500042EA05EB05EB26EB46EB46EB66EB66EB0E
:1071600066EB66EB66EB66EB46EB46EB46EB06EB57
:1071700005EBE5EAC5EAC5EAA4EA84EA64EA64EA5A
:1071800044EA43EA23EA03EA03EAE3E9E3E961E9DB
:1071900088EBFFFFFFFFFFFFFFFFFFFFFFFFE5EAB9
:1071A000A4EAE5EAE5EA05EB25EB26EB46EB46EB40
:1071B00046EB46EB46EB46EB26EB25EB05EB05EB0A
:1071C000E5EAC5EAA5EAA5EAA4EA84EA64EA64EA8B
:1071D00044EA24EA23EA03EA03EAE3E9E3E9E3E928
:1071E000E1E9FFFFFFFFFFFFFFFFFFFFFFFF43EAB4
:1071F000A4EAC5EAC5EAE5EA05EB05EB25EB25EBD4
:1072000026EB26EB26EB25EB05EB05EBE5EAE5EABD
:10721000C5EAA5EAA5EA84EA84EA64EA64EA44EAFB
:1072200024EA23EA23EA03EA03EAE3E903EAE3E9D7
:10723000C2E91AFFFFFFFFFFFFFFFFFFFAEE43EA7D
:10724000A4EAA5EAC5EAC5EAC5EAE5EAE5EA05EB86
:1072500005EB05EB05EBE5EAE5EAE5EAC5EAC5EA93
:10726000A4EAA5EA84EA84EA64EA64EA44EA43EA2E
:1072700023EA23EA03EA03EAE3E903EA03EAE3E9A8
:1072800081E9D5EDFFFFFFFFFFFFFFF758DE23EA9F
:1072900084EA84EAA4EAA5EAC5EAC5EAC5EAC5EA39
:1072A000C5EAE5EAC5EAC5EAC5EAC5EAA5EAA5EA86
:1072B000A4EA84EA84EA64EA64EA44EA44EA23EA5F
:1072C00023EA03EA03EAE3E9E3E9E3E9E3E9E3E9DB
:1072D000A1E953DDFFF7FFFFFFFF9EE738C643EA52
:1072E00064EA84EAA4EAA5EAA4EAC5EAC5EAC5EA2A
:1072F000C5EAC5EAC5EAA5EAA5EAA4EAA5EA84EAD8
:1073000084EA64EA64EA64EA44EA44EA23EA23EAAF
:1073100003EA03EA03EAE3E9E3E9E3E9E3E9E3E9AA
:10732000A2E933CD9FE7FFFFFFFF1CDF39BE83EAF1
:1073300064EA84EA84EAA4EAA4EAA5EAA5EAA5EA5A
:10734000A5EAA5EAA5EAA5EAA4EAA4EA84EA84EA09
:1073500084EA64EA64EA44EA44EA44EA24EA23EA7E
:1073600003EA03EAE3E9E3E9E3E9E3E9E3E9E3E97B
:10737000C2E975CDFDCEFFFFDFFF5AC63BB6C4EABA
:1073800044EA84EA84EA84EAA5EAA4EAA4EAA4EA4C
:10739000A4EAA4EAA4EAA4EA84EA84EA84EA64EA1D
:1073A00064EA64EA44EA44EA23EA23EA23EA03EAD1
:1073B00003EAE3E903EAE3E9E3E9E3E903EAE3E90A
:1073C000C2E9B7BD5ABEDFFFDFFFD8B57CA663EACE
:1073D000A4EA84EA84EAA5EAA4EAA4EAA4EAA4EA7C
:1073E000A4EAA5EAA4EA84EA84EA84EA84EA64EAEC
:1073F00064EA44EA44EA44EA23EA23EA03EA03EAC1
:1074000003EAE3E903EAE3E9E3E903EAE3E903EA98
:10741000C2E1F9B5B8ADBEF7BFF797AD3B9E24E228
:1074200005EB84EAA4EAA5EAA5EAA5EAA5EAA5EAA5
:10743000A5EAA4EAA4EA84EA84EA84EA64EA64EABB
:1074400064EA64EA44EA44EA23EA23EA03EA03EA50
:1074500003EA03EA03EAE3E9E3E9E3E903EA23EA07
:1074600081E11AA677A5BEF7BEF776A5FA9D86D26A
:1074700063F205EBA4EAC5EAC5EAC5EAC5EAC5EACE
:10748000A5EAA5EAA5EAA4EA84EA84EA64EA64EA49
:1074900064EA64EA44EA44EA23EA23EA03EA03EA00
:1074A00003EA03EA03EAE3E903EA03EA23F2C3D9BE
:1074B000A2D91A96369DBEF79EF756A5B99D4BBB2D
:1074C000C1F105EB05EBE5EAE5EAE5EAC5EAC5EA5F
:1074D000C5EAC5EAA5EAA5EA84EA84EA84EA64EA98
:1074E00064EA44EA44EA44EA24EA23EA23EA03EAAF
:1074F00003EA03EAE3E9E3E9E3E903F2E3D941C993
:1075000066C2F995369D9EF79EF7359D98A53194F4
:10751000A0F944EA66EB26EBE5EA05EB05EB05EBA3
:10752000E5EAC5EAC5EAA5EAA4EA84EA84EA84EAC7
:1075300064EA44EA44EA44EA24EA24EA23EA03EA5D
:1075400003EA03EAE3E9E3E923F2E3E163B120D1EB
:107550006D9BB89D56A59EF79EF7359D77A5159511
:10756000E2D923F264EAA7EB66EB46EB66EB46EB67
:1075700026EBE5EAC5EAA5EAA4EAA4EA84EA84EAF5
:1075800064EA64EA44EA44EA44EA23EA23EA03EACE
:1075900003EA03EAE3E923FAE3D903A143B100C90B
:1075A000938C97A576ADBEF7DFFF55A5569D76A5C2
:1075B0000BA302FA44EA64EA66EBC7EBC7EBA7EB5E
:1075C00066EB26EBC5EAC5EAC5EAA4EAA5EA84EAC1
:1075D00084EA64EA64EA44EA44EA43EA24EA03EA1D
:1075E00003EA03F203F283C1E29023A101C14892AE
:1075F000369D77A5D8BDDEFFFFFFD7BD369D77A5A9
:1076000031A466C223F264EA84EAE5EAC7EBE7EB59
:10761000A7EB46EBE5EAE5EAC5EAC5EAA5EAA4EA8E
:1076200084EA84EA64EA64EA44EA24EA23EA43F264
:1076300023F2C3D1E290A280029902A964A1CF8B68
:1076400036A5B8AD9ACEDFFFFFFF99D656A598A50F
:10765000B3ACAE9B23DA64F2A4EAA5EAC5EA26EB52
:1076600066EB66EB46EBE5EAC5EAC5EAA4EA84EA1E
:1076700084EA64EA64EA64F264F284FA23E2A3C16D
:1076800023A18270A280E290029902A90C83529CED
:1076900077A559C6DBDEFFFFFFFF5DEF56A5F9B505
:1076A000D4AC71B46D8B02F284F2A5EAC5EAC5EAE6
:1076B000A5EAA5E284E2C5E205EB05EB25EB25F39F
:1076C00005F3E5F2A4EA44DAC3C12399C388A28092
:1076D0008278A280C288E29080A0CB7A319C729C92
:1076E00019BE7ACE3CEFFFFFFFFFFFFF58CEB8ADCB
:1076F00039C671B492BC6E8B64DA84F2C5F2C5EA05
:10770000A5EA84EA44E203DAC3D183C962C102B1C3
:1077100002A1E298C290C288C288C288C288A288A8
:10772000C280A280A288A290EC72529C119C97AD5C
:1077300039C69ACEFFFFFFFFFFFFFFFFBEF796ADF2
:107740007AC618CE30B450BCAE9BA7BA84E2A4FA75
:10775000A4EA64E244E223DAE3D1C3D1A3C163B96A
:1077600043B123A903A10299E390C390C288C288C0
:107770008288818045790D7BF09B10A4D4A496ADBE
:10778000F8BD9EF7FFFFFFFFFFFFFFFFFFFF3CE796
:10779000B7B51DD7BBDE0FBCCEB3EFAB2BA365C215
:1077A00063EA63F244E204DAE3D1C3D1A3C963B963
:1077B00043B123A923A10299E298E290A2906188A3
:1077C00003796A7A6E8BCF9B11A4728CB38C35A52A
:1077D0003CE7FFFFFFFFFFFFFFFFFFFFFFFFFFFF94
:1077E000BAD618BE7EE7BEEF55CDD2CCB2CC8DB3A3
:1077F0000BA367AA03D2E2E9C2D9A3D182C962C1AD
:1078000042B922A902A9E2A0A198C28865796A7A40
:107810002D8B8F93AFA311A48F6BD06B928CDBDE7B
:10782000FFFFFFFFFFFFFFFFFFFFFFFFFFFFFFFF68
:10783000FFFFDADE59C69EEFFFFFFFFF18E6EEC33B
:107840008CC38DBB6CABEB9A88A247AAE5A9C5A1F6
:10785000A5A1A591C68907828A7AEC822D934EA3B1
:107860008EA38F934E73293A8B4A728C3CE7FFFFAD
:10787000FFFFFFFFFFFFFFFFFFFFFFFFFFFFFFFF18
:10788000FFFFFFFF1BE779CE7DEFFFFFFFFFFBEE62
:1078900095DD91CC8CCBE9C2EABAEABACAAAA9AA08
:1078A000A9A2AAA2AA9AAAA2CBA26EABAF9B6E83F0
:1078B0002D6B6A426629093AB394BEF7FFFFFFFFBA
:1078C000FFFFFFFFFFFFFFFFFFFFFFFFFFFFFFFFC8
:1078D000FFFFFFFFFFFF9EF79AD6BAD6FFFFFFFF1D
:1078E000FFFF7EEFDBDE39D655CDB2C42FC4EFC328
:1078F000EEBBEFB3F0AB109C118C6E6B0D5BAB4A23
:10790000E8310419EC5A38C6FFFFFFFFFFFFFFFF05
:10791000FFFFFFFFFFFFFFFFFFFFFFFFFFFFFFFF77
:10792000FFFFFFFFFFFFFFFFFFFF7DEF38C6FBDE1E
:10793000BEF77EEF3DDFFCCE9BC63AB6D8A5779D5D
:10794000D58C737CB06B4F630D53AC526B4A29429C
:107950000C6399D6FFFFFFFFFFFFFFFFFFFFFFFF55
:10796000FFFFFFFFFFFFFFFFFFFFFFFFFFFFFFFF27
:10797000FFFFFFFFFFFFFFFFFFFFFFFFFFFF7DEFA9
:10798000BAD69AD6BAD67ACE19BED8B576A5F59417
:10799000938C127CB06BB06BAF73318455AD1CE728
:1079A000FFFFFFFFFFFFFFFFFFFFFFFFFFFFFFFFE7
:1079B000FFFFFFFFFFFFFFFFFFFFFFFFFFFFFFFFD7
:1079C000FFFFFFFFFFFFFFFFFFFFFFFFFFFFFFFFC7
:1079D000FFFFFFFF9DF73CE71CE7DBDE9AD67ACE80
:1079E00059CE59CE9AD6FBDE7DEFFFFFFFFFFFFF9A
:1079F000FFFFFFFFFFFFFFFFFFFFFFFFFFFFFFFF97
:107A0000FFFFFFFFFFFFFFFFFFFFFFFFFFFFFFFF86
:107A1000FFFFFFFFFFFFFFFFFFFFFFFFFFFFFFFF76
:107A2000FFFFFFFFFFFFFFFFFFFFFFFFFFFFFFFF66
:107A3000FFFFFFFFFFFFFFFFFFFFFFFFFFFFFFFF56
:107A4000FFFFFFFFFFFFFFFFFFFFFFFFFFFFFFFF46
:107A5000FFFFFFFFFFFFFFFF001028002800011BB2
:107A6000FFFFFFFFFFFFFFFFFFFFFFFFFFFFFFFF26
:107A7000FFFFFFFFFFFFFFFFFFFFFFFFFFFFFFFF16
:107A8000FFFFFFFFFFFFFFFFFFFFFFFFFFFFFFFF06
:107A9000FFFFFFFFFFFFFFFFFFFFFFFFFFFFFFFFF6
:107AA000FFFFFFFFFFFFFFFFFFFFFFFFFFFFFFFFE6
:107AB000FFFFFFFFFFFFFFFFFFFFFFFFFFFFFFFFD6
:107AC000FFFFFFFFFFFFFFFFFFFFFFFFFFFFFFFFC6
:107AD000DCEFB8DF95D774CF73CF75D797DFDBEFC7
:107AE000FFFFFFFFFFFFFFFFFFFFFFFFFFFFFFFFA6
:107AF000FFFFFFFFFFFFFFFFFFFFFFFFFFFFFFFF96
:107B0000FFFFFFFFFFFFFFFFFFFFFFFFFFFFFFFF85
:107B1000FFFFFFFFFFFFFFFFFFFF95D74DC707B731
:107B200008B708AF08A7E79EC796C68EA586A57EAC
:107B3000A47EE99653C7FEFFFFFFFFFFFFFFFFFF95
:107B4000FFFFFFFFFFFFFFFFFFFFFFFFFFFFFFFF45
:107B5000FFFFFFFFFFFFFFFFFFFFFFFFFFFFFFFF35
:107B6000FFFFFFFFDDF74FC728BF6AD74BCF4BC7DB
:107B70002ABF2AB709AFE9A6E89EC896C78EA7868E
:107B8000A786A67E8576836EEA96DBEFFFFFFFFF72
:107B9000FFFFFFFFFFFFFFFFFFFFFFFFFFFFFFFFF5
:107BA000FFFFFFFFFFFFFFFFFFFFFFFFFFFFFFFFE5
:107BB000FFFF50C707AF4AC74BCF4BCF4BC72ABFBA
:107BC0002AB709AF09A7E8A6E89EC896C78EA78678
:107BD000A786A67EA67E8676856E6366EC9EFFFFF0
:107BE000FFFFFFFFFFFFFFFFFFFFFFFFFFFFFFFFA5
:107BF000FFFFFFFFFFFFFFFFFFFFFFFFFFFFFDF79F
:107C0000E8A608AF2AB72ABF2ABF2AC72ABF2ABFB9
:107C10000AB709AF09A7E89EE896C896C78EC78637
:107C2000A786A77E867E86768676866E6466646E76
:107C3000BAE7FFFFFFFFFFFFFFFFFFFFFFFFFFFFB1
:107C4000FFFFFFFFFFFFFFFFFFFFFFFFDBEFC5961B
:107C5000E8A609AF09B72AB72AB72AB72AB70AB7D9
:107C600009AF09A7E9A6E89EC896C78EC78EA78662
:107C7000A786A67EA67E86768676866E856E6566E5
:107C8000425E97D7FFFFFFFFFFFFFFFFFFFFFFFFF2
:107C9000FFFFFFFFFFFFFFFFFFFFDDF7A58EE89E61
:107CA000E89E09A709AF09AF09AF09AF09AF09AF4E
:107CB00009A7E9A6E89EE896C896C78EA786A78674
:107CC000A77EA67EA67686768676866E866E656E9C
:107CD00065664256B9E7FFFFFFFFFFFFFFFFFFFFAB
:107CE000FFFFFFFFFFFFFFFFFFFFC68EC78EC89697
:107CF000E89EE89EE9A609A709A709A709A7E9A69A
:107D0000E89EE89EE896C896C78EC78EA786A78687
:107D1000A67EA67E867686768676866E856E856E4D
:107D200065666566635EFFFFFFFFFFFFFFFFFFFF06
:107D3000FFFFFFFFFFFFFFFF30B7A686C78EC89685
:107D4000C896E896E89EE89EE89EE89EE89EE89E33
:107D5000E89EC896C896C78EC78EA786A786A77EB8
:107D6000A67EA67686768676866E856E656E856E2E
:107D700065666566445ECA8EFFFFFFFFFFFFFFFF7B
:107D8000FFFFFFFFFFFFFFFF8476A786C78EC78E2A
:107D9000C88EC896C896E896E896E896E896C8967B
:107DA000C896C88EC78EC78EA786A786A77EA67ED2
:107DB000867E867686768676866E856E656E656646
:107DC0006566656665664256BAE7FFFFFFFFFFFF1F
:107DD000FFFFFFFFFFFF52BF8576A786A786C786F6
:107DE000C78EC78EC78EC88EC896C896C88EC78ED7
:107DF000C78EC78EC78EA786A786A77EA67EA67EBD
:107E0000867686768676866E856E656E856E656606
:107E1000656665666566445EEC9EFFFFFFFFFFFFDB
:107E2000FFFFFFFFFFFFC88E867EA77EA786A7867F
:107E3000A786C786C78EC78EC78EC78EC78EC78ECA
:107E4000C786A786A786A786A77EA67EA67EA676D5
:107E5000867686768676866E856E656E65666566DE
:107E6000656665666566655E6366FFFFFFFFFFFF2B
:107E7000FFFFFFFFFFFF636E867EA67EA67EA77EC6
:107E8000A786A786A786A786A786A786A786A7868A
:107E9000A786A786A77EA77EA67EA67E86768676FE
:107EA00086768676866E856E656E856E6566656697
:107EB0006566656665666566435EDCEFFFFFFFFF2E
:107EC000FFFFFFFF7CEF846E8676A67EA67EA67EF1
:107ED000A67EA77EA77EA786A786A786A786A77E5B
:107EE000A77EA67EA67EA67E867E86768676867609
:107EF0008676866E866E656E856E65666566656677
:107F00006566656665666566435E37CFFFFFFFFFA2
:107F1000FFFFFFFFB9CE846E867686768676A67ED4
:107F2000A67EA67EA67EA67EA67EA67EA67EA67E31
:107F3000A67EA67EA67E86768676867686768676E9
:107F4000866E866E856E856E656665666566656637
:107F50006566656665666566635E94B6FFFFFFFFEE
:107F6000FFFF7EEF79C6846E867686768676867685
:107F7000A676A67EA67EA67EA67EA67E867E867E29
:107F8000867E867686768676867686768676866E11
:107F9000856E856E856E6566656665666566656611
:107FA0006566656665666566635E75B63EE7FFFF96
:107FB000FFFFDBD63BC6A476867686768676867607
:107FC00086768676867EA67EA67EA67EA676A67611
:107FD000A67686768676867686768676866E866EB1
:107FE000656E856E656E6566656665666566656601
:107FF0006566656665666566635E57B67BCEFFFF40
:10800000FFFF19BE1BC6A5768676867686768676AF
:10801000A676A676A676A676867686768676867600
:1080200086768676867686768676866E866E856E89
:10803000856E656E656665666566656665666566B8
:108040006566656665666566635E19BEF9B5FFFFC0
:10805000FFFFB7ADDABD877E867686768676867632
:108060008676A67686768676867686768676867610
:108070008676867686768676866E866E866E856E41
:10808000656E856E65666566656665666566656668
:108090006566656665666566635EDABDD8ADDFFFF9
:1080A000FFFF77A599B5276EC78686768676867E8A
:1080B000A67EA67EA67E8676867686768676867668
:1080C0008676867686768676866E866E856E656E12
:1080D000856E656665666566656665666566656620
:1080E0006566656665668566E35599B597ADBEF7C5
:1080F000DFFF56A578ADE96DA676A77E867EA67EC3
:10810000A67EA67EA67EA67E867E867686768676E7
:108110008676867686768676866E866E856E856EA1
:10812000656E6566656665666566656665666566EF
:10813000656665668566E45DC55D79AD77A59EF784
:10814000BEF7369D58A58C758466C78EA67EA77E21
:10815000A77EA67EA67EA67EA67EA67EA67E867626
:108160008676867686768676866E866E856E856E51
:10817000856E65666566656665666566656665667F
:10818000656685662566634D886558AD369D9EF7A4
:108190009EF7359D77A5F184A4666566C896A78687
:1081A000A786A786A786A786A67EA67EA67EA67693
:1081B0008676867686768676866E866E866E856E00
:1081C000656E656E65666566656665666566656647
:1081D00085664566C344A34DED7458A5369D9EF74C
:1081E000BEF7159D77A5F5942566856E656EE89EAC
:1081F000C78EC78EC78EC78EA786A67EA67EA67E92
:1082000086768676867686768676866E866E866EA6
:10821000856E856E656E6566656665666566A5666E
:10822000255E623C0345824D938C77A576ADBEF703
:10823000FFFF159D77A576A5EB6CA46E866E866E06
:10824000C88EE89EE89EE896C88EA786A67EA67E83
:10825000A67EA6768676867686768676866E866E06
:10826000856E856E8566656665668566C56E444DF8
:10827000022CA33C2245885C359D569DF8BDDFFF4E
:10828000FFFF96B557A576A5F28CC665A56E8676D6
:108290008676A77EE89EE99EC896C786A77EA67EBC
:1082A000A67EA67EA676867686768676866E866E8E
:1082B000856E656E856E856EC56E045EE22BC22B83
:1082C0004234A23CC344707C559DB8AD59CEFFFFEB
:1082D000FFFF9AD6369D77ADB3958F7C6566A676FF
:1082E0008676A67EA67EA786C88EC896A786A77E17
:1082F000A67EA67EA67E8676867686768676866E2E
:10830000A66EA66EC676A45502344123A12B022C7C
:108310004234A134ED63328D56A59BCE9AD6FFFF31
:10832000FFFFBEF735A5F9B5749DB2956D74656E06
:10833000A676867EA67EA67E867666766676667E3D
:10834000867EA77EA786C786C77EA67E66760566DA
:108350006455833C812381238123A123C22B022CDA
:108360004134CB5B1185138D19BE59C69EF7FFFFB3
:10837000FFFFFFFF59CEB8AD3AC6918DB2956E742E
:10838000256EC67EA67EA67E86766676456E0566D8
:10839000E45DA455444D0345A33C623422340234C9
:1083A000E22BE22BC22BC22BA12BA12BE12BE12B29
:1083B000AB5BF184F07C97AD39C679CEFFFFFFFF50
:1083C000FFFFFFFFDFFF96AD7BC699C69085D18D7D
:1083D000AF7C4865C57EA67E86766676456E256648
:1083E000E55DC45D6455244DE344A33C623C4234E6
:1083F0002234022CE22BC22BC12BC0238433ED6329
:10840000F07C107D349597B5D7BDBEF7FFFFFFFF19
:10841000FFFFFFFFFFFF3CE7B7B5FCD6FBD6908D13
:10842000B08D70858C6CA76DC576856E656E256682
:10843000E55DA4558455444DE344A33C623C42347D
:108440002234022CE12BE123832B894B6E74EF7CC9
:10845000107DD28C939455A53CEFFFFFFFFFFFFFEB
:10846000FFFFFFFFFFFFFFFFDBDE19BE5EE79FF7A9
:1084700075AE54A6329E6F85AC6C2865A5654466C2
:10848000045EE4558455434D0345C23C823C62344E
:10849000212CC233853BAA534D6CAE74EE74F0842C
:1084A0008F6BD073938CFBE6FFFFFFFFFFFFFFFF97
:1084B000FFFFFFFFFFFFFFFFFFFFDBDE39C6BFF758
:1084C000FFFFFFFFF8C6AD7DCE7DAE7D4D75CB6C59
:1084D000C95CC75CA654854C65442544E643E74B1C
:1084E000EA534B648C6CAD6CCD6CF07C6D632A42AE
:1084F000CC5231843CE7FFFFFFFFFFFFFFFFFFFF90
:10850000FFFFFFFFFFFFFFFFFFFFFFFF3CE738C656
:10851000FFFFFFFFFFFFDFFFD6BEEF8DAB75AC7532
:10852000AC758B754B6D2A6DEA64CA64CA64CB6402
:10853000CB64CB640E758F7C6E63E839C831E83943
:10854000B394BEF7FFFFFFFFFFFFFFFFFFFFFFFF3B
:10855000FFFFFFFFFFFFFFFFFFFFFFFFFFFFDFFF4B
:1085600059CEFBDEFFFFFFFFFFFFBFFF5DE7B8C691
:1085700054AE1196F08DAF858E856F852F85F08472
:10858000907CF073ED5A4A4A093A8629CB5A9AD61A
:10859000FFFFFFFFFFFFFFFFFFFFFFFFFFFFFFFFEB
:1085A000FFFFFFFFFFFFFFFFFFFFFFFFFFFFFFFFDB
:1085B000FFFF7DEF79CEFBDE9EF77EEF3DDFDCD661
:1085C0007BCEFABD98AD37A5B5943384B1734F63B4
:1085D0000E5BCC526B4A09426E6B38C6FFFFFFFF41
:1085E000FFFFFFFFFFFFFFFFFFFFFFFFFFFFFFFF9B
:1085F000FFFFFFFFFFFFFFFFFFFFFFFFFFFFFFFF8B
:10860000FFFFFFFFFFFFBEF7DBDE7ACE7ACE59C653
:1086100039BED8B577A515959384F1736F632E5B3A
:108620006F6B318476AD5DEFFFFFFFFFFFFFFFFF54
:10863000FFFFFFFFFFFFFFFFFFFFFFFFFFFFFFFF4A
:10864000FFFFFFFFFFFFFFFFFFFFFFFFFFFFFFFF3A
:10865000FFFFFFFFFFFFFFFFFFFFFFFFDFFF7DEFDC
:108660001CE7DBDE9AD679CE59CE7ACEDBDE7DEF03
:10867000DFFFFFFFFFFFFFFFFFFFFFFFFFFFFFFF2A
:10868000FFFFFFFFFFFFFFFFFFFFFFFFFFFFFFFFFA
:10869000FFFFFFFFFFFFFFFFFFFFFFFFFFFFFFFFEA
:1086A000FFFFFFFFFFFFFFFFFFFFFFFFFFFFFFFFDA
:1086B000FFFFFFFFFFFFFFFFFFFFFFFFFFFFFFFFCA
:1086C000FFFFFFFFFFFFFFFFFFFFFFFFFFFFFFFFBA
:1086D000FFFFFFFFFFFFFFFFFFFFFFFFFFFFFFFFAA
:1086E0000010A0005700011BFFFFFFFFFFFFFFFF6F
:1086F000FFFFFFFFFFFFFFFFFFFFFFFFFFFFFFFF8A
:10870000FFFFFFFFFFFFFFFFFFFFFFFFFFFFFFFF79
:10871000FFFFFFFFFFFFFFFFFFFFFFFFFFFFFFFF69
:10872000FFFFFFFFFFFFFFFFFFFFFFFFFFFFFFFF59
:10873000FFFFFFFFFFFFFFFFFFFFFFFFFFFFFFFF49
:10874000FFFFFFFFFFFFFFFFFFFFFFFFFFFFFFFF39
:10875000FFFFFFFFFFFFFFFFFFFFFFFFFFFFFFFF29
:10876000FFFFFFFFFFFFFFFFFFFFFFFFFFFFFFFF19
:10877000FFFFFFFFFFFFFFFFFFFFFFFFFFFFFFFF09
:10878000FFFFFFFFFFFFFFFFFFFFFFFFFFFFFFFFF9
:10879000FFFFFFFFFFFFFFFFFFFFFFFFFFFFFFFFE9
:1087A000FFFFFFFFFFFFFFFFFFFFFFFFFFFFFFFFD9
:1087B000FFFFFFFFFFFFFFFFFFFFFFFFFFFFFFFFC9
:1087C000FFFFFFFFFFFFFFFFFFFFFFFFFFFFFFFFB9
:1087D000FFFFFFFFFFFFFFFFFFFFFFFFFFFFFFFFA9
:1087E000FFFFFFFFFFFFFFFFFFFFFFFFFFFFFFFF99
:1087F000FFFFFFFFFFFFFFFFFFFFFFFFFFFFFFFF89
:10880000FFFFFFFFFFFFFFFFFFFFFFFFFFFFFFFF78
:10881000FFFFFFFFFFFFFFFFFFFFFFFFFFFFFFFF68
:10882000FFFFFFFFFFFFFFFFFFFFFFFFFFFFFFFF58
:10883000FFFFFFFFFFFFFFFFFFFFFFFFFFFFFFFF48
:10884000FFFFFFFFFFFFFFFFFFFFFFFFFFFFFFFF38
:10885000FFFFFFFFFFFFFFFFFFFFFFFFFFFFFFFF28
:10886000FFFFFFFFFFFFFFFFFFFFFFFFFFFFFFFF18
:10887000FFFFFFFFFFFFFFFFFFFFFFFFFFFFFFFF08
:10888000FFFFFFFFFFFFFFFFFFFFFFFFFFFFFFFFF8
:10889000FFFFFFFFFFFFFFFFFFFFFFFFFFFFFFFFE8
:1088A000FFFFFFFFFFFFFFFFFFFFFFFFFFFFFFFFD8
:1088B000FFFFFFFFFFFFFFFFFFFFFFFFFFFFFFFFC8
:1088C000FFFFFFFFFFFFFFFFFFFFFFFFFFFFFEFFB9
:1088D000FEFFFEFFFEFFFEFFFEFFFEFFFEFFFFFFAF
:1088E000FFFFFFFFFFFFFFFFFFFFFFFFFFFFFFFF98
:1088F000FFFFFFFFFFFFFFFFFFFFFFFFFFFFFFFF88
:10890000FFFFFFFFFFFFFFFFFFFFFFFFFFFFFFFF77
:10891000FFFFFFFFFFFFFFFFFFFFFFFFFFFFFFFF67
:108B3000FFFFFFFFFFFFFFFFFFFFFFFFFEFFFEFF47
:108B4000FEFFFFFFFFFFFEFFFFFFFEFFDFFFDFFF78
:108B5000DFFFFFFFFFFFDFFFFFFFDFFFDFFFFFFFA5
:108B6000FFFFDEFFDEFFFFFFDEFFFEFFFFFFFFFF79
:108B7000FEFFFEFFFEFFFEFFFEFFFEFFFEFFFEFF0D
:108B8000FEFFFEFFFEFFFEFFFFFFFEFFFEFFFFFFFB
:108B9000FFFFFFFFDFFFFFFFFFFFFFFFFFFFFFFF05
:108BA000FFFFFFFFFFFFFFFFFFFFFFFFFFFFFFFFD5
:108BB000FFFFFFFFFFFFFFFFFFFFFFFFFFFFFFFFC5
:108BC000FFFFFFFFFFFFFFFFFFFFFFFFFFFFFFFFB5
:108BD000FFFFFFFFFFFFFFFFFFFFFFFFFFFFFFFFA5
:108BE000FFFFFFFFFFFFFFFFFFFFFFFFFFFFFFFF95
:108BF000FFFFFFFFFFFFFFFFFFFFFFFFFFFFFFFF85
:108C0000FFFFFFFFFFFFFFFFFFFFFFFFFFFFFFFF74
:108C1000FFFFFFFFFFFFFFFFFFFFFFFFFFFFFFFF64
:108C2000FFFFFFFFFFFFFFFFFFFFFFFFFFFFFFFF54
:108C3000FFFFFFFFFFFFFFFFFFFFFFFFFFFFFFFF44
:108C4000FFFFFFFFFFFFFFFFFFFFFFFFFFFFFFFF34
:108C5000FFFFFFFFFFFFFFFFFFFFFFFFFFFFFFFF24
:108C6000FFFFFFFFFFFFFFFFFFFFFFFFFFFFFFFF14
:108C7000FFFFFFFFFFFFFFFFFFFFFFFFFEFFFEFF06
:108C8000FFFFFFFFFFFFFFFFFFFFDFFFFEFFFEFF16
:108C9000FEFFFEFFFEFFFEFFFEFFFDFFFEFFFEFFED
:108CA000FEFFFEFFFEFFFEFFFEFFFEFFFEFFFEFFDC
:108CB000FDFFFDFFFDFFFDFFFDFFFDFFFDFFFDFFD4
:108CC000FDFFDFFFFFFFFFFFFFFFFFFFFFFFFFFFD6
:108CD000FFFFFFFFFFFFFFFFFFFFFFFFFFFFFFFFA4
:108CE000FFFFFFFFFFFFFFFFFFFFFFFFFFFFFFFF94
:108CF000FFFFFFFFFFFFFFFFFFFFFFFFFFFFFFFF84
:108D0000FFFFFFFFFFFFFFFFFFFFFFFFFFFFFFFF73
:108D1000FFFFFFFFFFFFFFFFFFFFFFFFFFFFFFFF63
:108D2000FFFFFFFFFFFFFFFFFFFFFFFFFFFFFFFF53
:108D3000FFFFFFFFFFFFFFFFFFFFFFFFFFFFFFFF43
:108D4000FFFFFFFFFFFFFFFFFFFFFFFFFFFFFFFF33
:108D5000FFFFFFFFFFFFFFFFFFFFFFFFFFFFFFFF23
:108D6000FFFFFFFFFFFFFFFFFFFFFFFFFFFFFFFF13
:108D7000FFFFFFFFFFFFFFFFFFFFFFFFFFFFFFFF03
:108D8000FFFFFFFFFFFFFFFFFFFFFFFFFFFFFFFFF3
:108D9000FFFFFFFFFFFFFFFFFFFFFFFFFFFFFFFFE3
:108DA000FFFFFFFFFFFFFFFFFFFFFFFFFFFFFFFFD3
:108DB000FFFFFFFFFFFFFFFFFFFFFFFFFFFFFFFFC3
:108DC000DFF7DFF7DFF7FFFFDFF7FFFFFFF7FEF764
:108DD000FEF7FEF7FFF7FEF7FEF7FFFFDEEF5EE7B9
:108DE0007FE77FE75EE75EDF5EE75FE77FE75FE7FE
:108DF0007EE79EE7FFF7FFF7FFF7FFF7FFF7FFF7C5
:108E0000FFF7DFF7FFFFDFF7DFF7FFF7DFF7FFFF22
:108E1000FFFFDFF7FFFFFFFFFFFFFFFFFFFFFFFF8A
:108E2000FFFFFFFFFFFFFFFFFFFFFFFFFFFFFFFF52
:108E3000FFFFFFFFFFFFFFFFFFFFFFFFFFFFFFFF42
:108E4000FFFFFFFFFFFFFFFFFFFFFFFFFFFFFFFF32
:108E5000FFFFFFFFFFFFFFFFFFFFFFFFFFFFFFFF22
:108E6000FFFFFFFFFFFFFFFFFFFFFFFFFFFFFFFF12
:108E7000FFFFFFFFFFFFFFFFFFFFFFFFFFFFFFFF02
:108E8000FFFFFFFFFFFFFFFFFFFFFFFFFFFFFFFFF2
:108E9000FFFFFFFFFFFFFFFFFFFFFFFFFFFFFFFFE2
:108EA000FFFFFFFFFFFFFFFFFFFFFFFFFFFFFFFFD2
:108EB000FFFFFFFFFFFFFFFFFFFFFFFFFFFFFFFFC2
:108EC000FFFFFFFFFFFFFFFFFFFFFFFFFFFFFFFFB2
:108ED000FFFFFFFFFFFFFFFFFFFFFFFFFFFFFFFFA2
:108EE000FFFFFFFFFFFFFFFFFFFFFFFFFFFFFFFF92
:108EF000FFFFFFFFFFFFFFFFFFFFFFFF9EEF5DE7AD
:108F00001CDFBBCE9BCE5BC699AD58A5B78C377C1A
:108F1000F673F673F673F673D56BB56B9463335BC8
:108F2000335B1253F2521353535B13531353335B9C
:108F30001153525BB363B363B363B363B363F46B53
:108F40001574B794189D38A51BBE7BCEBBD6DBD657
:108F50001CDF7DEFBEF7FFFFFFFFFFFFFFFFFFFFFF
:108F6000FFFFFFFFFFFFFFFFFFFFFFFFFFFFFFFF11
:108F7000FFFFFFFFFFFFFFFFFFFFFFFFFFFFFFFF01
:108F8000FFFFFFFFFFFFFFFFFFFFFFFFFFFFFFFFF1
:108F9000FFFFFFFFFFFFFFFFFFFFFFFFFFFFFFFFE1
:108FA000FFFFFFFFFFFFFFFFFFFFFFFFFFFFFFFFD1
:108FB000FFFFFFFFFFFFFFFFFFFFFFFFFFFFFFFFC1
:108FC000FFFFFFFFFFFFFFFFFFFFFFFFFFFFFFFFB1
:108FD000FFFFFFFFFFFFFFFFFFFFFFFFFFFFFFFFA1
:108FE000FFFFFFFFFFFFFFFFFFFFFFFFFFFFFFFF91
:108FF000FFFFFFFFFFFFFFFFFFFFFFFFFFFFFFFF81
:10900000FFFFFFFFFEFFFFFFFFFFFFFFFFFFFFFF71
:10901000FFFFFFFFFFFFFFFFDDFFFEFFFEFFFEFF85
:10902000FEFFFEFFDDF7FEF7FEF7FFF7DFEFBEE71F
:109030007EDF5EDF3CB618951674B463765B5553DD
:109040009563B5631674167415743574D373B2735F
:10905000926B716BF27B127C127C327C738497ADC5
:10906000D7B5D7B5D8B5F8B519BEF8B59ACE5DE77E
:109070007DEF7DEF7DEF7DEF7DEF1CE738C6F7BD1F
:10908000F7BDD8B5D9B556A55384F27BD173B16B72
:10909000916BEE5A2F63D273B59499AD5CC63EE7DF
:1090A0003EE7BFF7BFF7BFF7BFFFBFF7DFFFDFFF49
:1090B000FFFFFFFFFFFFFFFFFFFFFFFFFFFFFFFFC0
:1090C000FFFFFFFFFFFFFFFFFFFFFFFFFFFFFFFFB0
:1090D000FFFFFFFFFFFFFFFFFFFFFFFFFFFFFFFFA0
:1090E000FFFFFFFFFFFFFFFFFFFFFFFFFFFFFFFF90
:1090F000FFFFFFFFFFFFFFFFFFFFFFFFFFFFFFFF80
:10910000FFFFFFFFFFFFFFFFFFFFFFFFFFFFFFFF6F
:10911000FFFFFFFFFFFFFFFFFFFFFFFFFFFFFFFF5F
:10912000FFFFFFFFFFFFFFFFFFFFFFFFFFFFFFFF4F
:10913000FFFFFFFFFFFFFEFFFEFFFFFFFFFFFFFF41
:10914000FFFFFFFFFFFFFFFFFFFFFFFFFFFFFFFF2F
:10915000FFFFFEFFFEFFFEFFDDFFFEFFFEFFFFFF46
:10916000FFFFFFF7BFEFFFD699A5368473637363E4
:10917000B573B573387C387CF773B66B9363115352
:10918000726314741895DBB55CC67FE79FEFBFF779
:10919000DFF7DFF7DFF7DFF7FFFFFFFFDFF7DFF7CF
:1091A000DFF7DFF7FFFFDFF7DFF7DFF7DFF79EEF30
:1091B000FFFFFFFFFFFFFFFFBEF7BEF7DFFFDFFF91
:1091C000BEF7DFF7DFF7DFF7FFF7FFF7FFFFDFF7A8
:1091D000FFF7BFEFDFF7DFF7BEF77EE77BC6D8B557
:1091E000F59CD1731184728C97B5DBDE7EEFFFFFA7
:1091F000FFFFFFFFBEF7FFFFFFFFFFFFFFFFFFFFC8
:10920000FFFFFFFFFFFFFFFFFFFFFFFFFFFFFFFF6E
:10921000FFFFFFFFFFFFFFFFFFFFFFFFFFFFFFFF5E
:10922000FFFFFFFFFFFFFFFFFFFFFFFFFFFFFFFF4E
:10923000FFFFFFFFFFFFFFFFFFFFFFFFFFFFFFFF3E
:10924000FFFFFFFFFFFFFFFFFFFFFFFFFFFFFFFF2E
:10925000FFFFFFFFFFFFFFFFFFFFFFFFFFFFFFFF1E
:10926000FFFFFFFFFFFFFFFFFFFFFFFFFFFFFFFF0E
:10927000FFFFFFFFFFFFFFFFFFFFFFFFFFFFFFFFFE
:10928000FFFFFFFFFFFFDFFFFFFFFFFFFFFFFFFF0E
:10929000DFFFFFFFFFFFFFFFFFF7FDD6D9ADF6941D
:1092A000357CD46BB56B377C387C3784B573546BA5
:1092B000746BB473F99C9BAD7DCEDDD65DE7BFF7D3
:1092C000FFFFDFF7FFFFFFFFFFFFFFFFDFFFFFFFF6
:1092D000FFFFFFFFDFFFFFFFFFFFFFFFFFFFFFFFBE
:1092E000FFFFFFFFFFFFFFFFFFFFFFFFFFFFFFFF8E
:1092F000FFFFFFFFFFFFFFFFFFFFFFFFDFFFFFFF9E
:10930000FFFFFEFFFFFFFFFFFFFFFFFFFFFFFFFF6E
:10931000FFFFFFFFFFFFDFFFFFFFFFFFFFFFDFF7A5
:10932000DFF7DFF7DFFF7EF71CE7DBDE9AD618C634
:10933000D7BD38C659CEDFFFFFFFFFFFFFFFFFFF9E
:10934000FFFFFFFFFFFFFFFFFFFFFFFFFFFFFFFF2D
:10935000FFFFFFFFFFFFFFFFFFFFFFFFFFFFFFFF1D
:10936000FFFFFFFFFFFFFFFFFFFFFFFFFFFFFFFF0D
:10937000FFFFFFFFFFFFFFFFFFFFFFFFFFFFFFFFFD
:10938000FFFFFFFFFFFFFFFFFFFFFFFFFFFFFFFFED
:10939000FFFFFFFFFFFFFFFFFFFFFFFFFFFFFFFFDD
:1093A000FFFFFFFFFFFFFFFFFFFFFFFFFFFFFFFFCD
:1093B000FFFFFFFFFFFFDFFFDFFFFFFFFFFFFEFFFE
:1093C000FEFFFFFFFFFFFEFFFEFFFFFFFFFFDFF7D8
:1093D000DFF71FDFBAAD978CD56BF56B167415747C
:1093E0001574D46BB363357CF894D9AD7BC6FDD6C8
:1093F0007EEFDEF7FEFFFEF7FDFFFDFFDEFFFEFF67
:10940000FEFFFEFFFEFFDEFFFEFFDEFFFEFFFEFFB4
:10941000FEFFFFFFFEFFFFFFFFFFFFFFFFFFFFFF5E
:10942000FFFFFFFFFFFFFFFFDFFFFFFFFFFFFFFF6C
:10943000FFFFFFFFFFFFFFFFDFFFDFFFFFFFDFFF9C
:10944000DFFFFEFFFEFFFEFFFEFFFEFFFEFFFEFF53
:10945000FEFFFEFFFEFFFFFFFEFFFEFFDEFFFFFF42
:10946000DEFFFEFFDFFFDFFFFFFFDFFFDFFFDFFFCE
:10947000DFFFBEF77DEFFFFFFFFFFFFFFFFFFFFFF7
:10948000FFFFFFFFFFFFFFFFFFFFFFFFFFFFFFFFEC
:10949000FFFFFFFFFFFFFFFFFFFFFFFFFFFFFFFFDC
:1094A000FFFFFFFFFFFFFFFFFFFFFFFFFFFFFFFFCC
:1094B000FFFFFFFFFFFFFFFFFFFFFFFFFFFFFFFFBC
:1094C000FFFFFFFFFFFFFFFFFFFFFFFFFFFFFFFFAC
:1094D000FFFFFFFFFFFFFFFFFFFFFFFFFFFFFFFF9C
:1094E000FFFFFFFFFFFFFFFFFFFFFFFFFFFFFFFF8C
:1094F000FFFFFFFFDFFFDFFFFFFFFFFFFEFFFEFFBE
:10950000FEFFFEFFFEFFFFF7DFF75EE75BC6589D3D
:10951000357C7463D673187CD66BF6731674F89426
:10952000B9AD7BC69FE7FFF7FFF7FFFFFFF7FFF738
:10953000FEFFFEFFFDFFFDFFFDFFFDFFFEFFFEFF47
:10954000FEFFFEFFFEFFFEFFFEFFFFFFFEFFFEFF32
:10955000FEFFDEFFFFFFFFFFFFFFFFFFFFFFFFFF3D
:10956000FFFFFFFFFFFFFFFFFFFFFFFFFFFFFFFF0B
:10957000FFFFFFFFFFFFFFFFFFFFFFFFFFFFFFFFFB
:10958000FFFFFEFFFEFFFFFFFFFFFFFFFEFFFFFFEE
:10959000FFFFFEFFFFFFFFFFFFFFFFFFDFFFFFFFFC
:1095A000FFFFFFFFFFFFFFFFFFFFFFFFFFFFFFFFCB
:1095B000FFFFFFFFFFFFFFFFFFFFFFFFFFFFFFFFBB
:1095C000FFFFFFFFFFFFFFFFFFFFFFFFFFFFFFFFAB
:1095D000FFFFFFFFFFFFFFFFFFFFFFFFFFFFFFFF9B
:1095E000FFFFFFFFFFFFFFFFFFFFFFFFFFFFFFFF8B
:1095F000FFFFFFFFFFFFFFFFFFFFFFFFFFFFFFFF7B
:10960000FFFFFFFFFFFFFFFFFFFFFFFFFFFFFFFF6A
:10961000FFFFFFFFFFFFFFFFFFFFFFFFFFFFFFFF5A
:10962000FFFFFFFFFFFFFFFFFFFFFFFFBEF7FFFF93
:10963000FFFFFFFFFFFFFEFFDEF7DEF7FFFFFFFF8D
:10964000DFF7BFEF5DE7BBAD367C7263D46B567C52
:109650003574D46BD46BF88C5BC65FE7FFF7FFF70C
:10966000FFF7FFFFFFFFFEFFFEFFFFFFFFFFFFFF14
:10967000FFFFFFFFFFFFFFFFFFFFFFFFFFFFFFFFFA
:10968000FFFFFFFFFFFFFFFFFFFFFFFFFFFFFFFFEA
:10969000FFFFFFFFFFFFFFFFFFFFFFFFFFFFFFFFDA
:1096A000FFFFFFFFFFFFFFFFFFFFFFFFFFFFFFFFCA
:1096B000FFFFFFFFFFFFFFFFFFFFFFFFFFFFFFFFBA
:1096C000FFFFFFFFFFFFFFFFFFFFFFFFFFFFFFFFAA
:1096D000FFFFFFFFFFFFFFFFFFFFFFFFFFFFFFFF9A
:1096E000FFFFFFFFFFFFFFFFFFFFFFFFFFFFFFFF8A
:1096F000FFFFFFFFFFFFFFFFFFFFFFFFFFFFFFFF7A
:10970000FFFFFFFFFFFFFFFFFFFFFFFFFFFFFFFF69
:10971000FFFFFFFFFFFFFFFFFFFFFFFFFFFFFFFF59
:10972000FFFFFFFFFFFFFFFFFFFFFFFFFFFFFFFF49
:10973000FFFFFFFFFFFFFFFFFFFFFFFFFFFFFFFF39
:10974000FFFFFFFFFFFFFFFFFFFFFFFFFFFFFFFF29
:10975000FFFFFFFFFFFFFFFFFFFFFFFFFFFFFFFF19
:10976000FFFFFFFFFFFFFFFFFFFFFFFFFFFFFFFF09
:10977000FFFFFFFFFEFFFCFFFDF7DFF7FFF75FE7EF
:10978000D794F15A946B387C7984956B535B9684AB
:109790009DC6FFF7DFEFFFF7FCF7FDF7DDF7FDFFF5
:1097A000FEFFFFFFFFFFFFFFFFFFFFFFFFFFFFFFCA
:1097B000FFFFFFFFFFFFFFFFFFFFFFFFFFFFFFFFB9
:1097C000FFFFFFFFFFFFFFFFFFFFFFFFFFFFFFFFA9
:1097D000FFFFFFFFFFFFFFFFFFFFFFFFFFFFFFFF99
:1097E000FFFFFFFFFFFFFFFFFFFFFFFFFFFFFFFF89
:1097F000FFFFFFFFFFFFFFFFFFFFFFFFFFFFFFFF79
:10980000FFFFFFFFFFFFFFFFFFFFFFFFFFFFFFFF68
:10981000FFFFFFFFFFFFFFFFFFFFFFFFFFFFFFFF58
:10982000FFFFFFFFFFFFFFFFFFFFFFFFFFFFFFFF48
:10983000FFFFFFFFFFFFFFFFFFFFFFFFFFFFFFFF38
:10984000FFFFFFFFFFFFFFFFFFFFFFFFFFFFFFFF28
:10985000FFFFFFFFFFFFFFFFFFFFFFFFFFFFFFFF18
:10986000FFFFFFFFFFFFFFFFFFFFFFFFFFFFFFFF08
:10987000FFFFFFFFFFFFFFFFFFFFFFFFFFFFFFFFF8
:10988000FFFFFFFFFFFFFFFFFFFFFFFFFFFFFFFFE8
:10989000FFFFFFFFFFFFFFFFFFFFFFFFFFFFFFFFD8
:1098A000FFFFFFFFFFFFFFFFFFFFFFFFDFFFFFFFE8
:1098B000DFFFDFFFFFF7FFF73EDF7584936BD573A4
:1098C0005784D46B7263147C3CBE5EE7BFEFDFF756
:1098D000DFF7BEF7DEF7FEFFFEFFFEFFDDFFFEFF58
:1098E000FFFFFFFFFFFFFFFFFFFFFFFFFFFFFFFF88
:1098F000FFFFFFFFFFFFFFFFFFFFFFFFFFFFFFFF78
:10990000FFFFFFFFFFFFFFFFFFFFFFFFFFFFFFFF67
:10991000FFFFFFFFFFFFFFFFFFFFFFFFFFFFFFFF57
:10992000FFFFFFFFFFFFFFFFFFFFFFFFFFFFFFFF47
:10993000FFFFFFFFFFFFFFFFFFFFFFFFFFFFFFFF37
:10994000FFFFFFFFFFFFFFFFFFFFFFFFFFFFFFFF27
:10995000FFFFFFFFFFFFFFFFFFFFFFFFFFFFFFFF17
:10996000FFFFFFFFFFFFFFFFFFFFFFFFFFFFFFFF07
:10997000FFFFFFFFFFFFFFFFFFFFFFFFFFFFFFFFF7
:10998000FFFFFFFFFFFFFFFFFFFFFFFFFFFFFFFFE7
:10999000FFFFFFFFFFFFFFFFFFFFFFFFFFFFFFFFD7
:1099A000FFFFFFFFFFFFFFFFFFFFFFFFFFFFFFFFC7
:1099B000FFFFFFFFFFFFFFFFFFFFFFFFFFFFFFFFB7
:1099C000FFFFFFFFFFFFFFFFFFFFFFFFFFFFFFFFA7
:1099D000FFFFFFFFFFFFFFFFFFFFFFFFFFFFFFFF97
:1099E000FFFFFFFFFFFFFFFFFFFFFFFFFFFFBEF7D0
:1099F000FFFF1CE778ADF57BB673187CD873966BC8
:109A000077845BBE5EDFFDF7FDFFFDFFFEFFDEFF3F
:109A1000FEFFDFFFDFFFBFFFDFFFDFFFDFFFFFFF37
:109A2000FFFFFFFFFFFFFEFFFEFFFFFFFFFFFFFF48
:109A3000FFFFFFFFFFFFFFFFFFFFFFFFFFFFFFFF36
:109A4000FFFFFFFFFFFFFFFFFEFFFEFFFFFFFFFF28
:109A5000FFFFFFFFFFFFFFFFFFFFFFFFFFFFFFFF16
:109A6000FFFFFFFFFFFFFFFFFFFFFFFFFFFFFFFF06
:109A7000FFFFFFFFFFFFFFFFFFFFFFFFFFFFFFFFF6
:109A8000FFFFFFFFFFFFFFFFFFFFFFFFFFFFFEFFE7
:109A9000FEFFFEFFFFFFFFFFFFFFFFFFFFFFFFFFD8
:109AA000FFFFFFFFFFFFFFFFFFFFFFFFFFFFFFFFC6
:109AB000FFFFFFFFFFFFFFFFFFFFFFFFFFFFFFFFB6
:109AC000FFFFFFFFFFFFFFFFFFFFFFFFFFFFFFFFA6
:109AD000FFFFFFFFFFFFFFFFFFFFFFFFFFFFFFFF96
:109AE000FFFFFFFFFFFFFFFFFFFFFFFFFFFFFFFF86
:109AF000FFFFFFFFFFFFFFFFFFFFFFFFFFFFFFFF76
:109B0000FFFFFFFFFFFFFFFFFFFFFFFFFFFFFFFF65
:109B1000FFFFFFFFFFFFFFFFFFFFDFFFDFFFDFFFB5
:109B2000FFFFFFFFDFFFDFFFFFFFDFF79EE77BC6E3
:109B3000557CB563F773387CF673F47377A53DE70E
:109B4000FFFFDEFFDEFFFFFFFFFFFFFFFFFFFFFF67
:109B5000FFFFFFFFFFFFFFFFFFFFFFFFFFFFFFFF15
:109B6000FFFFFFFFFFFFFFFFFFFFFFFFFFFFFFFF05
:109B7000FFFFFFFFFFFFFFFFFFFFFFFFFFFFFFFFF5
:109B8000FFFFFFFFFFFFFFFFFFFFFFFFFFFFFFFFE5
:109B9000FFFFFFFFFFFFFFFFFFFFFFFFFFFFFFFFD5
:109BA000FFFFFFFFFFFFFFFFFFFFFFFFFFFFFFFFC5
:109BB000FFFFFFFFFFFFFFFFFFFFFFFFFFFFFFFFB5
:109BC000FFFFFFFFFFFFFFFFFFFFFFFFFFFFFFFFA5
:109BD000FFFFFFFFFFFFFFFFFFFFFFFFFFFFFFFF95
:109BE000FFFFFFFFFFFFFFFFFFFFFFFFFFFFFFFF85
:109BF000FFFFFFFFFFFFFFFFFFFFFFFFFFFFFFFF75
:109C0000FFFFFFFFFFFFFFFFFFFFFFFFFFFFFFFF64
:109C1000FFFFFFFFFFFFFFFFFFFFFFFFFFFFFFFF54
:109C2000FFFFFFFFFFFFFFFFFFFFFFFFFFFFFFFF44
:109C3000FFFFFFFFFFFFFFFFFFFFFFFFFFFFFFFF34
:109C4000FFFFFFFFFFFFFFFFFFFFFFFFFFFFFFFF24
:109C5000FFFFFFFFFFFFFFFFFFFFBEFFFFFFFFFF55
:109C6000FFFFFEFFFDFFDEF75DE778A5B36BB46B8A
:109C70007884377CF5735584FAB5FFF7DFF7FFFF7B
:109C8000DFFFDFFFFFFFFFFFFFFFFFFFFFFFFFFF24
:109C9000FFFFFFFFFFFFFFFFFFFFFFFFFFFFFFFFD4
:109CA000FFFFFFFFFFFFFFFFFFFFFFFFFFFFFFFFC4
:109CB000FFFFFFFFFFFFFFFFFFFFFFFFFFFFFFFFB4
:109CC000FFFFFFFFFFFFFFFFFFFFFFFFFFFFFFFFA4
:109CD000FFFFFFFFFFFFFFFFFFFFFFFFFFFFFFFF94
:109CE000FFFFFFFFFFFFFFFFFFFFFFFFFFFFFFFF84
