:020000040800F2
:1040000090040020BD4100087D4200087542000870
:104010007942000831420008154300080000000002
:10402000000000000000000000000000AB4200089B
:104030003542000800000000A9420008AD42000817
:10404000D7410008D7410008D7410008D7410008F0
:10405000D7410008D741000839420008D74100087D
:10406000D7410008D7410008D7410008D7410008D0
:10407000D7410008D7410008D7410008D7410008C0
:10408000D7410008D7410008D7410008D7410008B0
:10409000D7410008D7410008D7410008D7410008A0
:1040A000D7410008D7410008D7410008D741000890
:1040B000D7410008D7410008D7410008D741000880
:1040C000D7410008D7410008D7410008D741000870
:1040D000D7410008D7410008D7410008D741000860
:1040E000D7410008D7410008D7410008D741000850
:1040F000D7410008D7410008D7410008D741000840
:10410000D7410008D7410008D7410008D74100082F
:10411000D7410008D7410008D7410008D74100081F
:10412000D7410008D7410008D7410008D74100080F
:10413000D7410008D7410008D7410008D7410008FF
:10414000D7410008D7410008D7410008D7410008EF
:10415000D7410008D7410008D7410008D7410008DF
:10416000D7410008D7410008D7410008D7410008CF
:10417000D7410008D7410008D741000800000000DF
:10418000D7410008D7410008D7410008D7410008AF
:10419000D7410008D7410008D7410008D74100089F
:1041A000D7410008D7410008DFF80CD000F02EF806
:1041B000004800470D48000890040020064880474A
:1041C00006480047FEE7FEE7FEE7FEE7FEE7FEE7FC
:1041D000FEE7FEE7FEE7FEE7B5420008A94100085A
:1041E00030B50B46014600202022012409E021FAC7
:1041F00002F59D4205D303FA02F5491B04FA02F5C4
:104200002844151EA2F10102F1DC30BD064C074D19
:1042100006E0E06840F0010394E807009847103496
:10422000AC42F6D3FFF7C4FFB4530008D4530008E0
:1042300000BFFEE77047000010B5012000F0AEF9A6
:10424000A0B116200A49087008204870152088700F
:104250000120C8701220087100204871887108611F
:10426000084600F0B9FD012000F092F910BD0000F1
:104270007800002000BFFEE700BFFEE770470000A7
:1042800010B5002807DA0A07140E054A00F00F03DC
:104290001B1FD45403E00A07130E024A135410BD27
:1042A00018ED00E000E400E07047704710B500F042
:1042B00007F910BD10B51348006840F470001149AB
:1042C00008601148006840F001000F4908600020B4
:1042D0000D49083108600C4800680C4908400A493B
:1042E00008600B48091D0860081F006820F4802042
:1042F000091F0860002004490C31086000F020FF0D
:1043000010BD000088ED00E000380240FFFFF6FE1F
:104310001030002400BFFEE70FB4054B10B503A911
:10432000044A029800F018F810BC5DF814FB000075
:10433000C14500087400002002E008C8121F08C12F
:10434000002AFAD170477047002001E001C1121F16
:10435000002AFBD1704700002DE9FF4F89B09B4632
:104360000446002597E0252833D10027641C4E49D8
:10437000B84601222378203B02FA03F0084202D01B
:104380000743641CF6E720782E2819D114F8010F92
:1043900047F004072A280ED06FF02F022078A0F1F2
:1043A000300109290CD808EB880102EB410100EB30
:1043B0000108641CF2E70A98641C50F8048B0A9008
:1043C000207800286BD0642808D0692806D075288A
:1043D00020D05A460B9990476D1C5BE00A994FF02C
:1043E0000A0901C90A91002804DAC0F100004FF05F
:1043F0002D0102E0390504D52B218DF82010012173
:1044000003E0F90704D02021F7E78A4608AE0EE062
:104410000021FAE70A994FF00A0901C90A91F7E762
:104420004946FFF7DDFE01F1300106F8011D0028C5
:10443000F6D1ADEB060000F12009780701D44FF06A
:104440000108C84502DDA8EB090000E00020804615
:10445000002706E008A85A46C05D0B9990476D1CDE
:104460007F1C5745F6DB04E030205A460B999047F5
:104470006D1CB8F10001A8F10108F5DC05E016F8A3
:10448000010B5A460B9990476D1CB9F10001A9F137
:104490000109F4DC641C207800287FF464AF0DB0BF
:1044A0002846BDE8F08F0000092801000349086094
:1044B00000BF024909680029FBD1704708000020AD
:1044C0000448006820B103480068401E01490860A4
:1044D000704700000800002010B52C4B1B68834378
:1044E0002A4C2360231D1B688343241D2360231D46
:1044F0001B688343241D2360231D1B688343241DE5
:10450000236011B101290ED105E0204B1B68034344
:104510001E4C236008E01D4B1B1D1B6803431B4CF6
:10452000241D236000E000BF00BF22B1012A0FD08C
:10453000022A27D119E0154B08331B680343134C9B
:1045400008342360231D1B688343241D23601AE065
:104550000E4B08331B6883430C4C08342360231D27
:104560001B680343241D23600DE0084B08331B68C0
:104570000343064C08342360231D1B680343241D9A
:10458000236000E000BF00BF10BD0000003C014000
:104590000149086070470000143C0140014607488B
:1045A000006800EA010205481438006800EA0103C7
:1045B00012B10BB1012070470020FCE7143C014010
:1045C00070B504460D46E1B2054800F05DFE00BF3F
:1045D0000721034800F0CFFE0028F9D0204670BD27
:1045E0000010014070B505462748854200D10024DF
:1045F0004FF4406000F082FB244931F8140000F0D1
:104600007DFB234850F824200721224800F086F83B
:10461000214850F8242007211E4800F07FF81C484C
:1046200050F82430012202211A4800F0A6F8184858
:1046300050F8243002220021164800F0C5F8164830
:1046400050F8243001220221124800F096F8124856
:1046500050F82430022200210E4800F0B5F8284618
:1046600000F016FE4FF4E131284600F095FD0421DC
:10467000284600F08FFE0821284600F093FE2846C9
:1046800000F074FE70BD0000001001402800002002
:104690002C000020000002403000002070B50446CD
:1046A0000D46174931F8140000F028FB41F20E10B6
:1046B00000F024FB134951F82430134951F8240029
:1046C0000022114600F059F8012D17D10F49085D5D
:1046D0000022022100F048F90D4A115D0D4A105DDB
:1046E00000F05EFC0C4951F8240001220021FFF784
:1046F000F3FE094951F82400FFF74AFF70BD00009E
:1047000054000020480000203C0000206E000020E3
:104710006B000020680000205C000020F0B503461C
:104720001C6A5D6A00200DE001268640164207D013
:1047300087000F26BE40B443860001FA06F63443D4
:10474000461CB0B20828EFD3082011E001268640AD
:1047500016420BD0A0F10806B7000F26BE40B543A5
:10476000A0F10806B60001FA06F63543461CB0B2C1
:104770001028EBD31C625D62F0BDF0B504460D4617
:1047800016462168E268002019E0012787401F4291
:1047900013D04FEA400C032707FA0CF7B943470040
:1047A00005FA07F739434FEA400C032707FA0CF7DD
:1047B000BA43470006FA07F73A43471CB8B2102835
:1047C000E3D32160E260F0BDF0B50C461546012C44
:1047D00003D146681E43466002E046689E43466039
:1047E000826800210DE001268E401E4207D04F0056
:1047F0000326BE40B2434E0005FA06F632434E1C75
:10480000B1B21029EFD38260F0BD00004FF48041B7
:10481000480300F0FDF800F097FC01210020FFF7AD
:104820003DFF3F48FFF7DEFE00F066FB76E03D48C7
:1048300000F0A0FA3CA0FFF76FFD3A4800780111A4
:104840003CA0FFF769FD3748007800F00F013BA05E
:10485000FFF762FD3AA0FFF75FFD32484078011193
:1048600036A0FFF759FD2F48407800F00F0133A024
:10487000FFF752FD32A0FFF74FFD2A488078011163
:104880002EA0FFF749FD2748807800F00F012BA0EC
:10489000FFF742FD2BA0FFF73FFD2BA0FFF73CFDEC
:1048A0002048C06818B92CA0FFF736FD02E02CA004
:1048B000FFF732FD1B480079011120A0FFF72CFD06
:1048C0001848007900F00F011CA0FFF725FD21A07A
:1048D000FFF722FD13484079011118A0FFF71CFDD6
:1048E0001048407900F00F0114A0FFF715FD19A042
:1048F000FFF712FD0B488079011110A0FFF70CFDA6
:104900000848807900F00F010CA0FFF705FD0DA00D
:10491000FFF702FD4FF47A70FFF7C8FD87E700004C
:104920000010014078000020546F646179206973A1
:10493000203A0000323025640000000025640000A9
:104940002D0000000D0A00004E6F772054696D6540
:10495000206973203A0000002020414D2000000013
:104960002020504D20000000F0B50B46002100240F
:104970000025254E366806F4E066B6F5E06F02D1F4
:1049800000BF042526E0204E366806F4E066B6F542
:10499000C06F02D1012403251CE01B4E366806F4CB
:1049A000E066B6F5A06F02D10224022512E0164E91
:1049B000366806F4E066B6F5806F02D1032401255F
:1049C00008E0114E366806F4E066B6F5407F01D186
:1049D00004240025C4F1040603FA06F1C5F1040716
:1049E0000F26FE40164031430901084E315400F0B5
:1049F0001F070126BE4047114FF0E02C0CEB870744
:104A0000C7F80061F0BD00000CED00E000E400E03C
:104A1000024A0A400243024B1A60704780FFFF1FA0
:104A200008ED00E00348006840F480700149086028
:104A300070470000007000402DE9F04F8CB0064632
:104A400000200A903EA090E8004CC068CDE905BE69
:104A5000CDF810A007900FF2EC0ADAE9000ACDE9D0
:104A6000020A0FF2E00ADAE9000ACDE9000A384842
:104A70000068C0F381000B900B9820B1012804D08E
:104A8000022828D103E0334927E0334925E03048A4
:104A9000001F006800F03F072D48001F0068C0F3AA
:104AA000881C2B48001F0068C0F30140401C4FEADF
:104AB00040092748001F006800F48008B8F5800FFF
:104AC00001D1254B00E0234BB3FBF7F000FB0CF0CA
:104AD000B0FBF9F101E01F4900BF00BF1C480068AE
:104AE000C0F3031404A8055D21FA05F21848006814
:104AF000C0F3822402A8055D22FA05F0099014484B
:104B00000068C0F342341DF8045022FA05F0089002
:104B100036B1012E06D0022E06D0032E0AD106E0B1
:104B20000A9108E00A9206E009980A9003E00898C2
:104B30000A9000E000BF00BF0A980CB0BDE8F08FFB
:104B4000000000000000000001020304060708093D
:104B5000083802400024F40040787D0101460748EF
:104B600000EB9110006801F01F0301229A401042EF
:104B700001D0012070470020FCE70000003802400F
:104B8000064901EB9011096800F01F0301229A40C9
:104B90001143024A02EB9012116070470038024044
:104BA000F0B506460024002700251C2E7ED007DC29
:104BB000A6B3102E0FD0182E67D01A2E77D177E01B
:104BC000B6F5E05F17D0B6F5E85F4BD0A6F54050DC
:104BD0001038F3D133E004E01120FFF7BFFF0546A2
:104BE000641C15B9B4F5006FF6D11120FFF7B6FFBC
:104BF00000B101277FE005E041F60140FFF7AEFF7D
:104C00000546641C1DB9A4F57F40FF38F4D141F678
:104C10000140FFF7A3FF00B101276CE0FFE704E0CC
:104C20000120FFF79BFF0546641C15B9B4F5A06F82
:104C3000F6D10120FFF792FF00B101275BE005E00C
:104C400043F21100FFF78AFF0546641C1DB9A4F565
:104C50007F40FF38F4D143F21100FFF77FFF00B12E
:104C6000012748E005E041F60150FFF777FF0546D0
:104C7000641C1DB9A4F57F40FF38F4D141F6015002
:104C8000FFF76CFF00B1012735E004E01920FFF7C2
:104C900065FF0546641C1DB9A4F57F40FF38F5D1BA
:104CA0001920FFF75BFF00B1012724E011E021E0AC
:104CB00004E01B20FFF752FF0546641C1DB9A4F554
:104CC0007F40FF38F5D11B20FFF748FF00B10127D7
:104CD00011E004E01D20FFF741FF0546641C1DB9EB
:104CE000A4F57F40FF38F5D11D20FFF737FF00B155
:104CF000012700E000BF00BF3846F0BD064901EBC8
:104D00009011096800F01F0301229A401143024AE2
:104D100002EB90121160704700380240064901EB27
:104D20009011096800F01F0301229A409143024A42
:104D300002EB90121160704700380240064901EB07
:104D40009011096800F01F0301229A401143024AA2
:104D500002EB90121160704700380240044A11685B
:104D600021F4407141EA0002014B1A6070470000D3
:104D70007038024030B50022002100230024154D78
:104D80002A682D1D2968134D10352B68114D0835E3
:104D90002C680D0C0570C1F30425457001F03F052A
:104DA0008570C1F34235C570C2F305450571C2F384
:104DB0000625457102F07F058571C3F3064505811F
:104DC000C3F30E05458103F48005C56004F040057A
:104DD000056130BD00280040F0B5044600250026DE
:104DE000002720784FF47F0101EA0040E1784FF47A
:104DF000604202EA4131084361784FF4F85202EA16
:104E000001210843A17801F03F0140EA010721791F
:104E10004FF47C1202EA0141E068084361794FF4E3
:104E2000FE4202EA01210843A17901F07F0140EA34
:104E30000106CA20184908605320086000F02EF8C7
:104E400005461DB320894FF4FE0101EA0040618947
:104E5000C1F30E0108431049143908600E48243884
:104E60000660001D0760001D006820F040000A4930
:104E70001C390860084600682169084306491C3946
:104E8000086000F02FF800F05BF80546FF200249AB
:104E900008602846F0BD00002428004008B54FF403
:104EA00080420092002100200D4A126812F0400F4B
:104EB00013D10B4A126842F08002094B1A6000BFFE
:104EC000074A126802F04001009A521E009201D077
:104ED0000029F5D011B1012000E0012008BD00003B
:104EE0000C2800400348006820F080000149086059
:104EF000704700000C28004010B541F21C00FFF77D
:104F0000FDFEFFF78FFD4FF4E050FFF739FE4FF441
:104F1000E050FFF745FE4FF48070FFF71FFFFF20C2
:104F2000054908607F200549086041F60F40FFF7FA
:104F3000E5FE00F005F810BD040000200000002090
:104F400008B54FF40042009200210020134A126875
:104F500012F0200F20D1CA22104B1C331A605322AA
:104F60001A600E4A121D126822F020020B4B1B1D04
:104F70001A6000BF094A121D126802F02001009A4F
:104F8000521E009201D00029F4D001B10120FF226D
:104F9000024B1C331A6000E0012008BD08280040C5
:104FA00070B504460B46CD1701EB9575AD10A1EB1E
:104FB0008505AE000F25B540E843CD1701EB95758B
:104FC000AD10A1EB8505AD0004FA05F2CD1701EB9C
:104FD0009575AD1006D0012D0ED0022D18D0032DE1
:104FE0002ED121E0184B1B680340174D2B602B4638
:104FF0001B6813432B6024E0134B1B1D1B680340ED
:10500000114D2D1D2B602B461B6813432B6018E0A0
:105010000D4B08331B6803400B4D08352B602B46A6
:105020001B6813432B600CE0074B0C331B680340D9
:10503000054D0C352B602B461B6813432B6000E09D
:1050400000BF00BF70BD00000838014000200021F3
:10505000384A126842F48032364B1A6000BF401C56
:10506000344A126802F4003111B9B0F5006FF6D17C
:10507000304A126812F4003F01D100BFFEE72D4A0A
:105080004032126842F080522A4B40331A602A4A5A
:10509000126842F44042284B1A60264A08321268CD
:1050A000244B08331A601A46126842F400421A6010
:1050B0001A46126842F4A0521A60204A1B1F1A6056
:1050C0001A1F126842F080721B1F1A6000BF194A33
:1050D000126812F0007FFAD0174A126842F4803248
:1050E000154B1A6000BF144A526812F4803FFAD080
:1050F000114A126842F400320F4B1A6000BF0E4A88
:10510000526812F4003FFAD00A4A0832126822F0BC
:105110000302084B08331A601A46126842F0020272
:105120001A6000BF034A0832126812F0080FF9D063
:1051300070470000003802400070004019644009C8
:1051400010B5FFF783FF10BD10B5124800684FF48B
:105150007A71B0FBF1F4601EB0F1807F01D30120C1
:105160000FE0601E4FF0E02148610F214FF0FF304B
:10517000FFF786F800204FF0E021886107200861E2
:10518000002008B100BFFEE70021481EFFF778F8B5
:1051900010BD00000C0000202DE9F04704460D462C
:1051A0000027B846B94600263549601A8C4235D0EA
:1051B0000CDC344820181DD0B0F5806F1FD0B0F53E
:1051C000006F21D0B0F5406F32D122E0B0F5806F92
:1051D00029D0B0F5184F03D0B0F51C4F28D104E00A
:1051E0000320FFF729FC074623E00320FFF724FCF8
:1051F00007461EE00220FFF71FFC074619E00220C9
:10520000FFF71AFC074614E00220FFF715FC0746DB
:105210000FE00220FFF710FC07460AE00220FFF72C
:105220000BFC074605E00220FFF706FC074600E0FE
:1052300000BF00BFE06810F4004F10D0780000EB12
:105240005500B0FBF5F64FF6F07006EA000806F0E0
:105250000709A16848EA09000143A1600EE007EBD5
:105260005500B0FBF5F64FF6F07006EA000806F0C0
:105270000F09A16848EA09000143A160BDE8F08771
:105280000078004000BCFFBFC1F3080242607047D5
:1052900010B504463349601A8C424DD00CDC3248BC
:1052A00020181CD0B0F5806F22D0B0F5006F31D03F
:1052B000B0F5406F52D136E0B0F5806F45D0B0F513
:1052C000184F03D0B0F51C4F48D11AE040F6041037
:1052D000FFF734FD40F60410FFF720FD3FE040F6F5
:1052E0001100FFF72BFD40F61100FFF717FD36E028
:1052F00040F61200FFF722FD40F61200FFF70EFD08
:105300002DE040F60510FFF719FD40F60510FFF7F8
:1053100005FD24E040F61300FFF710FD40F61300F2
:10532000FFF7FCFC1BE040F61400FFF707FD40F61A
:105330001400FFF7F3FC12E040F61E00FFF7FEFC3E
:1053400040F61E00FFF7EAFC09E040F61F00FFF7F9
:10535000F5FC40F61F00FFF7E1FC00E000BF00BFD6
:1053600010BD00000078004000BCFFBFC16841F4E0
:105370000051C160704710B5024602EB9110006801
:1053800001F01F040123A340184201D0012010BDE9
:105390000020FCE70A460021C16821F00401114306
:1053A000C16070470A460021C16821F0080111431D
:1053B000C1607047D453000800000020780000004E
:1053C000384300084C5400087800002018040000FE
:1053D000484300080000000000000000000000003A
:1053E00000C2EB0B0010024000100240001402400B
:1053F0000400000008000000000400000411000088
:105400000002000000040000040C040C050C000065
:1054100000000240000802400004024001000000B9
:105420000020000000400000000C020C010C0000F5
:105430000100000000200000004000000002010008
:0C5440000D0E06282800000000000000EF
:04000005080041A905
:00000001FF
