:020000040800F2
:1080000018200020BD8100087F83000877830008C6
:108010007B83000805820008DD8500080000000061
:10802000000000000000000000000000E1830008E4
:108030000982000800000000BD83000835850008A3
:10804000D7810008D7810008D7810008D7810008B0
:10805000D7810008D7810008D7810008D7810008A0
:10806000D7810008D7810008D7810008D781000890
:10807000D7810008D7810008D7810008D781000880
:10808000D7810008D7810008D7810008D781000870
:10809000D7810008D7810008D7810008D781000860
:1080A000D7810008D7810008D7810008D781000850
:1080B000D7810008D7810008D7810008D781000840
:1080C000D7810008D7810008D7810008D781000830
:1080D000D7810008D7810008D7810008D781000820
:1080E000D7810008D7810008D7810008D781000810
:1080F000D7810008D7810008D7810008D781000800
:10810000D7810008D7810008D7810008D7810008EF
:10811000D7810008D7810008D7810008D7810008DF
:10812000D7810008D7810008D7810008D7810008CF
:10813000D7810008D7810008D7810008D7810008BF
:10814000D7810008D7810008D7810008D7810008AF
:1081500000000000D7810008D7810008D7810008FF
:10816000D7810008D781000800000000000000004F
:108170000000000000000000D7810008D78100083F
:10818000D781000800000000D7810008D7810008CF
:1081900000000000000000000000000000000000DF
:1081A000D7810008D7810008DFF80CD000F018F85C
:1081B0000048004701860008182000200648804734
:1081C00006480047FEE7FEE7FEE7FEE7FEE7FEE7BC
:1081D000FEE7FEE7FEE7FEE73D850008A98100080F
:1081E000064C074D06E0E06840F0010394E8070004
:1081F00098471034AC42F6D3FFF7DAFF80860008C8
:10820000A086000800BFFEE7704700000349086031
:1082100000BF024909680029FBD170470000002017
:1082200008B50121502000F0CBF80520ADF8000082
:1082300010208DF8030003208DF8020069460548E0
:1082400000F00CF80320ADF800006946024800F089
:1082500005F808BD00100140001801402DE9F0416B
:10826000024600250026002000230024002791F864
:1082700003C00CF00F0591F803C01CF0100F03D0E1
:1082800091F802C04CEA050591F800C0BCF1000F5E
:1082900031D0146800202BE04FF0010C0CFA00F3F1
:1082A000B1F800C00CEA03069E4220D183004FF0D3
:1082B0000F0C0CFA03F7BC4305FA03FC4CEA040468
:1082C00091F803C0BCF1280F06D14FF0010C0CFA55
:1082D00000FCC2F814C00AE091F803C0BCF1480FDA
:1082E00005D14FF0010C0CFA00FCC2F810C0401C84
:1082F0000828D1D31460B1F800C0BCF1FF0F34D905
:10830000546800202EE000F1080C4FF0010808FA34
:108310000CF3B1F800C00CEA03069E4221D18300A1
:108320004FF00F0C0CFA03F7BC4305FA03FC4CEAC0
:10833000040491F803C0BCF1280F05D100F1080C2A
:1083400008FA0CF8C2F8148091F803C0BCF1480F89
:1083500007D100F1080C4FF0010808FA0CF8C2F838
:108360001080401C0828CED35460BDE8F0814161E4
:1083700070470161704700BFFEE700BFFEE770472E
:1083800010B5002807DA0A07140E054A00F00F039B
:108390001B1FD45403E00A07130E024A135410BDE6
:1083A00018ED00E000E400E0024A0A400243024BFC
:1083B0001A60704780FFFF1F08ED00E07047000063
:1083C00029B1064A92690243044B9A6104E0034AC8
:1083D00092698243014B9A6170470000001002408D
:1083E000704710B500F002F810BD00000CB5002079
:1083F000019000903748006840F4803035490860AB
:1084000000BF3448006800F4003000900198401C20
:108410000190009820B90198A0F57F41FF39F0D173
:108420002C48006810F4003F02D00120009001E0C9
:1084300000200090009801284BD12648406825492B
:1084400048600846406848600846406840F48060DC
:10845000486008464068204908401E494860084670
:10846000406840F4041048600846C06A1B49084050
:108470001849C8620846C06A194908431549C862C4
:108480000846006840F08060086000BF114800683E
:1084900010F0006FFAD00F48006840F080700D496E
:1084A000086000BF0B48006810F0007FFAD0094850
:1084B000406820F00300074948600846406840F0E3
:1084C0000200486000BF0348406800F00C00082824
:1084D000F9D10CBD00100240FFFFC0DF00F0FEFF2D
:1084E000440A010010B5124800684FF47A71B0FBDD
:1084F000F1F4601EB0F1807F01D301200FE0601E17
:108500004FF0E02148610F214FF0FF30FFF738FFB7
:1085100000204FF0E021886107200861002008B1A9
:1085200000BFFEE70021481EFFF72AFF10BD000034
:108530000400002010B500F045F810BD10B51A4831
:10854000006840F001001849086008464068174973
:108550000840154948600846006815490840124916
:1085600008600846006820F48020086008464068DB
:10857000104908400C4948600846006820F0A050A7
:1085800008600020C8624FF47F00886000200A491C
:1085900008604FF480000449C1F894000748084976
:1085A0000860FFF71EFF10BD001002400000FFE052
:1085B000FFFFF6FEFFFF00DF8010024010300020BA
:1085C000981002400448006820B103480068401E2B
:1085D00001490860704700000000002000BFFEE76E
:1085E00002E008C8121F08C1002AFAD1704770477C
:1085F000002001E001C1121F002AFBD170470000DA
:108600004FF400410803FFF7CFFEFFF709FEFFF725
:1086100069FF2FE001211848FFF7ABFE0221174840
:10862000FFF7A5FE4FF4FA70FFF7F0FD04211248A2
:10863000FFF79FFE01211048FFF799FE4FF4FA70F3
:10864000FFF7E4FD01210D48FFF793FE04210A48DE
:10865000FFF78DFE4FF4FA70FFF7D8FD02210748AF
:10866000FFF787FE01210548FFF781FE4FF4FA70FE
:10867000FFF7CCFDCEE700000010014000180140DC
:10868000A08600080000002018000000E085000817
:10869000B88600081800002000200000F0850008BF
:1086A00000000000000E270700000000000000008E
:0886B00001020304060708099A
:04000005080081A9C5
:00000001FF
