:020000040800F2
:1080000048200020BD8100088984000831840008D0
:1080100085840008F1820008E58F00080000000058
:10802000000000000000000000000000858A000839
:10803000F582000800000000D1850008898B000847
:10804000D7810008D7810008D7810008C9890008B6
:10805000D7810008D7810008D7810008D7810008A0
:10806000D7810008D7810008D7810008D781000890
:10807000D7810008D7810008D7810008D781000880
:10808000D7810008D7810008D7810008D781000870
:10809000D7810008D7810008D7810008D781000860
:1080A000D7810008D7810008D7810008D781000850
:1080B000D7810008D7810008D7810008D781000840
:1080C000D7810008D7810008D7810008D781000830
:1080D000D7810008D7810008D7810008D781000820
:1080E000D7810008D7810008D7810008D781000810
:1080F000D7810008D7810008D7810008D781000800
:10810000D7810008D7810008D7810008D7810008EF
:10811000D7810008D7810008D7810008D7810008DF
:10812000D7810008D7810008D7810008D7810008CF
:10813000D7810008D7810008D7810008D7810008BF
:10814000D7810008D7810008D7810008D7810008AF
:1081500000000000D7810008D7810008D7810008FF
:10816000D7810008D781000800000000000000004F
:108170000000000000000000D7810008D78100083F
:10818000D781000800000000D7810008D7810008CF
:1081900000000000000000000000000000000000DF
:1081A000D7810008D7810008DFF80CD000F04AF82A
:1081B00000480047119300084820002006488047E7
:1081C00006480047FEE7FEE7FEE7FEE7FEE7FEE7BC
:1081D000FEE7FEE7FEE7FEE78D8B0008A9810008B9
:1081E0002DE9F05F0546002092469B4688460646EC
:1081F000814640241BE0284641464746224600F07F
:1082000042F853465A46C01A914110D311461846B7
:10821000224600F029F82D1A67EB01084F46224646
:108220000120002100F020F817EB00094E41201E2C
:10823000A4F10104DFDC484631462A464346BDE846
:10824000F09F0000064C074D06E0E06840F0010397
:1082500094E8070098471034AC42F6D3FFF7A8FF24
:108260005C9700087C970008202A04DB203A00FA7B
:1082700002F1002070479140C2F1200320FA03F37D
:10828000194390407047202A04DB203A21FA02F07B
:108290000021704721FA02F3D040C2F12002914040
:1082A00008431946704710B5012000F0B3F90020CB
:1082B00000F0B0F910BD000008B5014600200090A4
:1082C000034800900098084400900098008808BD7A
:1082D000006C004008B500220092044A0092009A07
:1082E00002440092009A118008BD0000006C00401A
:1082F00000BFFEE770472DE9F04102460025002649
:10830000002000230024002791F803C00CF00F0583
:1083100091F803C01CF0100F03D091F802C04CEA92
:10832000050591F800C0BCF1000F31D014680020A1
:108330002BE04FF0010C0CFA00F3B1F800C00CEA8E
:1083400003069E4220D183004FF00F0C0CFA03F776
:10835000BC4305FA03FC4CEA040491F803C0BCF1E9
:10836000280F06D14FF0010C0CFA00FCC2F814C023
:108370000AE091F803C0BCF1480F05D14FF0010CA1
:108380000CFA00FCC2F810C0401C0828D1D31460BD
:10839000B1F800C0BCF1FF0F34D9546800202EE0C2
:1083A00000F1080C4FF0010808FA0CF3B1F800C016
:1083B0000CEA03069E4221D183004FF00F0C0CFA09
:1083C00003F7BC4305FA03FC4CEA040491F803C02C
:1083D000BCF1280F05D100F1080C08FA0CF8C2F81E
:1083E000148091F803C0BCF1480F07D100F1080CCC
:1083F0004FF0010808FA0CF8C2F81080401C082859
:10840000CED35460BDE8F0814161704706480068F2
:10841000064908600448001D0068486002480830AA
:108420000068886070470000E8F7FF1F38000020F0
:1084300000BFFEE708B5C020ADF8000003208DF8AE
:10844000020010208DF8030069460D48FFF753FF26
:108450004FF44070ADF8000003208DF802001020AA
:108460008DF8030069460648FFF745FFC021044820
:10847000FFF7CAFF4FF440710148FFF7C5FF08BD81
:10848000001C014000BFFEE7704708B54FF4806054
:1084900000F078F803208DF8000000208DF801002E
:1084A0008DF8020001208DF80300684600F002F804
:1084B00008BD000070B5002100220023C478002C04
:1084C0004ED02D4C246804F4E064B4F5E06F02D182
:1084D00000BF042326E0284C246804F4E064B4F5CB
:1084E000C06F02D1012203231CE0234C246804F452
:1084F000E064B4F5A06F02D10222022312E01E4C08
:10850000246804F4E064B4F5806F02D103220123EF
:1085100008E0194C246804F4E064B4F5407F01D10C
:10852000042200234478C2F1040504FA05F184789A
:10853000C3F104060F2535412C40214309010F4C9E
:108540000678A155047804F01F050124AC40057895
:108550006D114FF0E02606EB8505C5F8004109E0F6
:10856000047804F01F050124AC40054D067876110F
:1085700045F8264070BD00000CED00E000E400E08E
:1085800080E100E002490143024A116070470000A7
:108590000000FA050CED00E0024A0A400243024BDB
:1085A0001A60704780FFFF1F08ED00E030B10749F7
:1085B000096841F48071054A116005E003490968C2
:1085C00021F48071014A1160704700000070004082
:1085D0007047000029B1064AD2690243044BDA61B0
:1085E00004E0034AD2698243014BDA61704700001C
:1085F0000010024029B1064A92690243044B9A6175
:1086000004E0034A92698243014B9A61704700007B
:108610000010024030B10749096A41F48031054A2F
:10862000116205E00349096A21F48031014A1162AF
:1086300070470000001002400348406A40F080701C
:1086400001494862704700000010024010B5012146
:108650000420FFF7CFFF01210820FFF7CBFF012106
:108660001020FFF7C7FF01212020FFF7C3FF0121E2
:108670004020FFF7BFFF01218020FFF7BBFF012152
:108680000846FFF7B7FF01218803FFF7B3FF10BDCE
:108690000246002100235111012902D10C48036830
:1086A0000BE0022902D10A48036A06E0042902D13C
:1086B0000848036801E00648436A02F01F010120F0
:1086C0008840184201D0012070470020FCE70000DC
:1086D00000100240901002402DE9F04700210022D6
:1086E00000268C46002588460027894600245E4BDC
:1086F0005B6803F00C0121B1042905D0082954D18D
:1087000005E05A4B036053E0594B036050E0564B71
:108710005B6803F47012544B5B6803F00056730FF0
:108720001E0106EB92420D2A00D106E00F2A02D369
:10873000521C520001E0921C52004B4B5B6803F448
:10874000803CBCF1000F04D14A4B53435B080360EB
:108750002AE0454BDB6A03F48038434BDB6A03F0C5
:108760000F035F1CB8F1000F06D1414BB3FBF7F3C9
:1087700053435B08036017E03B4BDB6AC3F303130F
:1087800003F10109384BDB6AC3F303240F2C01D03A
:10879000A41C00E0641D364BB3FBF9F36343B3FB49
:1087A000F7F353435B08036002E0304B036000BF04
:1087B00000BF2D4B5B6803F0F00109092E4B5D5C97
:1087C0000368EB404360284B5B6803F4E061090AEF
:1087D0002A4B5D5C4368EB408360234B5B6803F48A
:1087E0006051C90A254B5D5C4368EB40C3601E4B7A
:1087F0005B6803F08053990E1B4B5B68C3F38133B6
:10880000194408292BD2DFE801F004080C13171BC8
:108810002226C3685B08036122E0C3689B080361EA
:108820001EE04FF0060AC368B3FBFAF3036117E0DA
:10883000C368DB08036113E0C3685B0803610FE0F2
:108840004FF00C0AC368B3FBFAF3036108E0C36896
:10885000DB08036104E0C3681B09036100E000BF9B
:1088600000BFBDE8F08700000010024000127A004F
:1088700040787D0100093D001C0000202C000020F4
:108880000749096A21F00101054A11621146096A86
:1088900021F0040111621146096A01431162704717
:1088A000001002400549096A21F44071034A11622F
:1088B0001146096A0143116270470000001002402E
:1088C00030B10749096A41F40041054A116205E0E7
:1088D0000349096A21F40041014A1162704700000E
:1088E00000100240024909888143014A1180704703
:1088F0000428004010B501214FF0C050FFF76AFE78
:108900000120FFF753FEFFF7CEFC0120FFF7B8FF71
:1089100000BF4120FFF7BCFE0028FAD04FF4807062
:10892000FFF7C0FF0120FFF7CBFF00F09BF800F03E
:108930008FF80121084600F037F800F089F847F673
:10894000FF7000F075F800F083F810BD0348008850
:1089500040F01000014908807047000004280040E2
:108960000348008820F0100001490880704700008B
:1089700004280040002103480188001F008841EAC4
:10898000004070471C280040014606480088084205
:1089900006D00448001D0088084201D0012070471D
:1089A0000020FCE700280040012905D1054A128873
:1089B0000243044B1A8004E0024A12888243014BAE
:1089C0001A8070470028004010B50120FFF7DCFF37
:1089D000C8B10120FFF786FF0B48008820B10A4884
:1089E0000088401E0849088001200849086000F0FE
:1089F0002FF8FFF7BFFF0649884204D1002000F09E
:108A000009F800F025F810BD020000200400002045
:108A10008051010000B50246FFF798FF100C034992
:108A20000880091D0A80FFF79BFF00BD1828004041
:108A300000B50246FFF78AFFC2F3034003490880EE
:108A4000091D0A80FFF78CFF00BD000008280040C8
:108A500000BF0348008810F0200FFAD070470000D4
:108A6000042800400648008820F0080004490880D7
:108A700000BF0348008810F0080FFAD070470000CC
:108A800004280040704710B500F002F810BD000047
:108A90000CB50020019000903748006840F4803009
:108AA0003549086000BF3448006800F40030009089
:108AB0000198401C0190009820B90198A0F57F41D1
:108AC000FF39F0D12C48006810F4003F02D001209B
:108AD000009001E000200090009801284BD126482A
:108AE0004068254948600846406848600846406834
:108AF00040F48060486008464068204908401E49AC
:108B000048600846406840F4041048600846C06A5F
:108B10001B4908401849C8620846C06A19490843F9
:108B20001549C8620846006840F08060086000BFD0
:108B30001148006810F0006FFAD00F48006840F04C
:108B400080700D49086000BF0B48006810F0007F7E
:108B5000FAD00948406820F00300074948600846F9
:108B6000406840F00200486000BF0348406800F0E1
:108B70000C000828F9D10CBD00100240FFFFC0DF37
:108B800000F0FEFF440A01007047000010B51A48CB
:108B9000006840F00100184908600846406817491D
:108BA00008401549486008460068154908401249C0
:108BB00008600846006820F4802008600846406885
:108BC000104908400C4948600846006820F0A05051
:108BD00008600020C8624FF47F00886000200A49C6
:108BE00008604FF480000449C1F894000748084920
:108BF0000860FFF748FF10BD001002400000FFE0D2
:108C0000FFFFF6FEFFFF00DF801002401030002063
:108C10009810024010B5FFF71BFF00F041F8044622
:108C2000FFF7F8FEFFF714FF10BD00002DE9F0413B
:108C300004460025002600274FF46160B4FBF0F0E5
:108C40001821B0FBF1F201FB12054FF46160B4FB97
:108C5000F0F100FB11403C21B0FBF1F64FF46160F4
:108C6000B4FBF0F100FB11403C21B0FBF1F201FB41
:108C700012073B463246294602A000F0B5F9BDE88E
:108C8000F081000054696D653A2025302E32643A37
:108C900025302E32643A25302E32640D000000005B
:108CA00070B5FF26FF24FF251A4800F09DF91AA091
:108CB00000F09AF903E0172000F02AF90646FF2E8B
:108CC000F9D031461AA000F08FF91BA000F08CF902
:108CD00003E03B2000F01CF90446FF2CF9D02146AC
:108CE00013A000F081F91AA000F07EF903E03B2008
:108CF00000F00EF90546FF2DF9D029460CA000F032
:108D000073F94FF461607043C4EB041100EB810010
:108D1000284470BD189700080D0A2020506C65612A
:108D200073652053657420486F75727300000000EE
:108D30003A202025640000000D0A2020506C656157
:108D4000736520536574204D696E757465730000FA
:108D50000D0A2020506C65617365205365742053A3
:108D600065636F6E6473000010B50A4800680128DF
:108D70000FD109A000F038F9FFF7FCFD0446FFF71A
:108D800055FF06480078401C04490870002001493E
:108D9000086010BD040000200A0D00000000002043
:108DA00000B587B04FF4E1300190002002900390AD
:108DB000049006900C20059001A9044800F054F896
:108DC0000121024800F02BF807B000BD0038014037
:108DD00008B54FF40070ADF8000003208DF80200D4
:108DE00018208DF8030069460748FFF784FA4FF40E
:108DF0008060ADF8000004208DF803006946024849
:108E0000FFF779FA08BD00000008014001464868F4
:108E1000C0F308007047C1F308024260704721B1F7
:108E2000C26842F40052C26003E0C26822F40052F9
:108E3000C26070470CB5024600200190009000927D
:108E4000080F019021F07F41019810B10098009027
:108E500002E000988830009000980068084201D035
:108E600001200CBD0020FCE72DE9F04385B004464D
:108E70000E4600BF4FF00009002500BFE06820F457
:108E80000050E060256925F44055B0680543256130
:108E9000E56841F20C608543F16870680843316908
:108EA00008430543E560656925F44075706905432D
:108EB00065616846FFF710FC1348844202D01348EE
:108EC000844202D1DDF80C9001E0DDF8089009EB56
:108ED000C90000EB091031688900B0FBF1F764208C
:108EE000B7FBF0F005012809642101FB107832205E
:108EF00000EB0810B0FBF1F000F00F000543A8B242
:108F0000A06005B0BDE8F08300380140007001406A
:108F10007CB5054600240020009001901BE000BFB6
:108F200017491848FFF786FF0028F9D01548FFF7C2
:108F30006DFF2146641C4DF82100601E5DF8200085
:108F4000302804D3601E5DF82000392803D90EA014
:108F500000F04AF8641E022CE1D3019830380099E1
:108F6000303901EB810100EB4104AC4205D92946BF
:108F700010A000F039F8FF207CBDE0B2FCE7000053
:108F800020000010003801400A0D506C65617365C7
:108F900020656E7465722076616C6964206E756DF3
:108FA000626572206265747765656E203020616E3F
:108FB000642039000A0D506C6561736520656E741C
:108FC00065722076616C6964206E756D62657220D1
:108FD0006265747765656E203020616E642025645B
:108FE0000000000000BFFEE70FB4054B10B503A959
:108FF000044A029800F018F810BC5DF814FB000059
:10900000E99200083400002002E008C8121F08C1DD
:10901000002AFAD170477047002001E001C1121FF9
:10902000002AFBD1704700002DE9FF4F8DB09B4611
:109030000F460446002638E1252801D00F9959E053
:109040000025641C9D49A84601222378203B02FA92
:1090500003F0084202D00543641CF6E720782E286E
:1090600017D114F8010F45F004052A280ED06FF02F
:109070002F022078A0F1300109290AD808EB8801D5
:1090800002EB410100EB0108641CF2E757F8048B86
:10909000641C20786C280DD004DC4C2812D06A287F
:1090A00011D104E074280DD07A280CD10AE045F4DF
:1090B000001507E0617845F48015814202D1641CF7
:1090C00005F58015641C2278692A46D008DC002A40
:1090D00070D0582A69D0632A11D0642A08D13CE0A4
:1090E000702A69D0732A14D0752A5CD0782A5CD093
:1090F0000F9910465A46904706F10106D4E017F83A
:10910000040B8DF8000000208DF80100E9460120D5
:1091100003E057F8049B4FF0FF3069074FF000055C
:1091200001D40AE06D1C45450DDA8542FADB19F8D9
:1091300005100029F6D106E06D1C8542FCDB19F80C
:1091400005100029F8D12E4404E019F8010B5A4605
:109150000F9990476D1EF8D2A6E00A200021CDE9B4
:109160000801C5F3025002280BD001CFC117002916
:109170000EDA4FF0000CD0EB0C006CEB01012D234C
:1091800009E007F1070727F00707F7E80201EEE714
:109190002B0504D52B238DF82830012330E0EB0775
:1091A0002ED02023F7E70A2000E010200021CDE98F
:1091B000080109E07DE0FFE71020002145F00405EB
:1091C000CDE908014FF00808C5F3025002281BD072
:1091D00001CF00214FF0000A2B0712D5702A19D0B9
:1091E000DDE908C38CF0100C5CEA030C09D150EAED
:1091F000010306D030238DF828308DF82920022372
:109200009A46582A10D00AE0FF1D27F00707F7E812
:109210000201DFE740228DF828204FF0010A28A242
:109220000DF120090B9209E02AA2F9E7DDE90823F4
:10923000FEF7D6FF0B9B9B5C09F8013D50EA01024B
:10924000F4D1ADEB090000F120000890680701D4CB
:109250004FF001080899884502DDA8EB010000E005
:1092600000208046002506E00AA85A46405D0F9976
:109270009047761C6D1C5545F6DB04E030205A46BD
:109280000F999047761CB8F10001A8F10108F5DCB0
:1092900005E019F8010B5A460F999047761C08997A
:1092A000481E08900029F4DC641C207800287FF414
:1092B000C3AE11B03046BDE8F08F000009280100B0
:1092C000303132333435363738396162636465663C
:1092D00000000000303132333435363738394142FE
:1092E000434445460000000070B504460D46E1B217
:1092F0000548FFF790FD00BF04490348FFF79AFDBA
:109300000028F9D0204670BD0038014080000010D0
:109310004FF400410803FFF73FF9FFF797F9FFF714
:10932000B4F8FFF787F8FFF753FDFFF739FD324830
:10933000FFF75AFE31A0FFF757FE3CA13EA0FFF712
:1093400053FE2D485430FFF74FFE48A0FFF74CFE68
:1093500000231A46012146A0FFF746FE5348016844
:1093600053A0FFF741FE5D4801885DA0FFF73CFE7A
:10937000FFF74CF8644803684268816863A0FFF710
:1093800033FE0420FEF798FFA0F52541A5390FD044
:109390006DA0FFF729FEFFF7ADFA78A0FFF724FED6
:1093A000FFF738FC4AF2A5510420FEF793FF19E0BD
:1093B0007B20FFF76DF918B17BA0FFF715FE06E0E3
:1093C0007A20FFF765F910B184A0FFF70DFE90A099
:1093D000FFF70AFEFFF746FB01210846FFF7E4FA14
:1093E000FFF736FBFFF728F996A0FFF7FDFD01E038
:1093F000FFF7BAFCFCE70000809600080A0D47441E
:109400003332323037492D4556414C2D56312E30AE
:109410002053797374656D2069732053746172747D
:10942000696E672075702E2E2E0A0D00312E302E9B
:1094300030303030000000000A0D47443332323003
:1094400037492D4556414C2D56312E302050726FE4
:109450006772616D2056657273696F6E206E756DEF
:109460006265723A474425730A0D00000D0A000038
:109470000A0D47443332323037492D4556414C2D81
:1094800056312E302047443332463230785F5374A1
:10949000645065726970685F56657273696F6E3A81
:1094A00025642E25642E25640A0D00000800002086
:1094B0000A0D47443332323037492D4556414C2D41
:1094C00056312E302053797374656D436F72654346
:1094D0006C6F636B3A2564487A0A0D00E0F7FF1F52
:1094E0000A0D47443332323037492D4556414C2D11
:1094F00056312E3020466C6173683A25644B204209
:109500007974650A0D000000380000200A0D4744F8
:109510003332323037492D4556414C2D56312E309D
:10952000205468652043505520556E69717565203B
:109530004465766963652049443A5B25582D255872
:109540002D25585D0A0D00000D0A47443332323094
:1095500037492D4556414C2D56312E30205254431B
:10956000206E6F742079657420636F6E666967750D
:109570007265642E2E2E2E0A0D0000000D0A47443F
:109580003332323037492D4556414C2D56312E302D
:109590002052544320636F6E666967757265642E4E
:1095A0002E2E2E0A0D0000000D0A474433323230B1
:1095B00037492D4556414C2D56312E3020506F776E
:1095C0006572204F6E205265736574206F636375FA
:1095D000727265642E2E2E2E0A0D00000D0A47446D
:1095E0003332323037492D4556414C2D56312E30CD
:1095F0002045787465726E616C20526573657420C5
:109600006F636375727265642E2E2E2E0A0D000034
:109610000D0A47443332323037492D4556414C2DDF
:1096200056312E30204E6F206E65656420746F2099
:10963000636F6E666967757265205254432E2E2ED5
:109640002E0A0D000D0A47443332323037492D457A
:1096500056414C2D56312E3020446973706C61791F
:109660002074696D6520696E20696E66696E697423
:1096700065206C6F6F702E2E2E2E0D0A00000000DC
:109680000A0D2323232323232323232323232323D9
:10969000232323232323232323232323232323239A
:1096A000232323232323232323232323232323238A
:1096B000232323232323232323232323232323237A
:1096C000232323232323232323232323232323236A
:1096D000230A0D000A0D47443332323037492D45F5
:1096E00056414C2D56312E302050726F6772616D8D
:1096F00020436F6D70696C652074696D653A28460A
:1097000065622031372032303137202D2031373A11
:1097100030383A33392900000D0A3D3D3D3D3D3D8D
:109720003D3D3D3D3D3D3D3D54696D652053657476
:1097300074696E67733D3D3D3D3D3D3D3D3D3D3D65
:109740003D3D3D3D3D3D3D3D3D3D3D3D3D3D3D3D49
:109750003D3D3D3D3D3D3D3D3D3D00007C9700088C
:10976000000000203800000008900008B4970008AE
:1097700038000020102000001890000800000000B1
:1097800000000000000E270700000000000000009D
:1097900001020304060708090000000000000000A1
:1097A0000102030406070809000000000102030487
:0497B00000000000B5
:04000005080081A9C5
:00000001FF
