:020000040800F2
:108000001004002069810008AD810008A9810008E2
:108010000000000000000000000000000000000060
:10802000000000000000000000000000B181000816
:108030000000000000000000AF8100080D82000871
:108040007B8100087B8100087B8100087B81000820
:108050007B8100087B8100087B8100087B81000810
:108060007B8100087B8100087B8100087B81000800
:108070007B8100087B8100087B8100087B810008F0
:108080007B8100087B8100087B8100087B810008E0
:108090007B8100087B8100087B8100087B810008D0
:1080A0007B8100087B8100087B8100087B810008C0
:1080B0007B8100087B8100087B8100087B810008B0
:1080C0007B8100087B8100087B8100087B810008A0
:1080D0007B8100087B810008000000007B81000894
:1080E0007B8100087B8100087B8100087B81000880
:1080F0000000000000000000000000007B8100087C
:10810000000000000000000000000000000000006F
:108110000000000000000000000000007B8100085B
:108120007B8100087B8100087B8100087B8100083F
:108130007B8100087B8100087B8100087B8100082F
:108140007B8100087B8100087B8100087B8100081F
:108150007B8100080348854600F014F8004800477A
:10816000698500081004002004488047044800473F
:10817000FEE7FEE7FEE7FEE7FEE7FEE719820008FE
:1081800055810008064C0125064E05E0E36807CC42
:108190002B430C3C98471034B442F7D3FFF7DEFF73
:1081A0000488000824880008FFE7FEE7704770474E
:1081B0007047000080B584B0014602900298401ECE
:1081C000000E0028019103D0FFE70120039013E087
:1081D0000298401E0A4908600020C1430322009013
:1081E0000846114600F062F806480099016006480A
:1081F000072202600391FFE7039804B080BDC046E8
:1082000014E000E018E000E010E000E080B500F0CD
:1082100089F900F0A1F880BD80B582B01B480168E3
:10822000012211430160FFE7184800688007002819
:1082300001D4FFE7F8E716480168164A11400160CB
:108240000168154A1140016010480168134A114045
:108250000160134801680F229143016011480168D1
:1082600040F2031291430160016803229207914397
:1082700001600D4800210160019100F085FA0120A4
:10828000C006019900F0DAF902B080BD001002408A
:10829000041002400C00FF08FFFF007FFFFFF2FE0A
:1082A0002C100240301002400810024070B584B01B
:1082B0000A46034603AC20700291207840B20028A1
:1082C0000192009317DBFFE703A8017849B203226C
:1082D000D2431140174BC958007840B28407E40ECE
:1082E000FF25A540A943029DAD01EDB2A54029435C
:1082F0001040C1501AE003A801780F22114008393C
:108300000323DB4319400A4C0959007840B2850722
:10831000ED0EFF26AE40B143029EB601F6B2AE406E
:1083200031431040083818400151FFE704B070BDD8
:108330001CED00E000E400E082B0014601900198ED
:108340000B4A10600091FFE709480068002801D03F
:10835000FFE7F9E702B0704705480068002805D03C
:10836000FFE703480168491E0160FFE77047C04608
:108370000800002082B0014601AA10701078800029
:108380000A4A12580A4B18588262009102B070478C
:1083900082B0014601AA107010788000034A12587A
:1083A000034B18588261009102B07047E4870008BF
:1083B000F487000884B00A460346039002910298AD
:1083C000039988620192009304B0704784B00A4612
:1083D00003460390029102980399886101920093E9
:1083E00004B07047F0B58BB01C4615460E460746E4
:1083F0000A900991089207930A98006805900A98D4
:10840000C068049006A8002101800394029501969B
:108410000097FFE706A800880F282CD8FFE706A8DA
:10842000008801218140079801421ED0FFE706A87D
:1084300001884900032213468B4005999943059111
:10844000099903885B009940059B0B4305930188BC
:1084500049008A400499914304910899008840009A
:108460008140049808430490FFE7FFE70698401C0A
:1084700006A90880CEE705980A99086004980A9929
:10848000C8600BB0F0BDF0B58AB01C4615460E466C
:108490000746099008A80170079206930078012802
:1084A000039402950196009706D1FFE70698099973
:1084B0004A6802434A6005E0069809994A6882437F
:1084C0004A60FFE709988068049005A800210180B0
:1084D000FFE705A800880F281ED8FFE705A8008839
:1084E000012181400698014210D0FFE705A80188CC
:1084F000490003228A400499914304910799008816
:1085000040008140049808430490FFE7FFE7059886
:10851000401C05A90880DCE70498099988600AB026
:10852000F0BD000080B50F480068002813D0FFE7B9
:108530000C48006880087C2804D8FFE70020FFF77B
:1085400027FF03E00020FFF715FFFFE7054801685C
:10855000491E016004E0034840F2E8310160FFE792
:1085600080BDC0460C00002080B58CB000200B9070
:108570000121CA0648F200030A90104609911946E3
:1085800000F05CF800F004F92A4800F06DF82A4881
:1085900040F680310890099A079111460A9A079B84
:1085A000FFF720FF032208980A99079BFFF76BFF4C
:1085B00008980799FFF7FEFEFFE71F488021069005
:1085C0000591FFF703FF40F6000006990490084666
:1085D0000499FFF7EFFE40F2F4100390FFF7ACFEB2
:1085E00040F200100699029008460299FFF7EEFE4D
:1085F00006980599FFF7DEFE0398FFF79DFE40F20F
:1086000000200699019008460199FFF7DFFE0698C1
:108610000299FFF7CFFE0398FFF78EFE06980499A4
:10862000FFF7D4FE06980199FFF7C4FE0398FFF701
:1086300083FEC2E7130500000008004810B584B0AF
:108640000A4603460390029103980299044C214084
:108650000843044908600192009304B010BDC0466D
:1086600080FFFF1F08ED00E010B582B0014601AAAF
:10867000108010881F220346134001229A4080096F
:108680003B4BC4581443C450009102B010BDC046C7
:1086900010B583B000200290019035480168012296
:1086A000120411430160FFE70298401C0290304819
:1086B00000680121490408400190FFE7019800216A
:1086C0000028009107D1FFE702982A49401A411E6D
:1086D00088410090FFE70098C0070028E4D1FFE739
:1086E000234800688003002802D4FFE7FFE7FEE785
:1086F00021480168012211430623994301601F4864
:108700000168016001680160016840F2004319439B
:1087100001601B490B680F24A3430B600168194BD0
:1087200019400160016819231B04194301601048B6
:108730000168120611430160FFE70D4800688001DF
:10874000002801D4FFE7F8E70C48016803229143B1
:1087500001600168022211430160FFE707480068D9
:108760000C210840082801D0FFE7F7E703B010BD4F
:1087700000100240FFFF00000020024004100240F1
:108780002C100240FFFF007F80B5FFF781FF80BD06
:1087900080B582B00A48006840F2E831B0FBF1F0E1
:1087A000FFF708FD002802D0FFE7FFE7FEE7002003
:1087B000C143019008460199FFF778FD02B080BDE2
:1087C0000000002002E008C8121F08C1002AFAD1E8
:1087D00070477047002001E001C1121F002AFBD141
:1087E000704700008000000000010000000200004F
:1087F0000008000000080048000800480008004881
:108800000008004828880008000000200800000038
:10881000C487000830880008080000200804000011
:10882000D4870008000000000090D0030000000082
:040000050800815519
:00000001FF
